{
  "address": "0xD2440F8fce05C77C847aAf208c9882fdfe85639F",
  "abi": [
    {
      "inputs": [],
      "stateMutability": "nonpayable",
      "type": "constructor"
    },
    {
      "anonymous": false,
      "inputs": [
        {
          "indexed": true,
          "internalType": "address",
          "name": "owner",
          "type": "address"
        },
        {
          "indexed": true,
          "internalType": "address",
          "name": "approved",
          "type": "address"
        },
        {
          "indexed": true,
          "internalType": "uint256",
          "name": "tokenId",
          "type": "uint256"
        }
      ],
      "name": "Approval",
      "type": "event"
    },
    {
      "anonymous": false,
      "inputs": [
        {
          "indexed": true,
          "internalType": "address",
          "name": "owner",
          "type": "address"
        },
        {
          "indexed": true,
          "internalType": "address",
          "name": "operator",
          "type": "address"
        },
        {
          "indexed": false,
          "internalType": "bool",
          "name": "approved",
          "type": "bool"
        }
      ],
      "name": "ApprovalForAll",
      "type": "event"
    },
    {
      "anonymous": false,
      "inputs": [
        {
          "indexed": true,
          "internalType": "address",
          "name": "from",
          "type": "address"
        },
        {
          "indexed": true,
          "internalType": "address",
          "name": "to",
          "type": "address"
        },
        {
          "indexed": true,
          "internalType": "uint256",
          "name": "tokenId",
          "type": "uint256"
        }
      ],
      "name": "Transfer",
      "type": "event"
    },
    {
      "inputs": [
        {
          "internalType": "address",
          "name": "operator",
          "type": "address"
        },
        {
          "internalType": "uint256",
          "name": "id",
          "type": "uint256"
        }
      ],
      "name": "approve",
      "outputs": [],
      "stateMutability": "nonpayable",
      "type": "function"
    },
    {
      "inputs": [
        {
          "internalType": "address",
          "name": "owner",
          "type": "address"
        }
      ],
      "name": "balanceOf",
      "outputs": [
        {
          "internalType": "uint256",
          "name": "balance",
          "type": "uint256"
        }
      ],
      "stateMutability": "view",
      "type": "function"
    },
    {
      "inputs": [
        {
          "internalType": "uint256",
          "name": "id",
          "type": "uint256"
        }
      ],
      "name": "getApproved",
      "outputs": [
        {
          "internalType": "address",
          "name": "",
          "type": "address"
        }
      ],
      "stateMutability": "view",
      "type": "function"
    },
    {
      "inputs": [
        {
          "internalType": "address",
          "name": "owner",
          "type": "address"
        },
        {
          "internalType": "address",
          "name": "operator",
          "type": "address"
        }
      ],
      "name": "isApprovedForAll",
      "outputs": [
        {
          "internalType": "bool",
          "name": "isOperator",
          "type": "bool"
        }
      ],
      "stateMutability": "view",
      "type": "function"
    },
    {
      "inputs": [
        {
          "internalType": "address",
          "name": "to",
          "type": "address"
        },
        {
          "internalType": "bytes",
          "name": "musicBytecode",
          "type": "bytes"
        }
      ],
      "name": "mint",
      "outputs": [],
      "stateMutability": "nonpayable",
      "type": "function"
    },
    {
      "inputs": [],
      "name": "name",
      "outputs": [
        {
          "internalType": "string",
          "name": "",
          "type": "string"
        }
      ],
      "stateMutability": "pure",
      "type": "function"
    },
    {
      "inputs": [
        {
          "internalType": "uint256",
          "name": "id",
          "type": "uint256"
        }
      ],
      "name": "ownerOf",
      "outputs": [
        {
          "internalType": "address",
          "name": "owner",
          "type": "address"
        }
      ],
      "stateMutability": "view",
      "type": "function"
    },
    {
      "inputs": [
        {
          "internalType": "bytes",
          "name": "musicBytecode",
          "type": "bytes"
        },
        {
          "internalType": "uint256",
          "name": "start",
          "type": "uint256"
        },
        {
          "internalType": "uint256",
          "name": "length",
          "type": "uint256"
        }
      ],
      "name": "play",
      "outputs": [
        {
          "internalType": "string",
          "name": "",
          "type": "string"
        }
      ],
      "stateMutability": "nonpayable",
      "type": "function"
    },
    {
      "inputs": [],
      "name": "postUpgrade",
      "outputs": [],
      "stateMutability": "nonpayable",
      "type": "function"
    },
    {
      "inputs": [
        {
          "internalType": "address",
          "name": "from",
          "type": "address"
        },
        {
          "internalType": "address",
          "name": "to",
          "type": "address"
        },
        {
          "internalType": "uint256",
          "name": "id",
          "type": "uint256"
        }
      ],
      "name": "safeTransferFrom",
      "outputs": [],
      "stateMutability": "nonpayable",
      "type": "function"
    },
    {
      "inputs": [
        {
          "internalType": "address",
          "name": "from",
          "type": "address"
        },
        {
          "internalType": "address",
          "name": "to",
          "type": "address"
        },
        {
          "internalType": "uint256",
          "name": "id",
          "type": "uint256"
        },
        {
          "internalType": "bytes",
          "name": "data",
          "type": "bytes"
        }
      ],
      "name": "safeTransferFrom",
      "outputs": [],
      "stateMutability": "nonpayable",
      "type": "function"
    },
    {
      "inputs": [
        {
          "internalType": "address",
          "name": "operator",
          "type": "address"
        },
        {
          "internalType": "bool",
          "name": "approved",
          "type": "bool"
        }
      ],
      "name": "setApprovalForAll",
      "outputs": [],
      "stateMutability": "nonpayable",
      "type": "function"
    },
    {
      "inputs": [
        {
          "internalType": "bytes4",
          "name": "id",
          "type": "bytes4"
        }
      ],
      "name": "supportsInterface",
      "outputs": [
        {
          "internalType": "bool",
          "name": "",
          "type": "bool"
        }
      ],
      "stateMutability": "pure",
      "type": "function"
    },
    {
      "inputs": [],
      "name": "symbol",
      "outputs": [
        {
          "internalType": "string",
          "name": "",
          "type": "string"
        }
      ],
      "stateMutability": "pure",
      "type": "function"
    },
    {
      "inputs": [
        {
          "internalType": "address",
          "name": "owner",
          "type": "address"
        },
        {
          "internalType": "uint256",
          "name": "index",
          "type": "uint256"
        }
      ],
      "name": "tokenOfOwnerByIndex",
      "outputs": [
        {
          "internalType": "uint256",
          "name": "",
          "type": "uint256"
        }
      ],
      "stateMutability": "view",
      "type": "function"
    },
    {
      "inputs": [
        {
          "internalType": "uint256",
          "name": "id",
          "type": "uint256"
        }
      ],
      "name": "tokenURI",
      "outputs": [
        {
          "internalType": "string",
          "name": "",
          "type": "string"
        }
      ],
      "stateMutability": "view",
      "type": "function"
    },
    {
      "inputs": [],
      "name": "totalSupply",
      "outputs": [
        {
          "internalType": "uint256",
          "name": "",
          "type": "uint256"
        }
      ],
      "stateMutability": "view",
      "type": "function"
    },
    {
      "inputs": [
        {
          "internalType": "address",
          "name": "from",
          "type": "address"
        },
        {
          "internalType": "address",
          "name": "to",
          "type": "address"
        },
        {
          "internalType": "uint256",
          "name": "id",
          "type": "uint256"
        }
      ],
      "name": "transferFrom",
      "outputs": [],
      "stateMutability": "nonpayable",
      "type": "function"
    }
  ],
  "transactionHash": "0x95cf762714dbbdca2728ec5d9d7a48b298935b71af71d022cc816c90dfde0656",
  "args": [],
  "numDeployments": 1,
  "solcInputHash": "4a347ac155f533f25dd9c0cd6469b28f",
  "bytecode": "0x60806040523480156200001157600080fd5b506200001c62000022565b62000082565b60006200003c600080516020620022d58339815191525490565b90506001600160a01b03811662000069576001600160a01b03600080516020620022d58339815191525550565b336001600160a01b038216146200007f57600080fd5b50565b61224380620000926000396000f3fe608060405234801561001057600080fd5b50600436106101365760003560e01c80635704545b116100b2578063a22cb46511610081578063b88d4fde11610066578063b88d4fde146102d0578063c87b56dd146102e3578063e985e9c5146102f657600080fd5b8063a22cb465146102aa578063b510391f146102bd57600080fd5b80635704545b146102385780636352211e1461024b57806370a082311461025e57806395d89b411461027157600080fd5b806318160ddd116101095780632c53bc64116100ee5780632c53bc641461020a5780632f745c591461021257806342842e0e1461022557600080fd5b806318160ddd146101e557806323b872dd146101f757600080fd5b806301ffc9a71461013b57806306fdde0314610163578063081812fc146101a5578063095ea7b3146101d0575b600080fd5b61014e61014936600461184d565b610332565b60405190151581526020015b60405180910390f35b60408051808201909152601181527f416c676f726974686d6963204d7573696300000000000000000000000000000060208201525b60405161015a91906118ba565b6101b86101b33660046118cd565b610417565b6040516001600160a01b03909116815260200161015a565b6101e36101de3660046118fd565b6104b8565b005b6000545b60405190815260200161015a565b6101e3610205366004611927565b6105b1565b6101e3610794565b6101e96102203660046118fd565b610813565b6101e3610233366004611927565b61083c565b610198610246366004611a06565b610857565b6101b86102593660046118cd565b610a44565b6101e961026c366004611a54565b610aac565b60408051808201909152600281527f414d0000000000000000000000000000000000000000000000000000000000006020820152610198565b6101e36102b8366004611a6f565b610b25565b6101e36102cb366004611aab565b610b34565b6101e36102de366004611af9565b610c22565b6101986102f13660046118cd565b610e67565b61014e610304366004611b61565b6001600160a01b03918216600090815260036020908152604080832093909416825291909152205460ff1690565b60007f01ffc9a7000000000000000000000000000000000000000000000000000000007fffffffff00000000000000000000000000000000000000000000000000000000831614806103c557507f80ac58cd000000000000000000000000000000000000000000000000000000007fffffffff000000000000000000000000000000000000000000000000000000008316145b8061041157507f780e9d63000000000000000000000000000000000000000000000000000000007fffffffff000000000000000000000000000000000000000000000000000000008316145b92915050565b600081815260016020526040812054600160ff1b808216146001600160a01b03821661048a5760405162461bcd60e51b815260206004820152601160248201527f4e4f4e4558495354454e545f544f4b454e00000000000000000000000000000060448201526064015b60405180910390fd5b80156104ae575050506000908152600460205260409020546001600160a01b031690565b5060009392505050565b60006104c382610e72565b90506001600160a01b03811661051b5760405162461bcd60e51b815260206004820152601160248201527f4e4f4e4558495354454e545f544f4b454e0000000000000000000000000000006044820152606401610481565b6001600160a01b03811633148061055557506001600160a01b038116600090815260036020908152604080832033845290915290205460ff165b6105a15760405162461bcd60e51b815260206004820152601560248201527f554e415554484f52495a45445f415050524f56414c00000000000000000000006044820152606401610481565b6105ac818484610ed7565b505050565b600081815260016020526040902054600160ff1b808216146001600160a01b03821661061f5760405162461bcd60e51b815260206004820152601160248201527f4e4f4e4558495354454e545f544f4b454e0000000000000000000000000000006044820152606401610481565b846001600160a01b0316826001600160a01b0316146106805760405162461bcd60e51b815260206004820152600960248201527f4e4f545f4f574e455200000000000000000000000000000000000000000000006044820152606401610481565b6001600160a01b0384166106d65760405162461bcd60e51b815260206004820152601260248201527f4e4f545f544f5f5a45524f4144445245535300000000000000000000000000006044820152606401610481565b336001600160a01b03861614610782576001600160a01b038516600090815260036020908152604080832033845290915290205460ff1680610736575080801561073657506000838152600460205260409020546001600160a01b031633145b6107825760405162461bcd60e51b815260206004820152601560248201527f554e415554484f52495a45445f5452414e5346455200000000000000000000006044820152606401610481565b61078d858585610fa5565b5050505050565b60006107be7fb53127684a568b3173ae13b9f8a6016e243e63b6e8ee1178d6a717850b5d61035490565b90506001600160a01b0381166107fb576001600160a01b037fb53127684a568b3173ae13b9f8a6016e243e63b6e8ee1178d6a717850b5d61035550565b336001600160a01b0382161461081057600080fd5b50565b6001600160a01b0382166000908152600260205260408120610835908361103a565b9392505050565b6105ac83838360405180602001604052806000815250610c22565b606060006040518060a001604052806079815260200161215560799139855190915060006001610888836020611baa565b61089490610100611ca1565b61089e9190611baa565b905060208701604484015b601f8411156108c95781518152601f1990930192602091820191016108a9565b90518151831683199190911617905282516000906020850182f090506001600160a01b03811661093b5760405162461bcd60e51b815260206004820152600c60248201527f4352454154455f4641494c5300000000000000000000000000000000000000006044820152606401610481565b600080826001600160a01b0316608089901b8a1760405160200161096191815260200190565b60408051601f198184030181529082905261097b91611cc9565b600060405180830381855afa9150503d80600081146109b6576040519150601f19603f3d011682016040523d82523d6000602084013e6109bb565b606091505b509150915081610a0d5760405162461bcd60e51b815260206004820152600a60248201527f43414c4c5f4641494c53000000000000000000000000000000000000000000006044820152606401610481565b610a1681611046565b604051602001610a269190611ce5565b60405160208183030381529060405296505050505050509392505050565b6000610a4f82610e72565b90506001600160a01b038116610aa75760405162461bcd60e51b815260206004820152601160248201527f4e4f4e4558495354414e545f544f4b454e0000000000000000000000000000006044820152606401610481565b919050565b60006001600160a01b038216610b045760405162461bcd60e51b815260206004820152601260248201527f5a45524f5f414444524553535f4f574e455200000000000000000000000000006044820152606401610481565b6001600160a01b038216600090815260026020526040902061041190611200565b610b3033838361120a565b5050565b60006040518060a001604052806079815260200161215560799139825190915060006001610b63836020611baa565b610b6f90610100611ca1565b610b799190611baa565b905060208401604484015b601f841115610ba45781518152601f199093019260209182019101610b84565b90518151831683199190911617905282516000906020850182f0905080600003610c105760405162461bcd60e51b815260206004820152600c60248201527f4352454154455f4641494c5300000000000000000000000000000000000000006044820152606401610481565b610c1a8187611295565b505050505050565b600082815260016020526040902054600160ff1b808216146001600160a01b038216610c905760405162461bcd60e51b815260206004820152601160248201527f4e4f4e4558495354454e545f544f4b454e0000000000000000000000000000006044820152606401610481565b856001600160a01b0316826001600160a01b031614610cf15760405162461bcd60e51b815260206004820152600960248201527f4e4f545f4f574e455200000000000000000000000000000000000000000000006044820152606401610481565b6001600160a01b038516610d475760405162461bcd60e51b815260206004820152601260248201527f4e4f545f544f5f5a45524f4144445245535300000000000000000000000000006044820152606401610481565b336001600160a01b03871614610df3576001600160a01b038616600090815260036020908152604080832033845290915290205460ff1680610da75750808015610da757506000848152600460205260409020546001600160a01b031633145b610df35760405162461bcd60e51b815260206004820152601560248201527f554e415554484f52495a45445f5452414e5346455200000000000000000000006044820152606401610481565b610dfe868686610fa5565b6001600160a01b0385163b15610c1a57610e1b33878787876113d4565b610c1a5760405162461bcd60e51b815260206004820152601860248201527f4552433732315f5452414e534645525f52454a454354454400000000000000006044820152606401610481565b60606104118261149c565b6000818152600160205260409020546001600160a01b038116610aa75760405162461bcd60e51b815260206004820152600960248201527f4e4f545f455849535400000000000000000000000000000000000000000000006044820152606401610481565b6001600160a01b038216610f045760008181526001602052604090206001600160a01b0384169055610f5f565b60008181526001602090815260408083206001600160a01b03878116600160ff1b17909155600490925290912080547fffffffffffffffffffffffff0000000000000000000000000000000000000000169184169190911790555b80826001600160a01b0316846001600160a01b03167f8c5be1e5ebec7d5bd14f71427d1e84f3dd0314c0f7b2291e5b200ac8c7c3b92560405160405180910390a4505050565b6001600160a01b0383166000908152600260205260409020610fc7908261155e565b506001600160a01b0382166000908152600260205260409020610fea908261156a565b506000818152600160205260408082206001600160a01b03808616918290559151849391928716917fddf252ad1be2c89b69c2b068fc378daa952ba7f163c4a11628f55a4df523b3ef91a4505050565b60006108358383611576565b6060815160000361106557505060408051602081019091526000815290565b60006040518060600160405280604081526020016121ce60409139905060006003845160026110949190611d76565b61109e9190611d9f565b6110a9906004611db3565b905060006110b8826020611d76565b67ffffffffffffffff8111156110d0576110d0611963565b6040519080825280601f01601f1916602001820160405280156110fa576020820181803683370190505b509050818152600183018586518101602084015b81831015611166576003830192508251603f8160121c168501518253600182019150603f81600c1c168501518253600182019150603f8160061c168501518253600182019150603f811685015182535060010161110e565b60038951066001811461118057600281146111ca576111f2565b7f3d3d0000000000000000000000000000000000000000000000000000000000007ffffffffffffffffffffffffffffffffffffffffffffffffffffffffffffffffe8301526111f2565b7f3d000000000000000000000000000000000000000000000000000000000000006000198301525b509398975050505050505050565b6000610411825490565b6001600160a01b0383811660008181526003602090815260408083209487168084529482529182902080547fffffffffffffffffffffffffffffffffffffffffffffffffffffffffffffff001686151590811790915591519182527f17307eab39ab6107e8899845ad3d59bd9653f200f220920489ca2b5937696c31910160405180910390a3505050565b6001600160a01b0381166112eb5760405162461bcd60e51b815260206004820152601260248201527f4e4f545f544f5f5a45524f4144445245535300000000000000000000000000006044820152606401610481565b60008281526001602052604090205480156113485760405162461bcd60e51b815260206004820152600e60248201527f414c52454144595f4d494e5445440000000000000000000000000000000000006044820152606401610481565b6001600160a01b038216600090815260026020526040902061136a908461156a565b5060008381526001602052604081206001600160a01b03841690558054908061139283611dd2565b909155505060405183906001600160a01b038416906000907fddf252ad1be2c89b69c2b068fc378daa952ba7f163c4a11628f55a4df523b3ef908290a4505050565b600080846001600160a01b031663150b7a02888887876040518563ffffffff1660e01b81526004016114099493929190611dec565b6020604051808303816000875af1158015611428573d6000803e3d6000fd5b505050506040513d601f19601f8201168201806040525081019061144c9190611e28565b7fffffffff00000000000000000000000000000000000000000000000000000000167f150b7a02000000000000000000000000000000000000000000000000000000001491505095945050505050565b60606000826001600160a01b03166040518060400160405280602081526020017201f403000000000000000000000000000000008152506040516114e09190611cc9565b600060405180830381855afa9150503d806000811461151b576040519150601f19603f3d011682016040523d82523d6000602084013e611520565b606091505b5091505061152d836115a0565b61153682611046565b604051602001611547929190611e45565b604051602081830303815290604052915050919050565b600061083583836116dd565b600061083583836117d0565b600082600001828154811061158d5761158d612114565b9060005260206000200154905092915050565b6060816000036115e357505060408051808201909152600181527f3000000000000000000000000000000000000000000000000000000000000000602082015290565b8160005b811561160d57806115f781611dd2565b91506116069050600a83611d9f565b91506115e7565b60008167ffffffffffffffff81111561162857611628611963565b6040519080825280601f01601f191660200182016040528015611652576020820181803683370190505b5090505b84156116d557611667600183611baa565b9150611674600a8661212a565b61167f906030611d76565b60f81b81838151811061169457611694612114565b60200101907effffffffffffffffffffffffffffffffffffffffffffffffffffffffffffff1916908160001a9053506116ce600a86611d9f565b9450611656565b949350505050565b600081815260018301602052604081205480156117c6576000611701600183611baa565b855490915060009061171590600190611baa565b905081811461177a57600086600001828154811061173557611735612114565b906000526020600020015490508087600001848154811061175857611758612114565b6000918252602080832090910192909255918252600188019052604090208390555b855486908061178b5761178b61213e565b600190038181906000526020600020016000905590558560010160008681526020019081526020016000206000905560019350505050610411565b6000915050610411565b600081815260018301602052604081205461181757508154600181810184556000848152602080822090930184905584548482528286019093526040902091909155610411565b506000610411565b7fffffffff000000000000000000000000000000000000000000000000000000008116811461081057600080fd5b60006020828403121561185f57600080fd5b81356108358161181f565b60005b8381101561188557818101518382015260200161186d565b50506000910152565b600081518084526118a681602086016020860161186a565b601f01601f19169290920160200192915050565b602081526000610835602083018461188e565b6000602082840312156118df57600080fd5b5035919050565b80356001600160a01b0381168114610aa757600080fd5b6000806040838503121561191057600080fd5b611919836118e6565b946020939093013593505050565b60008060006060848603121561193c57600080fd5b611945846118e6565b9250611953602085016118e6565b9150604084013590509250925092565b634e487b7160e01b600052604160045260246000fd5b600082601f83011261198a57600080fd5b813567ffffffffffffffff808211156119a5576119a5611963565b604051601f8301601f19908116603f011681019082821181831017156119cd576119cd611963565b816040528381528660208588010111156119e657600080fd5b836020870160208301376000602085830101528094505050505092915050565b600080600060608486031215611a1b57600080fd5b833567ffffffffffffffff811115611a3257600080fd5b611a3e86828701611979565b9660208601359650604090950135949350505050565b600060208284031215611a6657600080fd5b610835826118e6565b60008060408385031215611a8257600080fd5b611a8b836118e6565b915060208301358015158114611aa057600080fd5b809150509250929050565b60008060408385031215611abe57600080fd5b611ac7836118e6565b9150602083013567ffffffffffffffff811115611ae357600080fd5b611aef85828601611979565b9150509250929050565b60008060008060808587031215611b0f57600080fd5b611b18856118e6565b9350611b26602086016118e6565b925060408501359150606085013567ffffffffffffffff811115611b4957600080fd5b611b5587828801611979565b91505092959194509250565b60008060408385031215611b7457600080fd5b611b7d836118e6565b9150611b8b602084016118e6565b90509250929050565b634e487b7160e01b600052601160045260246000fd5b8181038181111561041157610411611b94565b600181815b80851115611bf8578160001904821115611bde57611bde611b94565b80851615611beb57918102915b93841c9390800290611bc2565b509250929050565b600082611c0f57506001610411565b81611c1c57506000610411565b8160018114611c325760028114611c3c57611c58565b6001915050610411565b60ff841115611c4d57611c4d611b94565b50506001821b610411565b5060208310610133831016604e8410600b8410161715611c7b575081810a610411565b611c858383611bbd565b8060001904821115611c9957611c99611b94565b029392505050565b60006108358383611c00565b60008151611cbf81856020860161186a565b9290920192915050565b60008251611cdb81846020870161186a565b9190910192915050565b7f646174613a617564696f2f7761763b6261736536342c556b6c4752674141414181527f425851565a465a6d31304942414141414142414145415142384141454166414160208201527f4142414167415a47463059514141000000000000000000000000000000000000604082015260008251611d6981604e85016020870161186a565b91909101604e0192915050565b8082018082111561041157610411611b94565b634e487b7160e01b600052601260045260246000fd5b600082611dae57611dae611d89565b500490565b6000816000190483118215151615611dcd57611dcd611b94565b500290565b60006000198203611de557611de5611b94565b5060010190565b60006001600160a01b03808716835280861660208401525083604083015260806060830152611e1e608083018461188e565b9695505050505050565b600060208284031215611e3a57600080fd5b81516108358161181f565b7f646174613a6170706c69636174696f6e2f6a736f6e2c7b226e616d65223a224181527f6c676f726974686d69632532304d75736963222c226465736372697074696f6e60208201527f223a224f6e636861696e253230416c676f726974686d69632532304d7573696360408201527f222c2265787465726e616c5f75726c223a22544f444f222c22696d616765223a60608201527f220000000000000000000000000000000000000000000000000000000000000060808201527f646174613a696d6167652f7376672b786d6c2c3c73766725323076696577426f60818201527f783d2730253230302532303332253230313627253230786d6c6e733d2768747460a18201527f703a2f2f7777772e77332e6f72672f323030302f737667273e3c74657874253260c18201527f30783d2735302527253230793d2735302527253230646f6d696e616e742d626160e18201527f73656c696e653d276d6964646c6527253230746578742d616e63686f723d276d6101018201527f6964646c65272532307374796c653d2766696c6c3a726762283231392c33392c6101218201527f313139293b666f6e742d73697a653a313270783b273e00000000000000000000610141820152600061201d610157830185611cad565b7f3c2f746578743e3c2f7376673e0000000000000000000000000000000000000081527f222c22616e696d6174696f6e5f75726c223a22646174613a617564696f2f7761600d8201527f763b6261736536342c556b6c47526741414141425851565a465a6d3130494241602d8201527f414141414241414541514238414145416641414142414167415a474630595141604d8201527f4100000000000000000000000000000000000000000000000000000000000000606d8201526120e5606e820185611cad565b7f227d000000000000000000000000000000000000000000000000000000000000815260020195945050505050565b634e487b7160e01b600052603260045260246000fd5b60008261213957612139611d89565b500690565b634e487b7160e01b600052603160045260246000fdfe606d600c600039606d6000f36000358060801b806000529060801c60205260006040525b5b5b5b5b5b5b5b5b5b5b5b5b5b5b5b5b5b5b5b5b5b5b5b5b5b5b5b5b5b5b5b5b60ff9016604051806080019091905360010180604052602051600051600101806000529110601757602051806060526020016060f34142434445464748494a4b4c4d4e4f505152535455565758595a6162636465666768696a6b6c6d6e6f707172737475767778797a303132333435363738392b2fa26469706673582212200465bcc0b33b8045d6fdbe3133d6cca29f021071d484f85b019c51203fb53ce664736f6c63430008100033b53127684a568b3173ae13b9f8a6016e243e63b6e8ee1178d6a717850b5d6103",
  "devdoc": {
    "kind": "dev",
    "methods": {
      "approve(address,uint256)": {
        "params": {
          "id": "The id of the token.",
          "operator": "The address receiving the approval."
        }
      },
      "balanceOf(address)": {
        "params": {
          "owner": "The address to look for."
        },
        "returns": {
          "balance": "The number of tokens owned by the address."
        }
      },
      "getApproved(uint256)": {
        "params": {
          "id": "The id of the token."
        },
        "returns": {
          "_0": "The address of the operator."
        }
      },
      "isApprovedForAll(address,address)": {
        "params": {
          "operator": "The address of the operator.",
          "owner": "The address of the owner."
        },
        "returns": {
          "isOperator": "The status of the approval."
        }
      },
      "ownerOf(uint256)": {
        "params": {
          "id": "The id of the token."
        },
        "returns": {
          "owner": "The address of the token owner."
        }
      },
      "safeTransferFrom(address,address,uint256)": {
        "params": {
          "from": "The send of the token.",
          "id": "The id of the token.",
          "to": "The recipient of the token."
        }
      },
      "safeTransferFrom(address,address,uint256,bytes)": {
        "params": {
          "data": "Additional data.",
          "from": "The sender of the token.",
          "id": "The id of the token.",
          "to": "The recipient of the token."
        }
      },
      "setApprovalForAll(address,bool)": {
        "params": {
          "approved": "The determination of the approval.",
          "operator": "The address receiving the approval."
        }
      },
      "supportsInterface(bytes4)": {
        "params": {
          "id": "The id of the interface."
        },
        "returns": {
          "_0": "Whether the interface is supported."
        }
      },
      "transferFrom(address,address,uint256)": {
        "params": {
          "from": "The sender of the token.",
          "id": "The id of the token.",
          "to": "The recipient of the token."
        }
      }
    },
    "version": 1
  },
  "userdoc": {
    "kind": "user",
    "methods": {
      "approve(address,uint256)": {
        "notice": "Approve an operator to spend tokens on the senders behalf."
      },
      "balanceOf(address)": {
        "notice": "Get the number of tokens owned by an address."
      },
      "getApproved(uint256)": {
        "notice": "Get the approved operator for a specific token."
      },
      "isApprovedForAll(address,address)": {
        "notice": "Check if the sender approved the operator."
      },
      "name()": {
        "notice": "A descriptive name for a collection of NFTs in this contract"
      },
      "ownerOf(uint256)": {
        "notice": "Get the owner of a token."
      },
      "safeTransferFrom(address,address,uint256)": {
        "notice": "Transfer a token between 2 addresses letting the receiver know of the transfer."
      },
      "safeTransferFrom(address,address,uint256,bytes)": {
        "notice": "Transfer a token between 2 addresses letting the receiver knows of the transfer."
      },
      "setApprovalForAll(address,bool)": {
        "notice": "Set the approval for an operator to manage all the tokens of the sender."
      },
      "supportsInterface(bytes4)": {
        "notice": "Check if the contract supports an interface. 0x01ffc9a7 is ERC165. 0x80ac58cd is ERC721 0x780e9d63 is for ERC721 enumerable"
      },
      "symbol()": {
        "notice": "An abbreviated name for NFTs in this contract"
      },
      "transferFrom(address,address,uint256)": {
        "notice": "Transfer a token between 2 addresses."
      }
    },
    "version": 1
  },
  "storageLayout": {
    "storage": [
      {
        "astId": 1738,
        "contract": "src/AlgorithmicMusic.sol:AlgorithmicMusic",
        "label": "_supply",
        "offset": 0,
        "slot": "0",
        "type": "t_uint256"
      },
      {
        "astId": 1742,
        "contract": "src/AlgorithmicMusic.sol:AlgorithmicMusic",
        "label": "_owners",
        "offset": 0,
        "slot": "1",
        "type": "t_mapping(t_uint256,t_uint256)"
      },
      {
        "astId": 1747,
        "contract": "src/AlgorithmicMusic.sol:AlgorithmicMusic",
        "label": "_holderTokens",
        "offset": 0,
        "slot": "2",
        "type": "t_mapping(t_address,t_struct(UintSet)1162_storage)"
      },
      {
        "astId": 1753,
        "contract": "src/AlgorithmicMusic.sol:AlgorithmicMusic",
        "label": "_operatorsForAll",
        "offset": 0,
        "slot": "3",
        "type": "t_mapping(t_address,t_mapping(t_address,t_bool))"
      },
      {
        "astId": 1757,
        "contract": "src/AlgorithmicMusic.sol:AlgorithmicMusic",
        "label": "_operators",
        "offset": 0,
        "slot": "4",
        "type": "t_mapping(t_uint256,t_address)"
      }
    ],
    "types": {
      "t_address": {
        "encoding": "inplace",
        "label": "address",
        "numberOfBytes": "20"
      },
      "t_array(t_bytes32)dyn_storage": {
        "base": "t_bytes32",
        "encoding": "dynamic_array",
        "label": "bytes32[]",
        "numberOfBytes": "32"
      },
      "t_bool": {
        "encoding": "inplace",
        "label": "bool",
        "numberOfBytes": "1"
      },
      "t_bytes32": {
        "encoding": "inplace",
        "label": "bytes32",
        "numberOfBytes": "32"
      },
      "t_mapping(t_address,t_bool)": {
        "encoding": "mapping",
        "key": "t_address",
        "label": "mapping(address => bool)",
        "numberOfBytes": "32",
        "value": "t_bool"
      },
      "t_mapping(t_address,t_mapping(t_address,t_bool))": {
        "encoding": "mapping",
        "key": "t_address",
        "label": "mapping(address => mapping(address => bool))",
        "numberOfBytes": "32",
        "value": "t_mapping(t_address,t_bool)"
      },
      "t_mapping(t_address,t_struct(UintSet)1162_storage)": {
        "encoding": "mapping",
        "key": "t_address",
        "label": "mapping(address => struct EnumerableSet.UintSet)",
        "numberOfBytes": "32",
        "value": "t_struct(UintSet)1162_storage"
      },
      "t_mapping(t_bytes32,t_uint256)": {
        "encoding": "mapping",
        "key": "t_bytes32",
        "label": "mapping(bytes32 => uint256)",
        "numberOfBytes": "32",
        "value": "t_uint256"
      },
      "t_mapping(t_uint256,t_address)": {
        "encoding": "mapping",
        "key": "t_uint256",
        "label": "mapping(uint256 => address)",
        "numberOfBytes": "32",
        "value": "t_address"
      },
      "t_mapping(t_uint256,t_uint256)": {
        "encoding": "mapping",
        "key": "t_uint256",
        "label": "mapping(uint256 => uint256)",
        "numberOfBytes": "32",
        "value": "t_uint256"
      },
      "t_struct(Set)704_storage": {
        "encoding": "inplace",
        "label": "struct EnumerableSet.Set",
        "members": [
          {
            "astId": 699,
            "contract": "src/AlgorithmicMusic.sol:AlgorithmicMusic",
            "label": "_values",
            "offset": 0,
            "slot": "0",
            "type": "t_array(t_bytes32)dyn_storage"
          },
          {
            "astId": 703,
            "contract": "src/AlgorithmicMusic.sol:AlgorithmicMusic",
            "label": "_indexes",
            "offset": 0,
            "slot": "1",
            "type": "t_mapping(t_bytes32,t_uint256)"
          }
        ],
        "numberOfBytes": "64"
      },
      "t_struct(UintSet)1162_storage": {
        "encoding": "inplace",
        "label": "struct EnumerableSet.UintSet",
        "members": [
          {
            "astId": 1161,
            "contract": "src/AlgorithmicMusic.sol:AlgorithmicMusic",
            "label": "_inner",
            "offset": 0,
            "slot": "0",
            "type": "t_struct(Set)704_storage"
          }
        ],
        "numberOfBytes": "64"
      },
      "t_uint256": {
        "encoding": "inplace",
        "label": "uint256",
        "numberOfBytes": "32"
      }
    }
  }
}