{
  "address": "0xa5F82B843dE7517e242D0C5168526d407C9A49Ca",
  "abi": [
    {
      "inputs": [],
      "stateMutability": "nonpayable",
      "type": "constructor"
    },
    {
      "anonymous": false,
      "inputs": [
        {
          "indexed": true,
          "internalType": "address",
          "name": "owner",
          "type": "address"
        },
        {
          "indexed": true,
          "internalType": "address",
          "name": "approved",
          "type": "address"
        },
        {
          "indexed": true,
          "internalType": "uint256",
          "name": "tokenId",
          "type": "uint256"
        }
      ],
      "name": "Approval",
      "type": "event"
    },
    {
      "anonymous": false,
      "inputs": [
        {
          "indexed": true,
          "internalType": "address",
          "name": "owner",
          "type": "address"
        },
        {
          "indexed": true,
          "internalType": "address",
          "name": "operator",
          "type": "address"
        },
        {
          "indexed": false,
          "internalType": "bool",
          "name": "approved",
          "type": "bool"
        }
      ],
      "name": "ApprovalForAll",
      "type": "event"
    },
    {
      "anonymous": false,
      "inputs": [
        {
          "indexed": true,
          "internalType": "address",
          "name": "from",
          "type": "address"
        },
        {
          "indexed": true,
          "internalType": "address",
          "name": "to",
          "type": "address"
        },
        {
          "indexed": true,
          "internalType": "uint256",
          "name": "tokenId",
          "type": "uint256"
        }
      ],
      "name": "Transfer",
      "type": "event"
    },
    {
      "inputs": [
        {
          "internalType": "address",
          "name": "operator",
          "type": "address"
        },
        {
          "internalType": "uint256",
          "name": "id",
          "type": "uint256"
        }
      ],
      "name": "approve",
      "outputs": [],
      "stateMutability": "nonpayable",
      "type": "function"
    },
    {
      "inputs": [
        {
          "internalType": "address",
          "name": "owner",
          "type": "address"
        }
      ],
      "name": "balanceOf",
      "outputs": [
        {
          "internalType": "uint256",
          "name": "balance",
          "type": "uint256"
        }
      ],
      "stateMutability": "view",
      "type": "function"
    },
    {
      "inputs": [
        {
          "internalType": "uint256",
          "name": "id",
          "type": "uint256"
        }
      ],
      "name": "getApproved",
      "outputs": [
        {
          "internalType": "address",
          "name": "",
          "type": "address"
        }
      ],
      "stateMutability": "view",
      "type": "function"
    },
    {
      "inputs": [
        {
          "internalType": "address",
          "name": "owner",
          "type": "address"
        },
        {
          "internalType": "address",
          "name": "operator",
          "type": "address"
        }
      ],
      "name": "isApprovedForAll",
      "outputs": [
        {
          "internalType": "bool",
          "name": "isOperator",
          "type": "bool"
        }
      ],
      "stateMutability": "view",
      "type": "function"
    },
    {
      "inputs": [
        {
          "internalType": "address",
          "name": "to",
          "type": "address"
        },
        {
          "internalType": "bytes",
          "name": "musicBytecode",
          "type": "bytes"
        }
      ],
      "name": "mint",
      "outputs": [],
      "stateMutability": "nonpayable",
      "type": "function"
    },
    {
      "inputs": [],
      "name": "name",
      "outputs": [
        {
          "internalType": "string",
          "name": "",
          "type": "string"
        }
      ],
      "stateMutability": "pure",
      "type": "function"
    },
    {
      "inputs": [
        {
          "internalType": "uint256",
          "name": "id",
          "type": "uint256"
        }
      ],
      "name": "ownerOf",
      "outputs": [
        {
          "internalType": "address",
          "name": "owner",
          "type": "address"
        }
      ],
      "stateMutability": "view",
      "type": "function"
    },
    {
      "inputs": [
        {
          "internalType": "bytes",
          "name": "musicBytecode",
          "type": "bytes"
        },
        {
          "internalType": "uint256",
          "name": "start",
          "type": "uint256"
        },
        {
          "internalType": "uint256",
          "name": "length",
          "type": "uint256"
        }
      ],
      "name": "play",
      "outputs": [
        {
          "internalType": "string",
          "name": "",
          "type": "string"
        }
      ],
      "stateMutability": "nonpayable",
      "type": "function"
    },
    {
      "inputs": [],
      "name": "postUpgrade",
      "outputs": [],
      "stateMutability": "nonpayable",
      "type": "function"
    },
    {
      "inputs": [
        {
          "internalType": "address",
          "name": "from",
          "type": "address"
        },
        {
          "internalType": "address",
          "name": "to",
          "type": "address"
        },
        {
          "internalType": "uint256",
          "name": "id",
          "type": "uint256"
        }
      ],
      "name": "safeTransferFrom",
      "outputs": [],
      "stateMutability": "nonpayable",
      "type": "function"
    },
    {
      "inputs": [
        {
          "internalType": "address",
          "name": "from",
          "type": "address"
        },
        {
          "internalType": "address",
          "name": "to",
          "type": "address"
        },
        {
          "internalType": "uint256",
          "name": "id",
          "type": "uint256"
        },
        {
          "internalType": "bytes",
          "name": "data",
          "type": "bytes"
        }
      ],
      "name": "safeTransferFrom",
      "outputs": [],
      "stateMutability": "nonpayable",
      "type": "function"
    },
    {
      "inputs": [
        {
          "internalType": "address",
          "name": "operator",
          "type": "address"
        },
        {
          "internalType": "bool",
          "name": "approved",
          "type": "bool"
        }
      ],
      "name": "setApprovalForAll",
      "outputs": [],
      "stateMutability": "nonpayable",
      "type": "function"
    },
    {
      "inputs": [
        {
          "internalType": "bytes4",
          "name": "id",
          "type": "bytes4"
        }
      ],
      "name": "supportsInterface",
      "outputs": [
        {
          "internalType": "bool",
          "name": "",
          "type": "bool"
        }
      ],
      "stateMutability": "pure",
      "type": "function"
    },
    {
      "inputs": [],
      "name": "symbol",
      "outputs": [
        {
          "internalType": "string",
          "name": "",
          "type": "string"
        }
      ],
      "stateMutability": "pure",
      "type": "function"
    },
    {
      "inputs": [
        {
          "internalType": "address",
          "name": "owner",
          "type": "address"
        },
        {
          "internalType": "uint256",
          "name": "index",
          "type": "uint256"
        }
      ],
      "name": "tokenOfOwnerByIndex",
      "outputs": [
        {
          "internalType": "uint256",
          "name": "",
          "type": "uint256"
        }
      ],
      "stateMutability": "view",
      "type": "function"
    },
    {
      "inputs": [
        {
          "internalType": "uint256",
          "name": "id",
          "type": "uint256"
        }
      ],
      "name": "tokenURI",
      "outputs": [
        {
          "internalType": "string",
          "name": "",
          "type": "string"
        }
      ],
      "stateMutability": "nonpayable",
      "type": "function"
    },
    {
      "inputs": [],
      "name": "totalSupply",
      "outputs": [
        {
          "internalType": "uint256",
          "name": "",
          "type": "uint256"
        }
      ],
      "stateMutability": "view",
      "type": "function"
    },
    {
      "inputs": [
        {
          "internalType": "address",
          "name": "from",
          "type": "address"
        },
        {
          "internalType": "address",
          "name": "to",
          "type": "address"
        },
        {
          "internalType": "uint256",
          "name": "id",
          "type": "uint256"
        }
      ],
      "name": "transferFrom",
      "outputs": [],
      "stateMutability": "nonpayable",
      "type": "function"
    }
  ],
  "transactionHash": "0x7c9228c1182a4daad40ec634fb6c5ff32a830b05dd25ad8cf32bf24cc50308bf",
  "args": [],
  "numDeployments": 1,
  "solcInputHash": "9a00ce2eae59100759162a86b9bf95cc",
  "bytecode": "0x60806040523480156200001157600080fd5b506200001c62000022565b62000082565b60006200003c600080516020620032c58339815191525490565b90506001600160a01b03811662000069576001600160a01b03600080516020620032c58339815191525550565b336001600160a01b038216146200007f57600080fd5b50565b61323380620000926000396000f3fe608060405234801561001057600080fd5b50600436106101365760003560e01c80635704545b116100b2578063a22cb46511610081578063b88d4fde11610066578063b88d4fde146102d0578063c87b56dd146102e3578063e985e9c5146102f657600080fd5b8063a22cb465146102aa578063b510391f146102bd57600080fd5b80635704545b146102385780636352211e1461024b57806370a082311461025e57806395d89b411461027157600080fd5b806318160ddd116101095780632c53bc64116100ee5780632c53bc641461020a5780632f745c591461021257806342842e0e1461022557600080fd5b806318160ddd146101e557806323b872dd146101f757600080fd5b806301ffc9a71461013b57806306fdde0314610163578063081812fc146101a5578063095ea7b3146101d0575b600080fd5b61014e610149366004611881565b610332565b60405190151581526020015b60405180910390f35b60408051808201909152601181527f416c676f726974686d6963204d7573696300000000000000000000000000000060208201525b60405161015a91906118ee565b6101b86101b3366004611901565b610417565b6040516001600160a01b03909116815260200161015a565b6101e36101de366004611931565b6104bf565b005b6000545b60405190815260200161015a565b6101e361020536600461195b565b6105b8565b6101e361079b565b6101e9610220366004611931565b61081a565b6101e361023336600461195b565b610843565b610198610246366004611a3a565b61085e565b6101b8610259366004611901565b610893565b6101e961026c366004611a88565b6108fb565b60408051808201909152600281527f414d0000000000000000000000000000000000000000000000000000000000006020820152610198565b6101e36102b8366004611aa3565b610974565b6101e36102cb366004611adf565b610983565b6101e36102de366004611b2d565b610a71565b6101986102f1366004611901565b610cb6565b61014e610304366004611b95565b6001600160a01b03918216600090815260036020908152604080832093909416825291909152205460ff1690565b60007f01ffc9a7000000000000000000000000000000000000000000000000000000007fffffffff00000000000000000000000000000000000000000000000000000000831614806103c557507f80ac58cd000000000000000000000000000000000000000000000000000000007fffffffff000000000000000000000000000000000000000000000000000000008316145b8061041157507f780e9d63000000000000000000000000000000000000000000000000000000007fffffffff000000000000000000000000000000000000000000000000000000008316145b92915050565b600081815260016020526040812054600160ff1b808216146001600160a01b03821661048a5760405162461bcd60e51b815260206004820152601160248201527f4e4f4e4558495354454e545f544f4b454e00000000000000000000000000000060448201526064015b60405180910390fd5b80156104ae575050506000908152600460205260409020546001600160a01b031690565b5060009392505050565b5050919050565b60006104ca82610cc1565b90506001600160a01b0381166105225760405162461bcd60e51b815260206004820152601160248201527f4e4f4e4558495354454e545f544f4b454e0000000000000000000000000000006044820152606401610481565b6001600160a01b03811633148061055c57506001600160a01b038116600090815260036020908152604080832033845290915290205460ff165b6105a85760405162461bcd60e51b815260206004820152601560248201527f554e415554484f52495a45445f415050524f56414c00000000000000000000006044820152606401610481565b6105b3818484610d26565b505050565b600081815260016020526040902054600160ff1b808216146001600160a01b0382166106265760405162461bcd60e51b815260206004820152601160248201527f4e4f4e4558495354454e545f544f4b454e0000000000000000000000000000006044820152606401610481565b846001600160a01b0316826001600160a01b0316146106875760405162461bcd60e51b815260206004820152600960248201527f4e4f545f4f574e455200000000000000000000000000000000000000000000006044820152606401610481565b6001600160a01b0384166106dd5760405162461bcd60e51b815260206004820152601260248201527f4e4f545f544f5f5a45524f4144445245535300000000000000000000000000006044820152606401610481565b336001600160a01b03861614610789576001600160a01b038516600090815260036020908152604080832033845290915290205460ff168061073d575080801561073d57506000838152600460205260409020546001600160a01b031633145b6107895760405162461bcd60e51b815260206004820152601560248201527f554e415554484f52495a45445f5452414e5346455200000000000000000000006044820152606401610481565b610794858585610df4565b5050505050565b60006107c57fb53127684a568b3173ae13b9f8a6016e243e63b6e8ee1178d6a717850b5d61035490565b90506001600160a01b038116610802576001600160a01b037fb53127684a568b3173ae13b9f8a6016e243e63b6e8ee1178d6a717850b5d61035550565b336001600160a01b0382161461081757600080fd5b50565b6001600160a01b038216600090815260026020526040812061083c9083610e89565b9392505050565b6105b383838360405180602001604052806000815250610a71565b606061086b848484610e95565b60405160200161087b9190611be4565b60405160208183030381529060405290509392505050565b600061089e82610cc1565b90506001600160a01b0381166108f65760405162461bcd60e51b815260206004820152601160248201527f4e4f4e4558495354414e545f544f4b454e0000000000000000000000000000006044820152606401610481565b919050565b60006001600160a01b0382166109535760405162461bcd60e51b815260206004820152601260248201527f5a45524f5f414444524553535f4f574e455200000000000000000000000000006044820152606401610481565b6001600160a01b038216600090815260026020526040902061041190611062565b61097f33838361106c565b5050565b60006040518060a0016040528060798152602001613145607991398251909150600060016109b2836020611c8b565b6109be90610100611d82565b6109c89190611c8b565b905060208401604484015b601f8411156109f35781518152601f1990930192602091820191016109d3565b90518151831683199190911617905282516000906020850182f0905080600003610a5f5760405162461bcd60e51b815260206004820152600c60248201527f4352454154455f4641494c5300000000000000000000000000000000000000006044820152606401610481565b610a6981876110f7565b505050505050565b600082815260016020526040902054600160ff1b808216146001600160a01b038216610adf5760405162461bcd60e51b815260206004820152601160248201527f4e4f4e4558495354454e545f544f4b454e0000000000000000000000000000006044820152606401610481565b856001600160a01b0316826001600160a01b031614610b405760405162461bcd60e51b815260206004820152600960248201527f4e4f545f4f574e455200000000000000000000000000000000000000000000006044820152606401610481565b6001600160a01b038516610b965760405162461bcd60e51b815260206004820152601260248201527f4e4f545f544f5f5a45524f4144445245535300000000000000000000000000006044820152606401610481565b336001600160a01b03871614610c42576001600160a01b038616600090815260036020908152604080832033845290915290205460ff1680610bf65750808015610bf657506000848152600460205260409020546001600160a01b031633145b610c425760405162461bcd60e51b815260206004820152601560248201527f554e415554484f52495a45445f5452414e5346455200000000000000000000006044820152606401610481565b610c4d868686610df4565b6001600160a01b0385163b15610a6957610c6a3387878787611236565b610a695760405162461bcd60e51b815260206004820152601860248201527f4552433732315f5452414e534645525f52454a454354454400000000000000006044820152606401610481565b6060610411826112fe565b6000818152600160205260409020546001600160a01b0381166108f65760405162461bcd60e51b815260206004820152600960248201527f4e4f545f455849535400000000000000000000000000000000000000000000006044820152606401610481565b6001600160a01b038216610d535760008181526001602052604090206001600160a01b0384169055610dae565b60008181526001602090815260408083206001600160a01b03878116600160ff1b17909155600490925290912080547fffffffffffffffffffffffff0000000000000000000000000000000000000000169184169190911790555b80826001600160a01b0316846001600160a01b03167f8c5be1e5ebec7d5bd14f71427d1e84f3dd0314c0f7b2291e5b200ac8c7c3b92560405160405180910390a4505050565b6001600160a01b0383166000908152600260205260409020610e169082611515565b506001600160a01b0382166000908152600260205260409020610e399082611521565b506000818152600160205260408082206001600160a01b03808616918290559151849391928716917fddf252ad1be2c89b69c2b068fc378daa952ba7f163c4a11628f55a4df523b3ef91a4505050565b600061083c838361152d565b606060006040518060a001604052806079815260200161314560799139855190915060006001610ec6836020611c8b565b610ed290610100611d82565b610edc9190611c8b565b905060208701604484015b601f841115610f075781518152601f199093019260209182019101610ee7565b90518151831683199190911617905282516000906020850182f090506001600160a01b038116610f795760405162461bcd60e51b815260206004820152600c60248201527f4352454154455f4641494c5300000000000000000000000000000000000000006044820152606401610481565b600080826001600160a01b0316608089901b8a17604051602001610f9f91815260200190565b60408051601f1981840301815290829052610fb991611d8e565b600060405180830381855afa9150503d8060008114610ff4576040519150601f19603f3d011682016040523d82523d6000602084013e610ff9565b606091505b50915091508161104b5760405162461bcd60e51b815260206004820152600a60248201527f43414c4c5f4641494c53000000000000000000000000000000000000000000006044820152606401610481565b61105481611557565b9a9950505050505050505050565b6000610411825490565b6001600160a01b0383811660008181526003602090815260408083209487168084529482529182902080547fffffffffffffffffffffffffffffffffffffffffffffffffffffffffffffff001686151590811790915591519182527f17307eab39ab6107e8899845ad3d59bd9653f200f220920489ca2b5937696c31910160405180910390a3505050565b6001600160a01b03811661114d5760405162461bcd60e51b815260206004820152601260248201527f4e4f545f544f5f5a45524f4144445245535300000000000000000000000000006044820152606401610481565b60008281526001602052604090205480156111aa5760405162461bcd60e51b815260206004820152600e60248201527f414c52454144595f4d494e5445440000000000000000000000000000000000006044820152606401610481565b6001600160a01b03821660009081526002602052604090206111cc9084611521565b5060008381526001602052604081206001600160a01b0384169055805490806111f483611daa565b909155505060405183906001600160a01b038416906000907fddf252ad1be2c89b69c2b068fc378daa952ba7f163c4a11628f55a4df523b3ef908290a4505050565b600080846001600160a01b031663150b7a02888887876040518563ffffffff1660e01b815260040161126b9493929190611dc4565b6020604051808303816000875af115801561128a573d6000803e3d6000fd5b505050506040513d601f19601f820116820180604052508101906112ae9190611e00565b7fffffffff00000000000000000000000000000000000000000000000000000000167f150b7a02000000000000000000000000000000000000000000000000000000001491505095945050505050565b60606000826001600160a01b0316604051806040016040528060208152602001720186a0000000000000000000000000000000008152506040516113429190611d8e565b600060405180830381855afa9150503d806000811461137d576040519150601f19603f3d011682016040523d82523d6000602084013e611382565b606091505b5091505061138f81611557565b60405160200161139f9190611e1d565b604051602081830303815290604052915060005b60408110156104b8576000846113ca6002846130c4565b602081106113da576113da6130e6565b1a90507f3031323334353637383961626364656630303030303030303030303030303030600482901c60ff1660208110611416576114166130e6565b1a60f81b8461142684602e6130fc565b6114329061052a61311b565b81518110611442576114426130e6565b60200101907effffffffffffffffffffffffffffffffffffffffffffffffffffffffffffff1916908160001a9053507f3031323334353637383961626364656630303030303030303030303030303030600f8216602081106114a6576114a66130e6565b1a60f81b846114b684602e6130fc565b6114c29061055861311b565b815181106114d2576114d26130e6565b60200101907effffffffffffffffffffffffffffffffffffffffffffffffffffffffffffff1916908160001a90535061150e905060028261311b565b90506113b3565b600061083c8383611711565b600061083c8383611804565b6000826000018281548110611544576115446130e6565b9060005260206000200154905092915050565b6060815160000361157657505060408051602081019091526000815290565b60006040518060600160405280604081526020016131be60409139905060006003845160026115a5919061311b565b6115af91906130c4565b6115ba9060046130fc565b905060006115c982602061311b565b67ffffffffffffffff8111156115e1576115e1611997565b6040519080825280601f01601f19166020018201604052801561160b576020820181803683370190505b509050818152600183018586518101602084015b81831015611677576003830192508251603f8160121c168501518253600182019150603f81600c1c168501518253600182019150603f8160061c168501518253600182019150603f811685015182535060010161161f565b60038951066001811461169157600281146116db57611703565b7f3d3d0000000000000000000000000000000000000000000000000000000000007ffffffffffffffffffffffffffffffffffffffffffffffffffffffffffffffffe830152611703565b7f3d000000000000000000000000000000000000000000000000000000000000006000198301525b509398975050505050505050565b600081815260018301602052604081205480156117fa576000611735600183611c8b565b855490915060009061174990600190611c8b565b90508181146117ae576000866000018281548110611769576117696130e6565b906000526020600020015490508087600001848154811061178c5761178c6130e6565b6000918252602080832090910192909255918252600188019052604090208390555b85548690806117bf576117bf61312e565b600190038181906000526020600020016000905590558560010160008681526020019081526020016000206000905560019350505050610411565b6000915050610411565b600081815260018301602052604081205461184b57508154600181810184556000848152602080822090930184905584548482528286019093526040902091909155610411565b506000610411565b7fffffffff000000000000000000000000000000000000000000000000000000008116811461081757600080fd5b60006020828403121561189357600080fd5b813561083c81611853565b60005b838110156118b95781810151838201526020016118a1565b50506000910152565b600081518084526118da81602086016020860161189e565b601f01601f19169290920160200192915050565b60208152600061083c60208301846118c2565b60006020828403121561191357600080fd5b5035919050565b80356001600160a01b03811681146108f657600080fd5b6000806040838503121561194457600080fd5b61194d8361191a565b946020939093013593505050565b60008060006060848603121561197057600080fd5b6119798461191a565b92506119876020850161191a565b9150604084013590509250925092565b634e487b7160e01b600052604160045260246000fd5b600082601f8301126119be57600080fd5b813567ffffffffffffffff808211156119d9576119d9611997565b604051601f8301601f19908116603f01168101908282118183101715611a0157611a01611997565b81604052838152866020858801011115611a1a57600080fd5b836020870160208301376000602085830101528094505050505092915050565b600080600060608486031215611a4f57600080fd5b833567ffffffffffffffff811115611a6657600080fd5b611a72868287016119ad565b9660208601359650604090950135949350505050565b600060208284031215611a9a57600080fd5b61083c8261191a565b60008060408385031215611ab657600080fd5b611abf8361191a565b915060208301358015158114611ad457600080fd5b809150509250929050565b60008060408385031215611af257600080fd5b611afb8361191a565b9150602083013567ffffffffffffffff811115611b1757600080fd5b611b23858286016119ad565b9150509250929050565b60008060008060808587031215611b4357600080fd5b611b4c8561191a565b9350611b5a6020860161191a565b925060408501359150606085013567ffffffffffffffff811115611b7d57600080fd5b611b89878288016119ad565b91505092959194509250565b60008060408385031215611ba857600080fd5b611bb18361191a565b9150611bbf6020840161191a565b90509250929050565b60008151611bda81856020860161189e565b9290920192915050565b7f646174613a617564696f2f7761763b6261736536342c556b6c4752674141414181527f425851565a465a6d31304942414141414142414145415142384141454166414160208201527f4142414167415a47463059514141000000000000000000000000000000000000604082015260008251611c6881604e85016020870161189e565b91909101604e0192915050565b634e487b7160e01b600052601160045260246000fd5b8181038181111561041157610411611c75565b600181815b80851115611cd9578160001904821115611cbf57611cbf611c75565b80851615611ccc57918102915b93841c9390800290611ca3565b509250929050565b600082611cf057506001610411565b81611cfd57506000610411565b8160018114611d135760028114611d1d57611d39565b6001915050610411565b60ff841115611d2e57611d2e611c75565b50506001821b610411565b5060208310610133831016604e8410600b8410161715611d5c575081810a610411565b611d668383611c9e565b8060001904821115611d7a57611d7a611c75565b029392505050565b600061083c8383611ce1565b60008251611da081846020870161189e565b9190910192915050565b60006000198203611dbd57611dbd611c75565b5060010190565b60006001600160a01b03808716835280861660208401525083604083015260806060830152611df660808301846118c2565b9695505050505050565b600060208284031215611e1257600080fd5b815161083c81611853565b7f646174613a6170706c69636174696f6e2f6a736f6e2c7b226e616d65223a224181527f6c676f726974686d69632532304d75736963222c226465736372697074696f6e60208201527f223a224f6e636861696e253230416c676f726974686d69632532304d7573696360408201527f222c2265787465726e616c5f75726c223a22544f444f222c22696d616765223a60608201527f220000000000000000000000000000000000000000000000000000000000000060808201527f646174613a696d6167652f7376672b786d6c3b636861727365743d757466382c60818201527f3c7376672532353230786d6c6e733d27687474703a2f2f7777772e77332e6f7260a18201527f672f323030302f73766727253235323073686170652d72656e646572696e673d60c18201527f276372697370456467657327253235323077696474683d27353132272532353260e18201527f306865696768743d27353132273e3c646566733e3c70617468253235323069646101018201527f3d275a272532353230643d274d302c3068317631682d317a272f3e3c757365256101218201527f3235323069643d2730272532353230687265663d2725323532335a27253235326101418201527f3066696c6c3d272532353233303030633234272f3e3c757365253235323069646101618201527f3d2731272532353230687265663d2725323532335a27253235323066696c6c3d6101818201527f272532353233396530393632272f3e3c757365253235323069643d27322725326101a18201527f353230687265663d2725323532335a27253235323066696c6c3d2725323532336101c18201527f666631633361272f3e3c757365253235323069643d27332725323532306872656101e18201527f663d2725323532335a27253235323066696c6c3d2725323532336263306232326102018201527f272f3e3c757365253235323069643d2734272532353230687265663d272532356102218201527f32335a27253235323066696c6c3d272532353233666639393163272f3e3c75736102418201527f65253235323069643d2735272532353230687265663d2725323532335a2725326102618201527f35323066696c6c3d272532353233633136613030272f3e3c75736525323532306102818201527f69643d2736272532353230687265663d2725323532335a27253235323066696c6102a18201527f6c3d272532353233666665383163272f3e3c757365253235323069643d2737276102c18201527f2532353230687265663d2725323532335a27253235323066696c6c3d272532356102e18201527f3233396538623030272f3e3c757365253235323069643d2738272532353230686103018201527f7265663d2725323532335a27253235323066696c6c3d272532353233323365346103218201527f3233272f3e3c757365253235323069643d2739272532353230687265663d27256103418201527f323532335a27253235323066696c6c3d272532353233303039393030272f3e3c6103618201527f757365253235323069643d2761272532353230687265663d2725323532335a276103818201527f253235323066696c6c3d272532353233316164646530272f3e3c7573652532356103a18201527f323069643d2762272532353230687265663d2725323532335a272532353230666103c18201527f696c6c3d272532353233303038373839272f3e3c757365253235323069643d276103e18201527f63272532353230687265663d2725323532335a27253235323066696c6c3d27256104018201527f32353233336439376666272f3e3c757365253235323069643d276427253235326104218201527f30687265663d2725323532335a27253235323066696c6c3d27253235323333656104418201527f35636130272f3e3c757365253235323069643d2765272532353230687265663d6104618201527f2725323532335a27253235323066696c6c3d272532353233383331626639272f6104818201527f3e3c757365253235323069643d2766272532353230687265663d2725323532336104a18201527f5a27253235323066696c6c3d272532353233353232393832272f3e3c2f6465666104c18201527f733e3c6725323532307472616e73666f726d3d277363616c6528363429273e3c6104e18201527f7573652532353230783d273030272532353230793d273030272532353230687261050182015260007f65663d27253235323330272f3e3c7573652532353230783d2730312725323532806105218401527f30793d273030272532353230687265663d27253235323330272f3e3c757365256105418401527f32353230783d273032272532353230793d273030272532353230687265663d276105618401527f253235323330272f3e3c7573652532353230783d273033272532353230793d27806105818501527f3030272532353230687265663d27253235323330272f3e3c75736525323532306105a18501527f783d273034272532353230793d273030272532353230687265663d27253235326105c18501527f3330272f3e3c7573652532353230783d273035272532353230793d27303027256105e18501527f32353230687265663d27253235323330272f3e3c7573652532353230783d2730806106018601527f36272532353230793d273030272532353230687265663d27253235323330272f6106218601527f3e3c7573652532353230783d273037272532353230793d2730302725323532306106418601527f687265663d27253235323330272f3e3c7573652532353230783d273030272532806106618701527f353230793d273031272532353230687265663d27253235323330272f3e3c75736106818701527f652532353230783d273031272532353230793d273031272532353230687265666106a18701527f3d27253235323330272f3e3c7573652532353230783d27303227253235323079806106c18801527f3d273031272532353230687265663d27253235323330272f3e3c7573652532356106e18801527f3230783d273033272532353230793d273031272532353230687265663d2725326107018801527f35323330272f3e3c7573652532353230783d273034272532353230793d2730316107218801527f272532353230687265663d27253235323330272f3e3c7573652532353230783d806107418901527f273035272532353230793d273031272532353230687265663d272532353233306107618901527f272f3e3c7573652532353230783d273036272532353230793d273031272532356107818901527f3230687265663d27253235323330272f3e3c7573652532353230783d27303727806107a18a01527f2532353230793d273031272532353230687265663d27253235323330272f3e3c6107c18a01527f7573652532353230783d273030272532353230793d27303227253235323068726107e18a0152866108018a01527f30793d273032272532353230687265663d27253235323330272f3e3c757365256108218a01527f32353230783d273032272532353230793d273032272532353230687265663d276108418a0152856108618a01527f3032272532353230687265663d27253235323330272f3e3c75736525323532306108818a01527f783d273034272532353230793d273032272532353230687265663d27253235326108a18a01527f3330272f3e3c7573652532353230783d273035272532353230793d27303227256108c18a0152846108e18a01527f36272532353230793d273032272532353230687265663d27253235323330272f6109018a01527f3e3c7573652532353230783d273037272532353230793d2730322725323532306109218a0152836109418a01527f353230793d273033272532353230687265663d27253235323330272f3e3c75736109618a01527f652532353230783d273031272532353230793d273033272532353230687265666109818a0152826109a18a01527f3d273033272532353230687265663d27253235323330272f3e3c7573652532356109c18a01527f3230783d273033272532353230793d273033272532353230687265663d2725326109e18a01527f35323330272f3e3c7573652532353230783d273034272532353230793d273033610a018a015281610a218a01527f273035272532353230793d273033272532353230687265663d27253235323330610a418a01527f272f3e3c7573652532353230783d273036272532353230793d27303327253235610a618a015280610a818a01527f2532353230793d273033272532353230687265663d27253235323330272f3e3c610aa18a01527f7573652532353230783d273030272532353230793d2730342725323532306872610ac18a015286610ae18a01527f30793d273034272532353230687265663d27253235323330272f3e3c75736525610b018a01527f32353230783d273032272532353230793d273034272532353230687265663d27610b218a015285610b418a01527f3034272532353230687265663d27253235323330272f3e3c7573652532353230610b618a01527f783d273034272532353230793d273034272532353230687265663d2725323532610b818a01527f3330272f3e3c7573652532353230783d273035272532353230793d2730342725610ba18a015284610bc18a01527f36272532353230793d273034272532353230687265663d27253235323330272f610be18a01527f3e3c7573652532353230783d273037272532353230793d273034272532353230610c018a015283610c218a01527f353230793d273035272532353230687265663d27253235323330272f3e3c7573610c418a01527f652532353230783d273031272532353230793d27303527253235323068726566610c618a015282610c818a01527f3d273035272532353230687265663d27253235323330272f3e3c757365253235610ca18a01527f3230783d273033272532353230793d273035272532353230687265663d272532610cc18a01527f35323330272f3e3c7573652532353230783d273034272532353230793d273035610ce18a015281610d018a01527f273035272532353230793d273035272532353230687265663d27253235323330610d218a01527f272f3e3c7573652532353230783d273036272532353230793d27303527253235610d418a015280610d618a01527f2532353230793d273035272532353230687265663d27253235323330272f3e3c610d818a01527f7573652532353230783d273030272532353230793d2730362725323532306872610da18a015286610dc18a01527f30793d273036272532353230687265663d27253235323330272f3e3c75736525610de18a01527f32353230783d273032272532353230793d273036272532353230687265663d27610e018a015285610e218a01527f3036272532353230687265663d27253235323330272f3e3c7573652532353230610e418a01527f783d273034272532353230793d273036272532353230687265663d2725323532610e618a01527f3330272f3e3c7573652532353230783d273035272532353230793d2730362725610e818a015284610ea18a01527f36272532353230793d273036272532353230687265663d27253235323330272f610ec18a01527f3e3c7573652532353230783d273037272532353230793d273036272532353230610ee18a015283610f018a01527f353230793d273037272532353230687265663d27253235323330272f3e3c7573610f218a01527f652532353230783d273031272532353230793d27303727253235323068726566610f418a015282610f618a01527f3d273037272532353230687265663d27253235323330272f3e3c757365253235610f818a01527f3230783d273033272532353230793d273037272532353230687265663d272532610fa18a01527f35323330272f3e3c7573652532353230783d273034272532353230793d273037610fc18a015281610fe18a01527f273035272532353230793d273037272532353230687265663d272532353233306110018a01527f272f3e3c7573652532353230783d273036272532353230793d273037272532356110218a0152806110418a0152505050505050507f2532353230793d273037272532353230687265663d27253235323330272f3e3c6110618301527f2f673e3c2f7376673e000000000000000000000000000000000000000000000061108183015261309761309161108a84017f222c22616e696d6174696f6e5f75726c223a22646174613a617564696f2f776181527f763b6261736536342c556b6c47526741414141425851565a465a6d313049424160208201527f414141414241414541514238414145416641414142414167415a47463059514160408201527f4100000000000000000000000000000000000000000000000000000000000000606082015260610190565b84611bc8565b7f227d00000000000000000000000000000000000000000000000000000000000081526002019392505050565b6000826130e157634e487b7160e01b600052601260045260246000fd5b500490565b634e487b7160e01b600052603260045260246000fd5b600081600019048311821515161561311657613116611c75565b500290565b8082018082111561041157610411611c75565b634e487b7160e01b600052603160045260246000fdfe606d600c600039606d6000f36000358060801b806000529060801c60205260006040525b5b5b5b5b5b5b5b5b5b5b5b5b5b5b5b5b5b5b5b5b5b5b5b5b5b5b5b5b5b5b5b5b60ff9016604051806080019091905360010180604052602051600051600101806000529110601757602051806060526020016060f34142434445464748494a4b4c4d4e4f505152535455565758595a6162636465666768696a6b6c6d6e6f707172737475767778797a303132333435363738392b2fa2646970667358221220e751c2eb2c16a078b48082378d9bb52d121f3acf7e2fc0f9c451643d775b203c64736f6c63430008100033b53127684a568b3173ae13b9f8a6016e243e63b6e8ee1178d6a717850b5d6103",
  "devdoc": {
    "kind": "dev",
    "methods": {
      "approve(address,uint256)": {
        "params": {
          "id": "The id of the token.",
          "operator": "The address receiving the approval."
        }
      },
      "balanceOf(address)": {
        "params": {
          "owner": "The address to look for."
        },
        "returns": {
          "balance": "The number of tokens owned by the address."
        }
      },
      "getApproved(uint256)": {
        "params": {
          "id": "The id of the token."
        },
        "returns": {
          "_0": "The address of the operator."
        }
      },
      "isApprovedForAll(address,address)": {
        "params": {
          "operator": "The address of the operator.",
          "owner": "The address of the owner."
        },
        "returns": {
          "isOperator": "The status of the approval."
        }
      },
      "ownerOf(uint256)": {
        "params": {
          "id": "The id of the token."
        },
        "returns": {
          "owner": "The address of the token owner."
        }
      },
      "safeTransferFrom(address,address,uint256)": {
        "params": {
          "from": "The send of the token.",
          "id": "The id of the token.",
          "to": "The recipient of the token."
        }
      },
      "safeTransferFrom(address,address,uint256,bytes)": {
        "params": {
          "data": "Additional data.",
          "from": "The sender of the token.",
          "id": "The id of the token.",
          "to": "The recipient of the token."
        }
      },
      "setApprovalForAll(address,bool)": {
        "params": {
          "approved": "The determination of the approval.",
          "operator": "The address receiving the approval."
        }
      },
      "supportsInterface(bytes4)": {
        "params": {
          "id": "The id of the interface."
        },
        "returns": {
          "_0": "Whether the interface is supported."
        }
      },
      "transferFrom(address,address,uint256)": {
        "params": {
          "from": "The sender of the token.",
          "id": "The id of the token.",
          "to": "The recipient of the token."
        }
      }
    },
    "version": 1
  },
  "userdoc": {
    "kind": "user",
    "methods": {
      "approve(address,uint256)": {
        "notice": "Approve an operator to spend tokens on the senders behalf."
      },
      "balanceOf(address)": {
        "notice": "Get the number of tokens owned by an address."
      },
      "getApproved(uint256)": {
        "notice": "Get the approved operator for a specific token."
      },
      "isApprovedForAll(address,address)": {
        "notice": "Check if the sender approved the operator."
      },
      "name()": {
        "notice": "A descriptive name for a collection of NFTs in this contract"
      },
      "ownerOf(uint256)": {
        "notice": "Get the owner of a token."
      },
      "safeTransferFrom(address,address,uint256)": {
        "notice": "Transfer a token between 2 addresses letting the receiver know of the transfer."
      },
      "safeTransferFrom(address,address,uint256,bytes)": {
        "notice": "Transfer a token between 2 addresses letting the receiver knows of the transfer."
      },
      "setApprovalForAll(address,bool)": {
        "notice": "Set the approval for an operator to manage all the tokens of the sender."
      },
      "supportsInterface(bytes4)": {
        "notice": "Check if the contract supports an interface. 0x01ffc9a7 is ERC165. 0x80ac58cd is ERC721 0x780e9d63 is for ERC721 enumerable"
      },
      "symbol()": {
        "notice": "An abbreviated name for NFTs in this contract"
      },
      "transferFrom(address,address,uint256)": {
        "notice": "Transfer a token between 2 addresses."
      }
    },
    "version": 1
  },
  "storageLayout": {
    "storage": [
      {
        "astId": 1794,
        "contract": "src/AlgorithmicMusic.sol:AlgorithmicMusic",
        "label": "_supply",
        "offset": 0,
        "slot": "0",
        "type": "t_uint256"
      },
      {
        "astId": 1798,
        "contract": "src/AlgorithmicMusic.sol:AlgorithmicMusic",
        "label": "_owners",
        "offset": 0,
        "slot": "1",
        "type": "t_mapping(t_uint256,t_uint256)"
      },
      {
        "astId": 1803,
        "contract": "src/AlgorithmicMusic.sol:AlgorithmicMusic",
        "label": "_holderTokens",
        "offset": 0,
        "slot": "2",
        "type": "t_mapping(t_address,t_struct(UintSet)1135_storage)"
      },
      {
        "astId": 1809,
        "contract": "src/AlgorithmicMusic.sol:AlgorithmicMusic",
        "label": "_operatorsForAll",
        "offset": 0,
        "slot": "3",
        "type": "t_mapping(t_address,t_mapping(t_address,t_bool))"
      },
      {
        "astId": 1813,
        "contract": "src/AlgorithmicMusic.sol:AlgorithmicMusic",
        "label": "_operators",
        "offset": 0,
        "slot": "4",
        "type": "t_mapping(t_uint256,t_address)"
      }
    ],
    "types": {
      "t_address": {
        "encoding": "inplace",
        "label": "address",
        "numberOfBytes": "20"
      },
      "t_array(t_bytes32)dyn_storage": {
        "base": "t_bytes32",
        "encoding": "dynamic_array",
        "label": "bytes32[]",
        "numberOfBytes": "32"
      },
      "t_bool": {
        "encoding": "inplace",
        "label": "bool",
        "numberOfBytes": "1"
      },
      "t_bytes32": {
        "encoding": "inplace",
        "label": "bytes32",
        "numberOfBytes": "32"
      },
      "t_mapping(t_address,t_bool)": {
        "encoding": "mapping",
        "key": "t_address",
        "label": "mapping(address => bool)",
        "numberOfBytes": "32",
        "value": "t_bool"
      },
      "t_mapping(t_address,t_mapping(t_address,t_bool))": {
        "encoding": "mapping",
        "key": "t_address",
        "label": "mapping(address => mapping(address => bool))",
        "numberOfBytes": "32",
        "value": "t_mapping(t_address,t_bool)"
      },
      "t_mapping(t_address,t_struct(UintSet)1135_storage)": {
        "encoding": "mapping",
        "key": "t_address",
        "label": "mapping(address => struct EnumerableSet.UintSet)",
        "numberOfBytes": "32",
        "value": "t_struct(UintSet)1135_storage"
      },
      "t_mapping(t_bytes32,t_uint256)": {
        "encoding": "mapping",
        "key": "t_bytes32",
        "label": "mapping(bytes32 => uint256)",
        "numberOfBytes": "32",
        "value": "t_uint256"
      },
      "t_mapping(t_uint256,t_address)": {
        "encoding": "mapping",
        "key": "t_uint256",
        "label": "mapping(uint256 => address)",
        "numberOfBytes": "32",
        "value": "t_address"
      },
      "t_mapping(t_uint256,t_uint256)": {
        "encoding": "mapping",
        "key": "t_uint256",
        "label": "mapping(uint256 => uint256)",
        "numberOfBytes": "32",
        "value": "t_uint256"
      },
      "t_struct(Set)677_storage": {
        "encoding": "inplace",
        "label": "struct EnumerableSet.Set",
        "members": [
          {
            "astId": 672,
            "contract": "src/AlgorithmicMusic.sol:AlgorithmicMusic",
            "label": "_values",
            "offset": 0,
            "slot": "0",
            "type": "t_array(t_bytes32)dyn_storage"
          },
          {
            "astId": 676,
            "contract": "src/AlgorithmicMusic.sol:AlgorithmicMusic",
            "label": "_indexes",
            "offset": 0,
            "slot": "1",
            "type": "t_mapping(t_bytes32,t_uint256)"
          }
        ],
        "numberOfBytes": "64"
      },
      "t_struct(UintSet)1135_storage": {
        "encoding": "inplace",
        "label": "struct EnumerableSet.UintSet",
        "members": [
          {
            "astId": 1134,
            "contract": "src/AlgorithmicMusic.sol:AlgorithmicMusic",
            "label": "_inner",
            "offset": 0,
            "slot": "0",
            "type": "t_struct(Set)677_storage"
          }
        ],
        "numberOfBytes": "64"
      },
      "t_uint256": {
        "encoding": "inplace",
        "label": "uint256",
        "numberOfBytes": "32"
      }
    }
  }
}