{
  "address": "0x285B6B2F8800537b8a8d209c582d1896699A6219",
  "abi": [
    {
      "inputs": [
        {
          "internalType": "address",
          "name": "initialGuardian",
          "type": "address"
        },
        {
          "internalType": "address",
          "name": "initialMinterAdmin",
          "type": "address"
        },
        {
          "internalType": "address",
          "name": "initialRoyaltyReceiver",
          "type": "address"
        },
        {
          "internalType": "uint96",
          "name": "imitialRoyaltyPer10Thousands",
          "type": "uint96"
        },
        {
          "internalType": "address",
          "name": "initialRoyaltyAdmin",
          "type": "address"
        }
      ],
      "stateMutability": "nonpayable",
      "type": "constructor"
    },
    {
      "anonymous": false,
      "inputs": [
        {
          "indexed": true,
          "internalType": "address",
          "name": "owner",
          "type": "address"
        },
        {
          "indexed": true,
          "internalType": "address",
          "name": "approved",
          "type": "address"
        },
        {
          "indexed": true,
          "internalType": "uint256",
          "name": "tokenId",
          "type": "uint256"
        }
      ],
      "name": "Approval",
      "type": "event"
    },
    {
      "anonymous": false,
      "inputs": [
        {
          "indexed": true,
          "internalType": "address",
          "name": "owner",
          "type": "address"
        },
        {
          "indexed": true,
          "internalType": "address",
          "name": "operator",
          "type": "address"
        },
        {
          "indexed": false,
          "internalType": "bool",
          "name": "approved",
          "type": "bool"
        }
      ],
      "name": "ApprovalForAll",
      "type": "event"
    },
    {
      "anonymous": false,
      "inputs": [
        {
          "indexed": false,
          "internalType": "address",
          "name": "newGuardian",
          "type": "address"
        }
      ],
      "name": "GuardianSet",
      "type": "event"
    },
    {
      "anonymous": false,
      "inputs": [
        {
          "indexed": false,
          "internalType": "address",
          "name": "newMinterAdmin",
          "type": "address"
        }
      ],
      "name": "MinterAdminSet",
      "type": "event"
    },
    {
      "anonymous": false,
      "inputs": [
        {
          "indexed": false,
          "internalType": "address",
          "name": "newMinter",
          "type": "address"
        }
      ],
      "name": "MinterSet",
      "type": "event"
    },
    {
      "anonymous": false,
      "inputs": [
        {
          "indexed": false,
          "internalType": "address",
          "name": "newRoyaltyAdmin",
          "type": "address"
        }
      ],
      "name": "RoyaltyAdminSet",
      "type": "event"
    },
    {
      "anonymous": false,
      "inputs": [
        {
          "indexed": false,
          "internalType": "address",
          "name": "receiver",
          "type": "address"
        },
        {
          "indexed": false,
          "internalType": "uint256",
          "name": "royaltyPer10Thousands",
          "type": "uint256"
        }
      ],
      "name": "RoyaltySet",
      "type": "event"
    },
    {
      "anonymous": false,
      "inputs": [
        {
          "indexed": true,
          "internalType": "address",
          "name": "from",
          "type": "address"
        },
        {
          "indexed": true,
          "internalType": "address",
          "name": "to",
          "type": "address"
        },
        {
          "indexed": true,
          "internalType": "uint256",
          "name": "tokenId",
          "type": "uint256"
        }
      ],
      "name": "Transfer",
      "type": "event"
    },
    {
      "inputs": [],
      "name": "DOMAIN_SEPARATOR",
      "outputs": [
        {
          "internalType": "bytes32",
          "name": "",
          "type": "bytes32"
        }
      ],
      "stateMutability": "view",
      "type": "function"
    },
    {
      "inputs": [],
      "name": "PERMIT_FOR_ALL_TYPEHASH",
      "outputs": [
        {
          "internalType": "bytes32",
          "name": "",
          "type": "bytes32"
        }
      ],
      "stateMutability": "view",
      "type": "function"
    },
    {
      "inputs": [],
      "name": "PERMIT_TYPEHASH",
      "outputs": [
        {
          "internalType": "bytes32",
          "name": "",
          "type": "bytes32"
        }
      ],
      "stateMutability": "view",
      "type": "function"
    },
    {
      "inputs": [
        {
          "internalType": "address",
          "name": "operator",
          "type": "address"
        },
        {
          "internalType": "uint256",
          "name": "id",
          "type": "uint256"
        }
      ],
      "name": "approve",
      "outputs": [],
      "stateMutability": "nonpayable",
      "type": "function"
    },
    {
      "inputs": [
        {
          "internalType": "address",
          "name": "owner",
          "type": "address"
        }
      ],
      "name": "balanceOf",
      "outputs": [
        {
          "internalType": "uint256",
          "name": "balance",
          "type": "uint256"
        }
      ],
      "stateMutability": "view",
      "type": "function"
    },
    {
      "inputs": [],
      "name": "eip712Domain",
      "outputs": [
        {
          "internalType": "bytes1",
          "name": "",
          "type": "bytes1"
        },
        {
          "internalType": "string",
          "name": "",
          "type": "string"
        },
        {
          "internalType": "string",
          "name": "",
          "type": "string"
        },
        {
          "internalType": "uint256",
          "name": "",
          "type": "uint256"
        },
        {
          "internalType": "address",
          "name": "",
          "type": "address"
        },
        {
          "internalType": "bytes32",
          "name": "",
          "type": "bytes32"
        },
        {
          "internalType": "uint256[]",
          "name": "",
          "type": "uint256[]"
        }
      ],
      "stateMutability": "view",
      "type": "function"
    },
    {
      "inputs": [
        {
          "internalType": "uint256",
          "name": "id",
          "type": "uint256"
        }
      ],
      "name": "getApproved",
      "outputs": [
        {
          "internalType": "address",
          "name": "",
          "type": "address"
        }
      ],
      "stateMutability": "view",
      "type": "function"
    },
    {
      "inputs": [],
      "name": "guardian",
      "outputs": [
        {
          "internalType": "address",
          "name": "g",
          "type": "address"
        }
      ],
      "stateMutability": "view",
      "type": "function"
    },
    {
      "inputs": [
        {
          "internalType": "address",
          "name": "owner",
          "type": "address"
        },
        {
          "internalType": "address",
          "name": "operator",
          "type": "address"
        }
      ],
      "name": "isApprovedForAll",
      "outputs": [
        {
          "internalType": "bool",
          "name": "isOperator",
          "type": "bool"
        }
      ],
      "stateMutability": "view",
      "type": "function"
    },
    {
      "inputs": [
        {
          "internalType": "address",
          "name": "to",
          "type": "address"
        },
        {
          "internalType": "bytes",
          "name": "musicBytecode",
          "type": "bytes"
        }
      ],
      "name": "mint",
      "outputs": [],
      "stateMutability": "nonpayable",
      "type": "function"
    },
    {
      "inputs": [],
      "name": "minter",
      "outputs": [
        {
          "internalType": "address",
          "name": "",
          "type": "address"
        }
      ],
      "stateMutability": "view",
      "type": "function"
    },
    {
      "inputs": [],
      "name": "minterAdmin",
      "outputs": [
        {
          "internalType": "address",
          "name": "",
          "type": "address"
        }
      ],
      "stateMutability": "view",
      "type": "function"
    },
    {
      "inputs": [
        {
          "internalType": "bytes[]",
          "name": "data",
          "type": "bytes[]"
        }
      ],
      "name": "multicall",
      "outputs": [
        {
          "internalType": "bytes[]",
          "name": "results",
          "type": "bytes[]"
        }
      ],
      "stateMutability": "payable",
      "type": "function"
    },
    {
      "inputs": [],
      "name": "name",
      "outputs": [
        {
          "internalType": "string",
          "name": "",
          "type": "string"
        }
      ],
      "stateMutability": "pure",
      "type": "function"
    },
    {
      "inputs": [
        {
          "internalType": "uint256",
          "name": "id",
          "type": "uint256"
        }
      ],
      "name": "nonces",
      "outputs": [
        {
          "internalType": "uint256",
          "name": "nonce",
          "type": "uint256"
        }
      ],
      "stateMutability": "view",
      "type": "function"
    },
    {
      "inputs": [
        {
          "internalType": "address",
          "name": "account",
          "type": "address"
        }
      ],
      "name": "nonces",
      "outputs": [
        {
          "internalType": "uint256",
          "name": "nonce",
          "type": "uint256"
        }
      ],
      "stateMutability": "view",
      "type": "function"
    },
    {
      "inputs": [
        {
          "internalType": "uint256[]",
          "name": "ids",
          "type": "uint256[]"
        }
      ],
      "name": "ownerAndLastTransferBlockNumberList",
      "outputs": [
        {
          "components": [
            {
              "internalType": "address",
              "name": "owner",
              "type": "address"
            },
            {
              "internalType": "uint256",
              "name": "lastTransferBlockNumber",
              "type": "uint256"
            }
          ],
          "internalType": "struct ERC721.OwnerData[]",
          "name": "ownersData",
          "type": "tuple[]"
        }
      ],
      "stateMutability": "view",
      "type": "function"
    },
    {
      "inputs": [
        {
          "internalType": "uint256",
          "name": "id",
          "type": "uint256"
        }
      ],
      "name": "ownerOf",
      "outputs": [
        {
          "internalType": "address",
          "name": "owner",
          "type": "address"
        }
      ],
      "stateMutability": "view",
      "type": "function"
    },
    {
      "inputs": [
        {
          "internalType": "address",
          "name": "spender",
          "type": "address"
        },
        {
          "internalType": "uint256",
          "name": "tokenId",
          "type": "uint256"
        },
        {
          "internalType": "uint256",
          "name": "deadline",
          "type": "uint256"
        },
        {
          "internalType": "bytes",
          "name": "sig",
          "type": "bytes"
        }
      ],
      "name": "permit",
      "outputs": [],
      "stateMutability": "nonpayable",
      "type": "function"
    },
    {
      "inputs": [
        {
          "internalType": "address",
          "name": "signer",
          "type": "address"
        },
        {
          "internalType": "address",
          "name": "spender",
          "type": "address"
        },
        {
          "internalType": "uint256",
          "name": "deadline",
          "type": "uint256"
        },
        {
          "internalType": "bytes",
          "name": "sig",
          "type": "bytes"
        }
      ],
      "name": "permitForAll",
      "outputs": [],
      "stateMutability": "nonpayable",
      "type": "function"
    },
    {
      "inputs": [
        {
          "internalType": "bytes",
          "name": "musicBytecode",
          "type": "bytes"
        },
        {
          "internalType": "uint256",
          "name": "start",
          "type": "uint256"
        },
        {
          "internalType": "uint256",
          "name": "length",
          "type": "uint256"
        }
      ],
      "name": "play",
      "outputs": [
        {
          "internalType": "string",
          "name": "",
          "type": "string"
        }
      ],
      "stateMutability": "nonpayable",
      "type": "function"
    },
    {
      "inputs": [],
      "name": "royaltyAdmin",
      "outputs": [
        {
          "internalType": "address",
          "name": "",
          "type": "address"
        }
      ],
      "stateMutability": "view",
      "type": "function"
    },
    {
      "inputs": [
        {
          "internalType": "uint256",
          "name": "",
          "type": "uint256"
        },
        {
          "internalType": "uint256",
          "name": "salePrice",
          "type": "uint256"
        }
      ],
      "name": "royaltyInfo",
      "outputs": [
        {
          "internalType": "address",
          "name": "receiver",
          "type": "address"
        },
        {
          "internalType": "uint256",
          "name": "royaltyAmount",
          "type": "uint256"
        }
      ],
      "stateMutability": "view",
      "type": "function"
    },
    {
      "inputs": [
        {
          "internalType": "address",
          "name": "from",
          "type": "address"
        },
        {
          "internalType": "address",
          "name": "to",
          "type": "address"
        },
        {
          "internalType": "uint256",
          "name": "id",
          "type": "uint256"
        }
      ],
      "name": "safeTransferFrom",
      "outputs": [],
      "stateMutability": "nonpayable",
      "type": "function"
    },
    {
      "inputs": [
        {
          "internalType": "address",
          "name": "from",
          "type": "address"
        },
        {
          "internalType": "address",
          "name": "to",
          "type": "address"
        },
        {
          "internalType": "uint256",
          "name": "id",
          "type": "uint256"
        },
        {
          "internalType": "bytes",
          "name": "data",
          "type": "bytes"
        }
      ],
      "name": "safeTransferFrom",
      "outputs": [],
      "stateMutability": "nonpayable",
      "type": "function"
    },
    {
      "inputs": [
        {
          "internalType": "address",
          "name": "operator",
          "type": "address"
        },
        {
          "internalType": "bool",
          "name": "approved",
          "type": "bool"
        }
      ],
      "name": "setApprovalForAll",
      "outputs": [],
      "stateMutability": "nonpayable",
      "type": "function"
    },
    {
      "inputs": [
        {
          "internalType": "address",
          "name": "newGuardian",
          "type": "address"
        }
      ],
      "name": "setGuardian",
      "outputs": [],
      "stateMutability": "nonpayable",
      "type": "function"
    },
    {
      "inputs": [
        {
          "internalType": "address",
          "name": "newMinter",
          "type": "address"
        }
      ],
      "name": "setMinter",
      "outputs": [],
      "stateMutability": "nonpayable",
      "type": "function"
    },
    {
      "inputs": [
        {
          "internalType": "address",
          "name": "newMinterAdmin",
          "type": "address"
        }
      ],
      "name": "setMinterAdmin",
      "outputs": [],
      "stateMutability": "nonpayable",
      "type": "function"
    },
    {
      "inputs": [
        {
          "internalType": "address",
          "name": "newRoyaltyAdmin",
          "type": "address"
        }
      ],
      "name": "setRoyaltyAdmin",
      "outputs": [],
      "stateMutability": "nonpayable",
      "type": "function"
    },
    {
      "inputs": [
        {
          "internalType": "address",
          "name": "newReceiver",
          "type": "address"
        },
        {
          "internalType": "uint96",
          "name": "royaltyPer10Thousands",
          "type": "uint96"
        }
      ],
      "name": "setRoyaltyParameters",
      "outputs": [],
      "stateMutability": "nonpayable",
      "type": "function"
    },
    {
      "inputs": [
        {
          "internalType": "bytes4",
          "name": "id",
          "type": "bytes4"
        }
      ],
      "name": "supportsInterface",
      "outputs": [
        {
          "internalType": "bool",
          "name": "",
          "type": "bool"
        }
      ],
      "stateMutability": "view",
      "type": "function"
    },
    {
      "inputs": [],
      "name": "symbol",
      "outputs": [
        {
          "internalType": "string",
          "name": "",
          "type": "string"
        }
      ],
      "stateMutability": "pure",
      "type": "function"
    },
    {
      "inputs": [
        {
          "internalType": "uint256",
          "name": "id",
          "type": "uint256"
        }
      ],
      "name": "tokenNonces",
      "outputs": [
        {
          "internalType": "uint256",
          "name": "nonce",
          "type": "uint256"
        }
      ],
      "stateMutability": "view",
      "type": "function"
    },
    {
      "inputs": [
        {
          "internalType": "uint256",
          "name": "id",
          "type": "uint256"
        }
      ],
      "name": "tokenURI",
      "outputs": [
        {
          "internalType": "string",
          "name": "",
          "type": "string"
        }
      ],
      "stateMutability": "view",
      "type": "function"
    },
    {
      "inputs": [
        {
          "internalType": "address",
          "name": "from",
          "type": "address"
        },
        {
          "internalType": "address",
          "name": "to",
          "type": "address"
        },
        {
          "internalType": "uint256",
          "name": "id",
          "type": "uint256"
        }
      ],
      "name": "transferFrom",
      "outputs": [],
      "stateMutability": "nonpayable",
      "type": "function"
    }
  ],
  "transactionHash": "0xc7e8c5efad5f848eaf8ec38829fdd0cfee72b288a5726fd4b88fe2a1866f9ad4",
  "args": [
    "0x9a3b0D0B08fb71F1a5E0F248Ad3a42C341f7837c",
    "0xE53cd71271AcAdbeb0f64d9c8C62bBdDc8cA9e66",
    "0x9a3b0D0B08fb71F1a5E0F248Ad3a42C341f7837c",
    50,
    "0xE53cd71271AcAdbeb0f64d9c8C62bBdDc8cA9e66"
  ],
  "numDeployments": 1,
  "solcInputHash": "3f5024fc722410516bde35e2c13ebbe4",
  "bytecode": "0x60c06040523480156200001157600080fd5b50604051620056c8380380620056c88339810160408190526200003491620002a9565b466080819052839083908390879089906200004f81620001f3565b60a052506001600160a01b03811615620000c4577f8fbcb4375b910093bcf636b6b2f26b26eda2a29ef5a8ee7de44b5743c3bf9a278190556040516001600160a01b03821681527fe6c09ffe4572dc9ceaa5ddde4ae41befa655d6fdfe8052077af0970f700e942e9060200160405180910390a15b506001600160a01b038116156200012757600580546001600160a01b0319166001600160a01b0383169081179091556040519081527fb8e0165b6664b7af8f9563c66e3d6b987c2d06fe192539d7123a0777b41a7c899060200160405180910390a15b506001600160a01b038116156200018a57600880546001600160a01b0319166001600160a01b0383169081179091556040519081527fb17416b845258d996b82b66c3c9166088ec5edf592b35fcce47c62a73d61ef419060200160405180910390a15b6001600160a01b038316600160a01b6001600160601b03841690810282176007556040805192835260208301919091527fb744dc8fdcd17f69ad99fdabe0fe0ed8fea41193727ed2123d997550eaae918f910160405180910390a1505050505050505062000327565b60007f8cad95687ba82c2ce50e74f7b754645e5117c3a5bec8151c0726d5857980a8666200024560408051808201909152601181527054686520426c656570204d616368696e6560781b602082015290565b80516020918201206040805192830193909352918101919091526060810183905230608082015260a001604051602081830303815290604052805190602001209050919050565b80516001600160a01b0381168114620002a457600080fd5b919050565b600080600080600060a08688031215620002c257600080fd5b620002cd866200028c565b9450620002dd602087016200028c565b9350620002ed604087016200028c565b60608701519093506001600160601b03811681146200030b57600080fd5b91506200031b608087016200028c565b90509295509295909350565b60805160a05161537b6200034d6000396000611cc701526000611c92015261537b6000f3fe60806040526004361061024f5760003560e01c80637ba9638b11610138578063ab84ee6f116100b0578063b88d4fde1161007f578063e985e9c511610064578063e985e9c514610774578063f3945282146107bd578063fca3b5aa146107ea57600080fd5b8063b88d4fde14610734578063c87b56dd1461075457600080fd5b8063ab84ee6f146106b4578063ac9650d8146106d4578063adc5fcc2146106f4578063b510391f1461071457600080fd5b80638a0dac4a1161010757806399235f39116100ec57806399235f3914610654578063a22cb46514610674578063a754d48f1461069457600080fd5b80638a0dac4a146105ee57806395d89b411461060e57600080fd5b80637ba9638b146105505780637ecebe001461057057806384b0196e146105a6578063894e851f146105ce57600080fd5b806330adf81f116101cb5780635704545b1161019a5780636352211e1161017f5780636352211e146104f057806370a0823114610510578063745a41bc1461053057600080fd5b80635704545b1461049c578063585956d6146104bc57600080fd5b806330adf81f146103ff5780633644e5151461043357806342842e0e14610448578063452a93201461046857600080fd5b8063095ea7b31161022257806323b872dd1161020757806323b872dd1461038057806324d42fe7146103a05780632a55205a146103c057600080fd5b8063095ea7b314610330578063141a468c1461035257600080fd5b806301ffc9a71461025457806306fdde031461028957806307546172146102d8578063081812fc14610310575b600080fd5b34801561026057600080fd5b5061027461026f366004612cde565b61080a565b60405190151581526020015b60405180910390f35b34801561029557600080fd5b5060408051808201909152601181527f54686520426c656570204d616368696e6500000000000000000000000000000060208201525b6040516102809190612d4b565b3480156102e457600080fd5b506006546102f8906001600160a01b031681565b6040516001600160a01b039091168152602001610280565b34801561031c57600080fd5b506102f861032b366004612d5e565b61081b565b34801561033c57600080fd5b5061035061034b366004612d8e565b6108b0565b005b34801561035e57600080fd5b5061037261036d366004612d5e565b6109b3565b604051908152602001610280565b34801561038c57600080fd5b5061035061039b366004612db8565b610a25565b3480156103ac57600080fd5b506103506103bb366004612df4565b610c55565b3480156103cc57600080fd5b506103e06103db366004612e3c565b610dc3565b604080516001600160a01b039093168352602083019190915201610280565b34801561040b57600080fd5b506103727f49ecf333e5b8c95c40fdafc95c1ad136e8914a8fb55e9dc8bb01eaa83a2df9ad81565b34801561043f57600080fd5b50610372610e1b565b34801561045457600080fd5b50610350610463366004612db8565b610e2a565b34801561047457600080fd5b507f8fbcb4375b910093bcf636b6b2f26b26eda2a29ef5a8ee7de44b5743c3bf9a27546102f8565b3480156104a857600080fd5b506102cb6104b7366004612f23565b610e4a565b3480156104c857600080fd5b506103727f29795620f29ed5790c945e3f419a1b3e2381aa07751ccffe5b81231639d74cd581565b3480156104fc57600080fd5b506102f861050b366004612d5e565b610f0d565b34801561051c57600080fd5b5061037261052b366004612f71565b610f6b565b34801561053c57600080fd5b5061035061054b366004612f8c565b610fdf565b34801561055c57600080fd5b5061035061056b366004612f71565b6110bc565b34801561057c57600080fd5b5061037261058b366004612f71565b6001600160a01b031660009081526004602052604090205490565b3480156105b257600080fd5b506105bb61118f565b6040516102809796959493929190612fed565b3480156105da57600080fd5b506008546102f8906001600160a01b031681565b3480156105fa57600080fd5b50610350610609366004612f71565b611207565b34801561061a57600080fd5b5060408051808201909152600381527f45564d000000000000000000000000000000000000000000000000000000000060208201526102cb565b34801561066057600080fd5b5061035061066f366004612f71565b6112e8565b34801561068057600080fd5b5061035061068f36600461309f565b6113b3565b3480156106a057600080fd5b506005546102f8906001600160a01b031681565b3480156106c057600080fd5b506103506106cf3660046130d0565b6113be565b6106e76106e2366004613165565b611454565b60405161028091906131a7565b34801561070057600080fd5b5061037261070f366004612d5e565b6115ac565b34801561072057600080fd5b5061035061072f366004613227565b6115b7565b34801561074057600080fd5b5061035061074f3660046130d0565b6116bb565b34801561076057600080fd5b506102cb61076f366004612d5e565b6118e5565b34801561078057600080fd5b5061027461078f366004613275565b6001600160a01b03918216600090815260026020908152604080832093909416825291909152205460ff1690565b3480156107c957600080fd5b506107dd6107d8366004613165565b6118f0565b604051610280919061329f565b3480156107f657600080fd5b50610350610805366004612f71565b611a09565b600061081582611ac4565b92915050565b600081815260208190526040812054600160ff1b808216146001600160a01b0382166108825760405162461bcd60e51b81526020600482015260116024820152702727a722ac24a9aa22a72a2faa27a5a2a760791b60448201526064015b60405180910390fd5b80156108a6575050506000908152600360205260409020546001600160a01b031690565b5060009392505050565b6000818152602081905260409020546affffffffffffffffffffff60a082901c166001600160a01b03821661091b5760405162461bcd60e51b81526020600482015260116024820152702727a722ac24a9aa22a72a2faa27a5a2a760791b6044820152606401610879565b336001600160a01b038316148061095557506001600160a01b038216600090815260026020908152604080832033845290915290205460ff165b6109a15760405162461bcd60e51b815260206004820152601560248201527f554e415554484f52495a45445f415050524f56414c00000000000000000000006044820152606401610879565b6109ad82828686611b1d565b50505050565b6000818152602081905260408120546affffffffffffffffffffff60a082901c166001600160a01b038216610a1e5760405162461bcd60e51b81526020600482015260116024820152702727a722ac24a9aa22a72a2faa27a5a2a760791b6044820152606401610879565b9392505050565b600081815260208190526040902054600160ff1b808216146001600160a01b038216610a875760405162461bcd60e51b81526020600482015260116024820152702727a722ac24a9aa22a72a2faa27a5a2a760791b6044820152606401610879565b846001600160a01b0316826001600160a01b031614610ae85760405162461bcd60e51b815260206004820152600960248201527f4e4f545f4f574e455200000000000000000000000000000000000000000000006044820152606401610879565b6001600160a01b038416610b3e5760405162461bcd60e51b815260206004820152601260248201527f4e4f545f544f5f5a45524f4144445245535300000000000000000000000000006044820152606401610879565b306001600160a01b03851603610b965760405162461bcd60e51b815260206004820152600b60248201527f4e4f545f544f5f544849530000000000000000000000000000000000000000006044820152606401610879565b336001600160a01b03861614610c4357808015610bc957506000838152600360205260409020546001600160a01b031633145b80610bf757506001600160a01b038516600090815260026020908152604080832033845290915290205460ff165b610c435760405162461bcd60e51b815260206004820152601560248201527f554e415554484f52495a45445f5452414e5346455200000000000000000000006044820152606401610879565b610c4e858585611bee565b5050505050565b6008546001600160a01b03163314610ca05760405162461bcd60e51b815260206004820152600e60248201526d1393d517d055551213d49256915160921b6044820152606401610879565b6032816bffffffffffffffffffffffff161115610cff5760405162461bcd60e51b815260206004820152601060248201527f524f59414c54595f544f4f5f48494748000000000000000000000000000000006044820152606401610879565b6007546001600160a01b038381169116141580610d4757506007546bffffffffffffffffffffffff828116740100000000000000000000000000000000000000009092041614155b15610dbf576001600160a01b038216740100000000000000000000000000000000000000006bffffffffffffffffffffffff831690810282176007556040805192835260208301919091527fb744dc8fdcd17f69ad99fdabe0fe0ed8fea41193727ed2123d997550eaae918f91015b60405180910390a15b5050565b6007546001600160a01b0381169060009061271090610e08907401000000000000000000000000000000000000000090046bffffffffffffffffffffffff168561330d565b610e12919061332c565b90509250929050565b6000610e25611c8d565b905090565b610e45838383604051806020016040528060008152506116bb565b505050565b606060006040518060600160405280602c81526020016152ae602c913990506024830160ff8116602483015360ff8160081c16602583015360ff8160101c1660268301535060ff8316604882015360ff8360081c16604982015360ff8360101c16604a820153610ee481610ebf878787611ced565b604051602001610ed092919061336a565b604051602081830303815290604052611eb0565b604051602001610ef49190613399565b6040516020818303038152906040529150509392505050565b6000818152602081905260409020546001600160a01b038116610f665760405162461bcd60e51b81526020600482015260116024820152702727a722ac24a9aa22a72a2faa27a5a2a760791b6044820152606401610879565b919050565b60006001600160a01b038216610fc35760405162461bcd60e51b815260206004820152601260248201527f5a45524f5f414444524553535f4f574e455200000000000000000000000000006044820152606401610879565b506001600160a01b031660009081526001602052604090205490565b4282101561102f5760405162461bcd60e51b815260206004820152601760248201527f5045524d49545f444541444c494e455f455850495245440000000000000000006044820152606401610879565b6000838152602081905260409020546affffffffffffffffffffff60a082901c166001600160a01b03821661109a5760405162461bcd60e51b81526020600482015260116024820152702727a722ac24a9aa22a72a2faa27a5a2a760791b6044820152606401610879565b6110a882878787858861206a565b6110b482828888611b1d565b505050505050565b6008546001600160a01b03163314806110da57506110da3382612197565b6111175760405162461bcd60e51b815260206004820152600e60248201526d1393d517d055551213d49256915160921b6044820152606401610879565b6008546001600160a01b0382811691161461118c576008805473ffffffffffffffffffffffffffffffffffffffff19166001600160a01b0383169081179091556040519081527fb17416b845258d996b82b66c3c9166088ec5edf592b35fcce47c62a73d61ef41906020015b60405180910390a15b50565b60006060808280808346600d6111d560408051808201909152601181527f54686520426c656570204d616368696e65000000000000000000000000000000602082015290565b6040805160008082528183019092526020810182815260f89490941b9c929b5092995092975030965091945092509050565b7f8fbcb4375b910093bcf636b6b2f26b26eda2a29ef5a8ee7de44b5743c3bf9a2754336001600160a01b038216146112725760405162461bcd60e51b815260206004820152600e60248201526d1393d517d055551213d49256915160921b6044820152606401610879565b816001600160a01b0316816001600160a01b031614610dbf577f8fbcb4375b910093bcf636b6b2f26b26eda2a29ef5a8ee7de44b5743c3bf9a278290556040516001600160a01b03831681527fe6c09ffe4572dc9ceaa5ddde4ae41befa655d6fdfe8052077af0970f700e942e90602001610db6565b6005546001600160a01b031633148061130657506113063382612197565b6113435760405162461bcd60e51b815260206004820152600e60248201526d1393d517d055551213d49256915160921b6044820152606401610879565b6005546001600160a01b0382811691161461118c576005805473ffffffffffffffffffffffffffffffffffffffff19166001600160a01b0383169081179091556040519081527fb8e0165b6664b7af8f9563c66e3d6b987c2d06fe192539d7123a0777b41a7c8990602001611183565b610dbf338383612200565b4282101561140e5760405162461bcd60e51b815260206004820152601760248201527f5045524d49545f444541444c494e455f455850495245440000000000000000006044820152606401610879565b6001600160a01b038416600090815260046020526040812080546114489287928792879290919061143e836133de565b919050558561228b565b6109ad84846001612200565b60608167ffffffffffffffff81111561146f5761146f612e5e565b6040519080825280602002602001820160405280156114a257816020015b606081526020019060019003908161148d5790505b50905060005b828110156115a557600080308686858181106114c6576114c66133f8565b90506020028101906114d8919061340e565b6040516114e6929190613473565b600060405180830381855af49150503d8060008114611521576040519150601f19603f3d011682016040523d82523d6000602084013e611526565b606091505b5091509150816115725760448151101561153f57600080fd5b600481019050808060200190518101906115599190613483565b60405162461bcd60e51b81526004016108799190612d4b565b80848481518110611585576115856133f8565b60200260200101819052505050808061159d906133de565b9150506114a8565b5092915050565b6000610815826109b3565b60006040518060a0016040528060798152602001615235607991398251909150600060016115e68360206134fa565b6115f2906101006135f1565b6115fc91906134fa565b905060208401604484015b601f8411156116275781518152601f199093019260209182019101611607565b90518151831683199190911617905282516000906020850182f09050806000036116935760405162461bcd60e51b815260206004820152600c60248201527f4352454154455f4641494c5300000000000000000000000000000000000000006044820152606401610879565b61169d81876123a8565b60209485015160009182526009909552604090209390935550505050565b600082815260208190526040902054600160ff1b808216146001600160a01b03821661171d5760405162461bcd60e51b81526020600482015260116024820152702727a722ac24a9aa22a72a2faa27a5a2a760791b6044820152606401610879565b856001600160a01b0316826001600160a01b03161461177e5760405162461bcd60e51b815260206004820152600960248201527f4e4f545f4f574e455200000000000000000000000000000000000000000000006044820152606401610879565b6001600160a01b0385166117d45760405162461bcd60e51b815260206004820152601260248201527f4e4f545f544f5f5a45524f4144445245535300000000000000000000000000006044820152606401610879565b306001600160a01b0386160361182c5760405162461bcd60e51b815260206004820152600b60248201527f4e4f545f544f5f544849530000000000000000000000000000000000000000006044820152606401610879565b336001600160a01b038716146118d95780801561185f57506000848152600360205260409020546001600160a01b031633145b8061188d57506001600160a01b038616600090815260026020908152604080832033845290915290205460ff165b6118d95760405162461bcd60e51b815260206004820152601560248201527f554e415554484f52495a45445f5452414e5346455200000000000000000000006044820152606401610879565b6110b4868686866124d4565b606061081582612548565b60608167ffffffffffffffff81111561190b5761190b612e5e565b60405190808252806020026020018201604052801561195057816020015b60408051808201909152600080825260208201528152602001906001900390816119295790505b50905060005b828110156115a5576000806000868685818110611975576119756133f8565b905060200201358152602001908152602001600020549050808383815181106119a0576119a06133f8565b6020026020010151600001906001600160a01b031690816001600160a01b03168152505060a081901c6affffffffffffffffffffff168383815181106119e8576119e86133f8565b60209081029190910181015101525080611a01816133de565b915050611956565b6005546001600160a01b03163314611a545760405162461bcd60e51b815260206004820152600e60248201526d1393d517d055551213d49256915160921b6044820152606401610879565b6006546001600160a01b0382811691161461118c576006805473ffffffffffffffffffffffffffffffffffffffff19166001600160a01b0383169081179091556040519081527f726b590ef91a8c76ad05bbe91a57ef84605276528f49cd47d787f558a4e755b690602001611183565b6000611acf826127f2565b806108155750507fffffffff00000000000000000000000000000000000000000000000000000000167f2a55205a000000000000000000000000000000000000000000000000000000001490565b6001600160a01b038216611b5057600081815260208190526040902060a084901b6001600160a01b038616179055611ba7565b600081815260208181526040808320600160ff1b6001600160a01b0389811660a08a901b17919091179091556003909252909120805473ffffffffffffffffffffffffffffffffffffffff19169184169190911790555b80826001600160a01b0316856001600160a01b03167f8c5be1e5ebec7d5bd14f71427d1e84f3dd0314c0f7b2291e5b200ac8c7c3b92560405160405180910390a450505050565b6001600160a01b03808316600090815260016020819052604090912080549091019055831615611c39576001600160a01b038316600090815260016020526040902080546000190190555b6000818152602081905260408082204360a01b6001600160a01b0380871691821790925591518493918716917fddf252ad1be2c89b69c2b068fc378daa952ba7f163c4a11628f55a4df523b3ef91a4505050565b6000467f00000000000000000000000000000000000000000000000000000000000000008114611cc557611cc08161288a565b611ce7565b7f00000000000000000000000000000000000000000000000000000000000000005b91505090565b606060006040518060a001604052806079815260200161523560799139855190915060006001611d1e8360206134fa565b611d2a906101006135f1565b611d3491906134fa565b905060208701604484015b601f841115611d5f5781518152601f199093019260209182019101611d3f565b90518151831683199190911617905282516000906020850182f090506001600160a01b038116611dd15760405162461bcd60e51b815260206004820152600c60248201527f4352454154455f4641494c5300000000000000000000000000000000000000006044820152606401610879565b600080826001600160a01b0316608089901b8a17604051602001611df791815260200190565b60408051601f1981840301815290829052611e11916135fd565b600060405180830381855afa9150503d8060008114611e4c576040519150601f19603f3d011682016040523d82523d6000602084013e611e51565b606091505b509150915081611ea35760405162461bcd60e51b815260206004820152600a60248201527f43414c4c5f4641494c53000000000000000000000000000000000000000000006044820152606401610879565b9998505050505050505050565b60608151600003611ecf57505060408051602081019091526000815290565b60006040518060600160405280604081526020016152da6040913990506000600384516002611efe9190613619565b611f08919061332c565b611f1390600461330d565b90506000611f22826020613619565b67ffffffffffffffff811115611f3a57611f3a612e5e565b6040519080825280601f01601f191660200182016040528015611f64576020820181803683370190505b509050818152600183018586518101602084015b81831015611fd0576003830192508251603f8160121c168501518253600182019150603f81600c1c168501518253600182019150603f8160061c168501518253600182019150603f8116850151825350600101611f78565b600389510660018114611fea57600281146120345761205c565b7f3d3d0000000000000000000000000000000000000000000000000000000000007ffffffffffffffffffffffffffffffffffffffffffffffffffffffffffffffffe83015261205c565b7f3d000000000000000000000000000000000000000000000000000000000000006000198301525b509398975050505050505050565b6000612074610e1b565b604080517f49ecf333e5b8c95c40fdafc95c1ad136e8914a8fb55e9dc8bb01eaa83a2df9ad60208201526001600160a01b03891691810191909152606081018790526080810185905260a0810186905260c0016040516020818303038152906040528051906020012060405160200161211f9291907f190100000000000000000000000000000000000000000000000000000000000081526002810192909252602282015260420190565b60405160208183030381529060405280519060200120905061214287828461292e565b61218e5760405162461bcd60e51b815260206004820152601160248201527f494e56414c49445f5349474e41545552450000000000000000000000000000006044820152606401610879565b50505050505050565b7f8fbcb4375b910093bcf636b6b2f26b26eda2a29ef5a8ee7de44b5743c3bf9a27546000906001600160a01b038116158015906121e55750806001600160a01b0316846001600160a01b0316145b80156121f857506001600160a01b038316155b949350505050565b6001600160a01b0383811660008181526002602090815260408083209487168084529482529182902080547fffffffffffffffffffffffffffffffffffffffffffffffffffffffffffffff001686151590811790915591519182527f17307eab39ab6107e8899845ad3d59bd9653f200f220920489ca2b5937696c31910160405180910390a3505050565b6000612295610e1b565b604080517f29795620f29ed5790c945e3f419a1b3e2381aa07751ccffe5b81231639d74cd560208201526001600160a01b03881691810191909152606081018590526080810186905260a001604051602081830303815290604052805190602001206040516020016123399291907f190100000000000000000000000000000000000000000000000000000000000081526002810192909252602282015260420190565b60405160208183030381529060405280519060200120905061235c86828461292e565b6110b45760405162461bcd60e51b815260206004820152601160248201527f494e56414c49445f5349474e41545552450000000000000000000000000000006044820152606401610879565b6001600160a01b0381166123fe5760405162461bcd60e51b815260206004820152601260248201527f4e4f545f544f5f5a45524f4144445245535300000000000000000000000000006044820152606401610879565b306001600160a01b038216036124565760405162461bcd60e51b815260206004820152600b60248201527f4e4f545f544f5f544849530000000000000000000000000000000000000000006044820152606401610879565b6000828152602081905260409020546001600160a01b038116156124bc5760405162461bcd60e51b815260206004820152600f60248201527f414c52454144595f4352454154454400000000000000000000000000000000006044820152606401610879565b610e4560008385604051806020016040528060008152505b6124df848484611bee565b6001600160a01b0383163b156109ad576124fc3385858585612ab6565b6109ad5760405162461bcd60e51b815260206004820152601860248201527f4552433732315f5452414e534645525f52454a454354454400000000000000006044820152606401610879565b60606000826001600160a01b0316604051806040016040528060208152602001720186a00000000000000000000000000000000081525060405161258c91906135fd565b600060405180830381855afa9150503d80600081146125c7576040519150601f19603f3d011682016040523d82523d6000602084013e6125cc565b606091505b5091505060006040518060600160405280602c815260200161531a602c913990506126038183604051602001610ed092919061336a565b604051602001612613919061362c565b60408051601f1981840301815291815260008681526009602052908120549194505b60408110156127e957600061264b60028361332c565b90506000838260208110612661576126616133f8565b1a90507f3031323334353637383961626364656630303030303030303030303030303030600482901c60ff166020811061269d5761269d6133f8565b1a60f81b876126ad85602e61330d565b6126b885601661330d565b6126c39060a7613619565b6126cf90610917613619565b6126d99190613619565b815181106126e9576126e96133f8565b60200101907effffffffffffffffffffffffffffffffffffffffffffffffffffffffffffff1916908160001a9053507f3031323334353637383961626364656630303030303030303030303030303030600f82166020811061274d5761274d6133f8565b1a60f81b8761275d85602e61330d565b61276885601661330d565b6127739060a7613619565b61277f90610917613619565b61278a90602e613619565b6127949190613619565b815181106127a4576127a46133f8565b60200101907effffffffffffffffffffffffffffffffffffffffffffffffffffffffffffff1916908160001a90535050506002816127e29190613619565b9050612635565b50505050919050565b60007fffffffff0000000000000000000000000000000000000000000000000000000082167f5604e22500000000000000000000000000000000000000000000000000000000148061081557507fffffffff0000000000000000000000000000000000000000000000000000000082167fefdb586b000000000000000000000000000000000000000000000000000000001492915050565b60007f8cad95687ba82c2ce50e74f7b754645e5117c3a5bec8151c0726d5857980a8666128e760408051808201909152601181527f54686520426c656570204d616368696e65000000000000000000000000000000602082015290565b80516020918201206040805192830193909352918101919091526060810183905230608082015260a001604051602081830303815290604052805190602001209050919050565b600080600061293d8585612b7e565b9092509050600081600481111561295657612956615193565b1480156129745750856001600160a01b0316826001600160a01b0316145b1561298457600192505050610a1e565b600080876001600160a01b0316631626ba7e60e01b88886040516024016129ac9291906151a9565b60408051601f198184030181529181526020820180517bffffffffffffffffffffffffffffffffffffffffffffffffffffffff167fffffffff00000000000000000000000000000000000000000000000000000000909416939093179092529051612a1791906135fd565b600060405180830381855afa9150503d8060008114612a52576040519150601f19603f3d011682016040523d82523d6000602084013e612a57565b606091505b5091509150818015612a6a575080516020145b8015612aaa575080517f1626ba7e0000000000000000000000000000000000000000000000000000000090612aa890830160209081019084016151c2565b145b98975050505050505050565b600080846001600160a01b031663150b7a02888887876040518563ffffffff1660e01b8152600401612aeb94939291906151db565b6020604051808303816000875af1158015612b0a573d6000803e3d6000fd5b505050506040513d601f19601f82011682018060405250810190612b2e9190615217565b7fffffffff00000000000000000000000000000000000000000000000000000000167f150b7a02000000000000000000000000000000000000000000000000000000001491505095945050505050565b6000808251604103612bb45760208301516040840151606085015160001a612ba887828585612bc3565b94509450505050612bbc565b506000905060025b9250929050565b6000807f7fffffffffffffffffffffffffffffff5d576e7357a4501ddfe92f46681b20a0831115612bfa5750600090506003612ca7565b8460ff16601b14158015612c1257508460ff16601c14155b15612c235750600090506004612ca7565b6040805160008082526020820180845289905260ff881692820192909252606081018690526080810185905260019060a0016020604051602081039080840390855afa158015612c77573d6000803e3d6000fd5b5050604051601f1901519150506001600160a01b038116612ca057600060019250925050612ca7565b9150600090505b94509492505050565b7fffffffff000000000000000000000000000000000000000000000000000000008116811461118c57600080fd5b600060208284031215612cf057600080fd5b8135610a1e81612cb0565b60005b83811015612d16578181015183820152602001612cfe565b50506000910152565b60008151808452612d37816020860160208601612cfb565b601f01601f19169290920160200192915050565b602081526000610a1e6020830184612d1f565b600060208284031215612d7057600080fd5b5035919050565b80356001600160a01b0381168114610f6657600080fd5b60008060408385031215612da157600080fd5b612daa83612d77565b946020939093013593505050565b600080600060608486031215612dcd57600080fd5b612dd684612d77565b9250612de460208501612d77565b9150604084013590509250925092565b60008060408385031215612e0757600080fd5b612e1083612d77565b915060208301356bffffffffffffffffffffffff81168114612e3157600080fd5b809150509250929050565b60008060408385031215612e4f57600080fd5b50508035926020909101359150565b634e487b7160e01b600052604160045260246000fd5b604051601f8201601f1916810167ffffffffffffffff81118282101715612e9d57612e9d612e5e565b604052919050565b600067ffffffffffffffff821115612ebf57612ebf612e5e565b50601f01601f191660200190565b600082601f830112612ede57600080fd5b8135612ef1612eec82612ea5565b612e74565b818152846020838601011115612f0657600080fd5b816020850160208301376000918101602001919091529392505050565b600080600060608486031215612f3857600080fd5b833567ffffffffffffffff811115612f4f57600080fd5b612f5b86828701612ecd565b9660208601359650604090950135949350505050565b600060208284031215612f8357600080fd5b610a1e82612d77565b60008060008060808587031215612fa257600080fd5b612fab85612d77565b93506020850135925060408501359150606085013567ffffffffffffffff811115612fd557600080fd5b612fe187828801612ecd565b91505092959194509250565b7fff00000000000000000000000000000000000000000000000000000000000000881681526000602060e08184015261302960e084018a612d1f565b838103604085015261303b818a612d1f565b606085018990526001600160a01b038816608086015260a0850187905284810360c0860152855180825283870192509083019060005b8181101561308d57835183529284019291840191600101613071565b50909c9b505050505050505050505050565b600080604083850312156130b257600080fd5b6130bb83612d77565b915060208301358015158114612e3157600080fd5b600080600080608085870312156130e657600080fd5b6130ef85612d77565b93506130fd60208601612d77565b925060408501359150606085013567ffffffffffffffff811115612fd557600080fd5b60008083601f84011261313257600080fd5b50813567ffffffffffffffff81111561314a57600080fd5b6020830191508360208260051b8501011115612bbc57600080fd5b6000806020838503121561317857600080fd5b823567ffffffffffffffff81111561318f57600080fd5b61319b85828601613120565b90969095509350505050565b6000602080830181845280855180835260408601915060408160051b870101925083870160005b8281101561321a577fffffffffffffffffffffffffffffffffffffffffffffffffffffffffffffffc0888603018452613208858351612d1f565b945092850192908501906001016131ce565b5092979650505050505050565b6000806040838503121561323a57600080fd5b61324383612d77565b9150602083013567ffffffffffffffff81111561325f57600080fd5b61326b85828601612ecd565b9150509250929050565b6000806040838503121561328857600080fd5b61329183612d77565b9150610e1260208401612d77565b602080825282518282018190526000919060409081850190868401855b828110156132ea57815180516001600160a01b031685528601518685015292840192908501906001016132bc565b5091979650505050505050565b634e487b7160e01b600052601160045260246000fd5b6000816000190483118215151615613327576133276132f7565b500290565b60008261334957634e487b7160e01b600052601260045260246000fd5b500490565b60008151613360818560208601612cfb565b9290920192915050565b6000835161337c818460208801612cfb565b835190830190613390818360208801612cfb565b01949350505050565b7f646174613a617564696f2f7761763b6261736536342c000000000000000000008152600082516133d1816016850160208701612cfb565b9190910160160192915050565b600060001982036133f1576133f16132f7565b5060010190565b634e487b7160e01b600052603260045260246000fd5b60008083357fffffffffffffffffffffffffffffffffffffffffffffffffffffffffffffffe184360301811261344357600080fd5b83018035915067ffffffffffffffff82111561345e57600080fd5b602001915036819003821315612bbc57600080fd5b8183823760009101908152919050565b60006020828403121561349557600080fd5b815167ffffffffffffffff8111156134ac57600080fd5b8201601f810184136134bd57600080fd5b80516134cb612eec82612ea5565b8181528560208385010111156134e057600080fd5b6134f1826020830160208601612cfb565b95945050505050565b81810381811115610815576108156132f7565b600181815b8085111561354857816000190482111561352e5761352e6132f7565b8085161561353b57918102915b93841c9390800290613512565b509250929050565b60008261355f57506001610815565b8161356c57506000610815565b8160018114613582576002811461358c576135a8565b6001915050610815565b60ff84111561359d5761359d6132f7565b50506001821b610815565b5060208310610133831016604e8410600b84101617156135cb575081810a610815565b6135d5838361350d565b80600019048211156135e9576135e96132f7565b029392505050565b6000610a1e8383613550565b6000825161360f818460208701612cfb565b9190910192915050565b80820180821115610815576108156132f7565b7f646174613a6170706c69636174696f6e2f6a736f6e2c7b226e616d65223a225481527f6865253230426c6565702532304d616368696e65222c2264657363726970746960208201527f6f6e223a22546865253230426c6565702532304d616368696e6525323070726f60408201527f64756365732532306d7573696325323066726f6d25323045564d25323062797460608201527f65636f64652e222c2265787465726e616c5f75726c223a22544f444f222c226960808201527f6d616765223a220000000000000000000000000000000000000000000000000060a08201527f646174613a696d6167652f7376672b786d6c3b636861727365743d757466382c60a78201527f3c7376672532353230786d6c6e733d27687474703a2f2f7777772e77332e6f7260c78201527f672f323030302f73766727253235323073686170652d72656e646572696e673d60e78201527f276372697370456467657327253235323077696474683d2735313227253235326101078201527f306865696768743d27353132273e3c7374796c653e2a7b6261636b67726f756e6101278201527f642d636f6c6f723a77686974657d2e627b616e696d6174696f6e3a62612532356101478201527f323031732532353230737465707328352c7374617274292532353230696e66696101678201527f6e6974653b2d7765626b69742d616e696d6174696f6e3a6261253235323031736101878201527f2532353230737465707328352c7374617274292532353230696e66696e6974656101a78201527f3b7d406b65796672616d6573253235323062617b746f7b7669736962696c69746101c78201527f793a2068696464656e3b7d7d402d7765626b69742d6b65796672616d657325326101e78201527f35323062617b746f7b7669736962696c6974793a68696464656e3b7d7d2e62306102078201527f317b20616e696d6174696f6e2d64656c61793a2e303331737d2e6230327b616e6102278201527f696d6174696f6e2d64656c61793a2e303632737d2e6230337b616e696d6174696102478201527f6f6e2d64656c61793a2e303933737d2e6230347b616e696d6174696f6e2d64656102678201527f6c61793a2e313234737d2e6230357b616e696d6174696f6e2d64656c61793a2e6102878201527f313535737d2e6230367b616e696d6174696f6e2d64656c61793a2e313836737d6102a78201527f2e6230377b616e696d6174696f6e2d64656c61793a2e323137737d2e6230387b6102c78201527f616e696d6174696f6e2d64656c61793a2e323438737d2e6230397b616e696d616102e78201527f74696f6e2d64656c61793a2e323739737d2e6231307b616e696d6174696f6e2d6103078201527f64656c61793a2e333130737d2e6231317b616e696d6174696f6e2d64656c61796103278201527f3a2e333432737d2e6231327b616e696d6174696f6e2d64656c61793a2e3337336103478201527f737d2e6231337b616e696d6174696f6e2d64656c61793a2e343033737d2e62316103678201527f347b616e696d6174696f6e2d64656c61793a2e343334737d2e6231357b616e696103878201527f6d6174696f6e2d64656c61793a2e343635737d2e6231367b616e696d6174696f6103a78201527f6e2d64656c61793a2e343936737d2e6231377b616e696d6174696f6e2d64656c6103c78201527f61793a2e353237737d2e6231387b616e696d6174696f6e2d64656c61793a2e356103e78201527f3538737d2e6231397b616e696d6174696f6e2d64656c61793a2e353839737d2e6104078201527f6232307b616e696d6174696f6e2d64656c61793a2e363230737d2e6232317b616104278201527f6e696d6174696f6e2d64656c61793a2e363531737d2e6232327b616e696d61746104478201527f696f6e2d64656c61793a2e363832737d2e6232337b616e696d6174696f6e2d646104678201527f656c61793a2e373133737d2e6232347b616e696d6174696f6e2d64656c61793a6104878201527f2e373434737d2e6232357b616e696d6174696f6e2d64656c61793a2e373735736104a78201527f7d2e6232367b616e696d6174696f6e2d64656c61793a2e383036737d2e6232376104c78201527f7b616e696d6174696f6e2d64656c61793a2e383337737d2e6232387b616e696d6104e78201527f6174696f6e2d64656c61793a2e383638737d2e6232397b616e696d6174696f6e6105078201527f2d64656c61793a2e383939737d2e6233307b616e696d6174696f6e2d64656c616105278201527f793a2e393330737d2e6233317b616e696d6174696f6e2d64656c61793a2e39366105478201527f31737d2e6233327b616e696d6174696f6e2d64656c61793a2e393932737d3c2f6105678201527f7374796c653e3c646566733e3c70617468253235323069643d275a27253235326105878201527f30643d274d302c3068317631682d317a272f3e3c757365253235323069643d276105a78201527f30272532353230687265663d2725323532335a27253235323066696c6c3d27256105c78201527f32353233303030633234272f3e3c757365253235323069643d273127253235326105e78201527f30687265663d2725323532335a27253235323066696c6c3d27253235323339656106078201527f30393632272f3e3c757365253235323069643d2732272532353230687265663d6106278201527f2725323532335a27253235323066696c6c3d272532353233666631633361272f6106478201527f3e3c757365253235323069643d2733272532353230687265663d2725323532336106678201527f5a27253235323066696c6c3d272532353233626330623232272f3e3c757365256106878201527f3235323069643d2734272532353230687265663d2725323532335a27253235326106a78201527f3066696c6c3d272532353233666639393163272f3e3c757365253235323069646106c78201527f3d2735272532353230687265663d2725323532335a27253235323066696c6c3d6106e78201527f272532353233633136613030272f3e3c757365253235323069643d27362725326107078201527f353230687265663d2725323532335a27253235323066696c6c3d2725323532336107278201527f666665383163272f3e3c757365253235323069643d27372725323532306872656107478201527f663d2725323532335a27253235323066696c6c3d2725323532333965386230306107678201527f272f3e3c757365253235323069643d2738272532353230687265663d272532356107878201527f32335a27253235323066696c6c3d272532353233323365343233272f3e3c75736107a78201527f65253235323069643d2739272532353230687265663d2725323532335a2725326107c78201527f35323066696c6c3d272532353233303039393030272f3e3c75736525323532306107e78201527f69643d2761272532353230687265663d2725323532335a27253235323066696c6108078201527f6c3d272532353233316164646530272f3e3c757365253235323069643d2762276108278201527f2532353230687265663d2725323532335a27253235323066696c6c3d272532356108478201527f3233303038373839272f3e3c757365253235323069643d2763272532353230686108678201527f7265663d2725323532335a27253235323066696c6c3d272532353233336439376108878201527f6666272f3e3c757365253235323069643d2764272532353230687265663d27256108a78201527f323532335a27253235323066696c6c3d272532353233336535636130272f3e3c6108c78201527f757365253235323069643d2765272532353230687265663d2725323532335a276108e78201527f253235323066696c6c3d272532353233383331626639272f3e3c7573652532356109078201527f323069643d2766272532353230687265663d2725323532335a272532353230666109278201527f696c6c3d272532353233353232393832272f3e3c2f646566733e3c67253235326109478201527f307472616e73666f726d3d277363616c6528363429273e3c75736525323532306109678201527f783d273030272532353230636c6173733d2762253235323062303127253235326109878201527f30793d273030272532353230687265663d27253235323330272f3e3c757365256109a78201527f32353230783d273031272532353230793d273030272532353230687265663d276109c78201527f253235323330272f3e3c7573652532353230783d273032272532353230636c616109e78201527f73733d27622532353230623032272532353230793d2730302725323532306872610a078201527f65663d27253235323330272f3e3c7573652532353230783d2730332725323532610a278201527f30793d273030272532353230687265663d27253235323330272f3e3c75736525610a478201527f32353230783d273034272532353230636c6173733d2762253235323062303327610a678201527f2532353230793d273030272532353230687265663d27253235323330272f3e3c610a878201527f7573652532353230783d273035272532353230793d2730302725323532306872610aa78201527f65663d27253235323330272f3e3c7573652532353230783d2730362725323532610ac78201527f30636c6173733d27622532353230623034272532353230793d27303027253235610ae78201527f3230687265663d27253235323330272f3e3c7573652532353230783d27303727610b078201527f2532353230793d273030272532353230687265663d27253235323330272f3e3c610b278201527f7573652532353230783d273030272532353230636c6173733d27622532353230610b478201527f623035272532353230793d273031272532353230687265663d27253235323330610b678201527f272f3e3c7573652532353230783d273031272532353230793d27303127253235610b878201527f3230687265663d27253235323330272f3e3c7573652532353230783d27303227610ba78201527f2532353230636c6173733d27622532353230623036272532353230793d273031610bc782015260007f272532353230687265663d27253235323330272f3e3c7573652532353230783d80610be78401527f273033272532353230793d273031272532353230687265663d27253235323330610c078401527f272f3e3c7573652532353230783d273034272532353230636c6173733d27622580610c278501527f32353230623037272532353230793d273031272532353230687265663d272532610c478501527f35323330272f3e3c7573652532353230783d273035272532353230793d273031610c6785015281610c878501527f273036272532353230636c6173733d2762253235323062303827253235323079610ca78501527f3d273031272532353230687265663d27253235323330272f3e3c757365253235610cc78501527f3230783d273037272532353230793d273031272532353230687265663d272532610ce78501527f35323330272f3e3c7573652532353230783d273030272532353230636c61737380610d078601527f3d27622532353230623039272532353230793d27303227253235323068726566610d278601527f3d27253235323330272f3e3c7573652532353230783d2730312725323532307980610d478701527f3d273032272532353230687265663d27253235323330272f3e3c757365253235610d678701527f3230783d273032272532353230636c6173733d27622532353230623130272532610d878701527f353230793d273032272532353230687265663d27253235323330272f3e3c757380610da78801527f652532353230783d273033272532353230793d27303227253235323068726566610dc78801527f3d27253235323330272f3e3c7573652532353230783d2730342725323532306380610de78901527f6c6173733d27622532353230623131272532353230793d273032272532353230610e078901527f687265663d27253235323330272f3e3c7573652532353230783d27303527253280610e278a015282610e478a01527f652532353230783d273036272532353230636c6173733d276225323532306231610e678a01527f32272532353230793d273032272532353230687265663d27253235323330272f610e878a01527f3e3c7573652532353230783d273037272532353230793d273032272532353230610ea78a01527f687265663d27253235323330272f3e3c7573652532353230783d273030272532925082610ec78a01527f353230636c6173733d27622532353230623133272532353230793d2730332725610ee78a01527f32353230687265663d27253235323330272f3e3c7573652532353230783d273080610f078b01527f31272532353230793d273033272532353230687265663d27253235323330272f610f278b01527f3e3c7573652532353230783d273032272532353230636c6173733d276225323580610f478c01527f3230623134272532353230793d273033272532353230687265663d2725323532610f678c01527f3330272f3e3c7573652532353230783d273033272532353230793d2730332725610f878c015281610fa78c01527f34272532353230636c6173733d27622532353230623135272532353230793d27610fc78c01527f3033272532353230687265663d27253235323330272f3e3c757365253235323080610fe78d01527f783d273035272532353230793d273033272532353230687265663d27253235326110078d01527f3330272f3e3c7573652532353230783d273036272532353230636c6173733d27806110278e01527f622532353230623136272532353230793d273033272532353230687265663d276110478e01527f253235323330272f3e3c7573652532353230783d273037272532353230793d27806110678f0152826110878f01527f783d273030272532353230636c6173733d2762253235323062313727253235326110a78f01527f30793d273034272532353230687265663d27253235323330272f3e3c757365259250826110c78f01527f32353230783d273031272532353230793d273034272532353230687265663d276110e78f01527f253235323330272f3e3c7573652532353230783d273032272532353230636c616111078f01527f73733d27622532353230623138272532353230793d27303427253235323068726111278f01527f65663d27253235323330272f3e3c7573652532353230783d27303327253235326111478f0152826111678f01527f32353230783d273034272532353230636c6173733d27622532353230623139276111878f01527f2532353230793d273034272532353230687265663d27253235323330272f3e3c9250826111a78f01527f7573652532353230783d273035272532353230793d27303427253235323068726111c78f01527f65663d27253235323330272f3e3c7573652532353230783d27303627253235326111e78f01527f30636c6173733d27622532353230623230272532353230793d273034272532356112078f01527f3230687265663d27253235323330272f3e3c7573652532353230783d273037276112278f0152826112478f01527f7573652532353230783d273030272532353230636c6173733d276225323532306112678f01527f623231272532353230793d273035272532353230687265663d272532353233306112878f01527f272f3e3c7573652532353230783d273031272532353230793d273035272532356112a78f01527f3230687265663d27253235323330272f3e3c7573652532353230783d273032276112c78f01527f2532353230636c6173733d27622532353230623232272532353230793d2730356112e78f01528b6113078f01527f273033272532353230793d273035272532353230687265663d272532353233306113278f01528a6113478f01527f32353230623233272532353230793d273035272532353230687265663d2725326113678f01527f35323330272f3e3c7573652532353230783d273035272532353230793d2730356113878f01528b6113a78f01527f273036272532353230636c6173733d27622532353230623234272532353230796113c78f01527f3d273035272532353230687265663d27253235323330272f3e3c7573652532356113e78f01527f3230783d273037272532353230793d273035272532353230687265663d2725326114078f0152896114278f01527f3d27622532353230623235272532353230793d273036272532353230687265666114478f0152886114678f01527f3d273036272532353230687265663d27253235323330272f3e3c7573652532356114878f01527f3230783d273032272532353230636c6173733d276225323532306232362725326114a78f01527f353230793d273036272532353230687265663d27253235323330272f3e3c75739b508b6114c78f01527f652532353230783d273033272532353230793d273036272532353230687265666114e78f0152866115078f01527f6c6173733d27622532353230623237272532353230793d2730362725323532306115278f0152856115478f01528b6115678f01527f652532353230783d273036272532353230636c6173733d2762253235323062326115878f01527f38272532353230793d273036272532353230687265663d27253235323330272f6115a78f01527f3e3c7573652532353230783d273037272532353230793d2730362725323532306115c78f0152876115e78f01527f353230636c6173733d27622532353230623239272532353230793d27303727256116078f0152846116278f01527f31272532353230793d273037272532353230687265663d27253235323330272f6116478f0152836116678f01527f3230623330272532353230793d273037272532353230687265663d27253235326116878f01527f3330272f3e3c7573652532353230783d273033272532353230793d27303727256116a78f0152846116c78f01527f34272532353230636c6173733d27622532353230623331272532353230793d276116e78f01527f3037272532353230687265663d27253235323330272f3e3c75736525323532306117078f01527f783d273035272532353230793d273037272532353230687265663d27253235326117278f0152816117478f01527f622532353230623332272532353230793d273037272532353230687265663d276117678f0152806117878f01525050505050505050505050507f3037272532353230687265663d27253235323330272f3e3c2f673e3c2f7376676117a78301527f3e000000000000000000000000000000000000000000000000000000000000006117c78301526151666151606117c884017f222c22616e696d6174696f6e5f75726c223a22646174613a617564696f2f776181527f763b6261736536342c0000000000000000000000000000000000000000000000602082015260290190565b8461334e565b7f227d00000000000000000000000000000000000000000000000000000000000081526002019392505050565b634e487b7160e01b600052602160045260246000fd5b8281526040602082015260006121f86040830184612d1f565b6000602082840312156151d457600080fd5b5051919050565b60006001600160a01b0380871683528086166020840152508360408301526080606083015261520d6080830184612d1f565b9695505050505050565b60006020828403121561522957600080fd5b8151610a1e81612cb056fe606d600c600039606d6000f36000358060801b806000529060801c60205260006040525b5b5b5b5b5b5b5b5b5b5b5b5b5b5b5b5b5b5b5b5b5b5b5b5b5b5b5b5b5b5b5b5b60ff9016604051806080019091905360010180604052602051600051600101806000529110601757602051806060526020016060f3524946460000000057415645666d74201000000001000100401f0000401f00000100080064617461000000004142434445464748494a4b4c4d4e4f505152535455565758595a6162636465666768696a6b6c6d6e6f707172737475767778797a303132333435363738392b2f52494646c486010057415645666d74201000000001000100401f0000401f00000100080064617461a0860100a264697066735822122076bf23250f393bd83a76fbed3671a5cef28ee650acf4a30815ed2ec7f2443aea64736f6c63430008100033",
  "devdoc": {
    "kind": "dev",
    "methods": {
      "approve(address,uint256)": {
        "params": {
          "id": "The id of the token.",
          "operator": "The address receiving the approval."
        }
      },
      "balanceOf(address)": {
        "params": {
          "owner": "The address to look for."
        },
        "returns": {
          "balance": "The number of tokens owned by the address."
        }
      },
      "constructor": {
        "details": "Setup the roles",
        "params": {
          "imitialRoyaltyPer10Thousands": "amount of royalty in 10,000 basis point",
          "initialGuardian": "guardian able to immortalize rules",
          "initialMinterAdmin": "admin able to set the minter contract.",
          "initialRoyaltyAdmin": "admin able to update the royalty receiver and rates.",
          "initialRoyaltyReceiver": "receiver of royalties"
        }
      },
      "getApproved(uint256)": {
        "params": {
          "id": "The id of the token."
        },
        "returns": {
          "_0": "The address of the operator."
        }
      },
      "isApprovedForAll(address,address)": {
        "params": {
          "operator": "The address of the operator.",
          "owner": "The address of the owner."
        },
        "returns": {
          "isOperator": "The status of the approval."
        }
      },
      "multicall(bytes[])": {
        "details": "The `msg.value` should not be trusted for any method callable from multicall.",
        "params": {
          "data": "The encoded function data for each of the calls to make to this contract."
        },
        "returns": {
          "results": "The results from each of the calls passed in via data."
        }
      },
      "nonces(address)": {
        "params": {
          "account": "the account to query"
        },
        "returns": {
          "nonce": "nonce"
        }
      },
      "nonces(uint256)": {
        "params": {
          "id": "token id to query"
        },
        "returns": {
          "nonce": "nonce"
        }
      },
      "ownerAndLastTransferBlockNumberList(uint256[])": {
        "params": {
          "ids": "The list of token ids to check."
        },
        "returns": {
          "ownersData": "The list of (owner, lastTransferBlockNumber) for each ids given as input."
        }
      },
      "ownerOf(uint256)": {
        "params": {
          "id": "The id of the token."
        },
        "returns": {
          "owner": "The address of the token owner."
        }
      },
      "royaltyInfo(uint256,uint256)": {
        "params": {
          "": "//id - the token queried for royalty information.",
          "salePrice": "- the sale price of the token specified by id."
        },
        "returns": {
          "receiver": "- address of who should be sent the royalty payment.",
          "royaltyAmount": "- the royalty payment amount for salePrice."
        }
      },
      "safeTransferFrom(address,address,uint256)": {
        "params": {
          "from": "The send of the token.",
          "id": "The id of the token.",
          "to": "The recipient of the token."
        }
      },
      "safeTransferFrom(address,address,uint256,bytes)": {
        "params": {
          "data": "Additional data.",
          "from": "The sender of the token.",
          "id": "The id of the token.",
          "to": "The recipient of the token."
        }
      },
      "setApprovalForAll(address,bool)": {
        "params": {
          "approved": "The determination of the approval.",
          "operator": "The address receiving the approval."
        }
      },
      "setRoyaltyParameters(address,uint96)": {
        "params": {
          "newReceiver": "the address that should receive the royalty proceeds.",
          "royaltyPer10Thousands": "the share of the salePrice (in 1/10000) given to the receiver."
        }
      },
      "tokenNonces(uint256)": {
        "params": {
          "id": "token id to query"
        },
        "returns": {
          "nonce": "nonce"
        }
      },
      "transferFrom(address,address,uint256)": {
        "params": {
          "from": "The sender of the token.",
          "id": "The id of the token.",
          "to": "The recipient of the token."
        }
      }
    },
    "version": 1
  },
  "userdoc": {
    "kind": "user",
    "methods": {
      "approve(address,uint256)": {
        "notice": "Approve an operator to transfer a specific token on the senders behalf."
      },
      "balanceOf(address)": {
        "notice": "Get the number of tokens owned by an address."
      },
      "getApproved(uint256)": {
        "notice": "Get the approved operator for a specific token."
      },
      "guardian()": {
        "notice": "guardian has some special vetoing power to guide the direction of the DAO. It can only remove rights from the DAO. It could be used to immortalize rules. For example: the royalty setup could be frozen."
      },
      "isApprovedForAll(address,address)": {
        "notice": "Check if the sender approved the operator."
      },
      "minter()": {
        "notice": "address allowed to mint, allow the sale contract to be separated from the token contract that can focus on the core logic Once all 1024 potential bleeps (there could be less, at minimum there are 576 bleeps) are minted, no minter can mint anymore"
      },
      "minterAdmin()": {
        "notice": "minterAdmin can update the minter. At the time being there is 576 Bleeps but there is space for extra instrument and the upper limit is 1024. could be given to the DAO later so instrument can be added, the sale of these new bleeps could benenfit the DAO too and add new members."
      },
      "multicall(bytes[])": {
        "notice": "Call multiple functions in the current contract and return the data from all of them if they all succeed."
      },
      "name()": {
        "notice": "A descriptive name for a collection of NFTs in this contract."
      },
      "nonces(address)": {
        "notice": "return the account nonce, used for approvalForAll permit or other account related matter"
      },
      "nonces(uint256)": {
        "notice": "return the token nonce, used for individual approve permit or other token related matter"
      },
      "ownerAndLastTransferBlockNumberList(uint256[])": {
        "notice": "Get the list of owner of a token and the blockNumber of its last transfer, useful to voting mechanism."
      },
      "ownerOf(uint256)": {
        "notice": "Get the owner of a token."
      },
      "royaltyAdmin()": {
        "notice": "address allowed to set royalty parameters"
      },
      "royaltyInfo(uint256,uint256)": {
        "notice": "Called with the sale price to determine how much royalty is owed and to whom."
      },
      "safeTransferFrom(address,address,uint256)": {
        "notice": "Transfer a token between 2 addresses letting the receiver know of the transfer."
      },
      "safeTransferFrom(address,address,uint256,bytes)": {
        "notice": "Transfer a token between 2 addresses letting the receiver knows of the transfer."
      },
      "setApprovalForAll(address,bool)": {
        "notice": "Set the approval for an operator to manage all the tokens of the sender."
      },
      "setGuardian(address)": {
        "notice": "set the new guardian that can freeze the other admins (except owner). Can only be called by the current guardian."
      },
      "setMinter(address)": {
        "notice": "set the new minter that can mint Can only be called by the minter admin."
      },
      "setMinterAdmin(address)": {
        "notice": "set the new minterAdmin that can set the minter for Bleeps Can only be called by the current minter admin."
      },
      "setRoyaltyAdmin(address)": {
        "notice": "set the new royaltyAdmin that can change the royalties Can only be called by the current royalty admin."
      },
      "setRoyaltyParameters(address,uint96)": {
        "notice": "set a new royalty receiver and rate, Can only be set by the `royaltyAdmin`."
      },
      "symbol()": {
        "notice": "An abbreviated name for NFTs in this contract."
      },
      "tokenNonces(uint256)": {
        "notice": "return the token nonce, used for individual approve permit or other token related matter"
      },
      "transferFrom(address,address,uint256)": {
        "notice": "Transfer a token between 2 addresses."
      }
    },
    "version": 1
  },
  "storageLayout": {
    "storage": [
      {
        "astId": 2741,
        "contract": "src/BleepBeats.sol:BleepBeats",
        "label": "_owners",
        "offset": 0,
        "slot": "0",
        "type": "t_mapping(t_uint256,t_uint256)"
      },
      {
        "astId": 2745,
        "contract": "src/BleepBeats.sol:BleepBeats",
        "label": "_balances",
        "offset": 0,
        "slot": "1",
        "type": "t_mapping(t_address,t_uint256)"
      },
      {
        "astId": 2751,
        "contract": "src/BleepBeats.sol:BleepBeats",
        "label": "_operatorsForAll",
        "offset": 0,
        "slot": "2",
        "type": "t_mapping(t_address,t_mapping(t_address,t_bool))"
      },
      {
        "astId": 2755,
        "contract": "src/BleepBeats.sol:BleepBeats",
        "label": "_operators",
        "offset": 0,
        "slot": "3",
        "type": "t_mapping(t_uint256,t_address)"
      },
      {
        "astId": 2187,
        "contract": "src/BleepBeats.sol:BleepBeats",
        "label": "_userNonces",
        "offset": 0,
        "slot": "4",
        "type": "t_mapping(t_address,t_uint256)"
      },
      {
        "astId": 3605,
        "contract": "src/BleepBeats.sol:BleepBeats",
        "label": "minterAdmin",
        "offset": 0,
        "slot": "5",
        "type": "t_address"
      },
      {
        "astId": 3608,
        "contract": "src/BleepBeats.sol:BleepBeats",
        "label": "minter",
        "offset": 0,
        "slot": "6",
        "type": "t_address"
      },
      {
        "astId": 1783,
        "contract": "src/BleepBeats.sol:BleepBeats",
        "label": "_royalty",
        "offset": 0,
        "slot": "7",
        "type": "t_struct(Royalty)1780_storage"
      },
      {
        "astId": 1786,
        "contract": "src/BleepBeats.sol:BleepBeats",
        "label": "royaltyAdmin",
        "offset": 0,
        "slot": "8",
        "type": "t_address"
      },
      {
        "astId": 1366,
        "contract": "src/BleepBeats.sol:BleepBeats",
        "label": "musicByteCodes",
        "offset": 0,
        "slot": "9",
        "type": "t_mapping(t_uint256,t_bytes32)"
      }
    ],
    "types": {
      "t_address": {
        "encoding": "inplace",
        "label": "address",
        "numberOfBytes": "20"
      },
      "t_bool": {
        "encoding": "inplace",
        "label": "bool",
        "numberOfBytes": "1"
      },
      "t_bytes32": {
        "encoding": "inplace",
        "label": "bytes32",
        "numberOfBytes": "32"
      },
      "t_mapping(t_address,t_bool)": {
        "encoding": "mapping",
        "key": "t_address",
        "label": "mapping(address => bool)",
        "numberOfBytes": "32",
        "value": "t_bool"
      },
      "t_mapping(t_address,t_mapping(t_address,t_bool))": {
        "encoding": "mapping",
        "key": "t_address",
        "label": "mapping(address => mapping(address => bool))",
        "numberOfBytes": "32",
        "value": "t_mapping(t_address,t_bool)"
      },
      "t_mapping(t_address,t_uint256)": {
        "encoding": "mapping",
        "key": "t_address",
        "label": "mapping(address => uint256)",
        "numberOfBytes": "32",
        "value": "t_uint256"
      },
      "t_mapping(t_uint256,t_address)": {
        "encoding": "mapping",
        "key": "t_uint256",
        "label": "mapping(uint256 => address)",
        "numberOfBytes": "32",
        "value": "t_address"
      },
      "t_mapping(t_uint256,t_bytes32)": {
        "encoding": "mapping",
        "key": "t_uint256",
        "label": "mapping(uint256 => bytes32)",
        "numberOfBytes": "32",
        "value": "t_bytes32"
      },
      "t_mapping(t_uint256,t_uint256)": {
        "encoding": "mapping",
        "key": "t_uint256",
        "label": "mapping(uint256 => uint256)",
        "numberOfBytes": "32",
        "value": "t_uint256"
      },
      "t_struct(Royalty)1780_storage": {
        "encoding": "inplace",
        "label": "struct UsingGlobalRoyalties.Royalty",
        "members": [
          {
            "astId": 1777,
            "contract": "src/BleepBeats.sol:BleepBeats",
            "label": "receiver",
            "offset": 0,
            "slot": "0",
            "type": "t_address"
          },
          {
            "astId": 1779,
            "contract": "src/BleepBeats.sol:BleepBeats",
            "label": "per10Thousands",
            "offset": 20,
            "slot": "0",
            "type": "t_uint96"
          }
        ],
        "numberOfBytes": "32"
      },
      "t_uint256": {
        "encoding": "inplace",
        "label": "uint256",
        "numberOfBytes": "32"
      },
      "t_uint96": {
        "encoding": "inplace",
        "label": "uint96",
        "numberOfBytes": "12"
      }
    }
  }
}