{
  "address": "0x5aed6989B1D28d12D41E9437AA1a5b1cCa1B65f3",
  "abi": [
    {
      "inputs": [
        {
          "internalType": "contract TheBleepMachine",
          "name": "bleepMachine",
          "type": "address"
        },
        {
          "internalType": "address",
          "name": "initialGuardian",
          "type": "address"
        },
        {
          "internalType": "address",
          "name": "initialMinterAdmin",
          "type": "address"
        },
        {
          "internalType": "address",
          "name": "initialRoyaltyReceiver",
          "type": "address"
        },
        {
          "internalType": "uint96",
          "name": "imitialRoyaltyPer10Thousands",
          "type": "uint96"
        },
        {
          "internalType": "address",
          "name": "initialRoyaltyAdmin",
          "type": "address"
        }
      ],
      "stateMutability": "nonpayable",
      "type": "constructor"
    },
    {
      "anonymous": false,
      "inputs": [
        {
          "indexed": true,
          "internalType": "address",
          "name": "owner",
          "type": "address"
        },
        {
          "indexed": true,
          "internalType": "address",
          "name": "approved",
          "type": "address"
        },
        {
          "indexed": true,
          "internalType": "uint256",
          "name": "tokenId",
          "type": "uint256"
        }
      ],
      "name": "Approval",
      "type": "event"
    },
    {
      "anonymous": false,
      "inputs": [
        {
          "indexed": true,
          "internalType": "address",
          "name": "owner",
          "type": "address"
        },
        {
          "indexed": true,
          "internalType": "address",
          "name": "operator",
          "type": "address"
        },
        {
          "indexed": false,
          "internalType": "bool",
          "name": "approved",
          "type": "bool"
        }
      ],
      "name": "ApprovalForAll",
      "type": "event"
    },
    {
      "anonymous": false,
      "inputs": [
        {
          "indexed": false,
          "internalType": "address",
          "name": "newGuardian",
          "type": "address"
        }
      ],
      "name": "GuardianSet",
      "type": "event"
    },
    {
      "anonymous": false,
      "inputs": [
        {
          "indexed": false,
          "internalType": "address",
          "name": "newMinterAdmin",
          "type": "address"
        }
      ],
      "name": "MinterAdminSet",
      "type": "event"
    },
    {
      "anonymous": false,
      "inputs": [
        {
          "indexed": false,
          "internalType": "address",
          "name": "newMinter",
          "type": "address"
        }
      ],
      "name": "MinterSet",
      "type": "event"
    },
    {
      "anonymous": false,
      "inputs": [
        {
          "indexed": false,
          "internalType": "address",
          "name": "newRoyaltyAdmin",
          "type": "address"
        }
      ],
      "name": "RoyaltyAdminSet",
      "type": "event"
    },
    {
      "anonymous": false,
      "inputs": [
        {
          "indexed": false,
          "internalType": "address",
          "name": "receiver",
          "type": "address"
        },
        {
          "indexed": false,
          "internalType": "uint256",
          "name": "royaltyPer10Thousands",
          "type": "uint256"
        }
      ],
      "name": "RoyaltySet",
      "type": "event"
    },
    {
      "anonymous": false,
      "inputs": [
        {
          "indexed": true,
          "internalType": "address",
          "name": "from",
          "type": "address"
        },
        {
          "indexed": true,
          "internalType": "address",
          "name": "to",
          "type": "address"
        },
        {
          "indexed": true,
          "internalType": "uint256",
          "name": "tokenId",
          "type": "uint256"
        }
      ],
      "name": "Transfer",
      "type": "event"
    },
    {
      "inputs": [],
      "name": "DOMAIN_SEPARATOR",
      "outputs": [
        {
          "internalType": "bytes32",
          "name": "",
          "type": "bytes32"
        }
      ],
      "stateMutability": "view",
      "type": "function"
    },
    {
      "inputs": [],
      "name": "PERMIT_FOR_ALL_TYPEHASH",
      "outputs": [
        {
          "internalType": "bytes32",
          "name": "",
          "type": "bytes32"
        }
      ],
      "stateMutability": "view",
      "type": "function"
    },
    {
      "inputs": [],
      "name": "PERMIT_TYPEHASH",
      "outputs": [
        {
          "internalType": "bytes32",
          "name": "",
          "type": "bytes32"
        }
      ],
      "stateMutability": "view",
      "type": "function"
    },
    {
      "inputs": [
        {
          "internalType": "address",
          "name": "operator",
          "type": "address"
        },
        {
          "internalType": "uint256",
          "name": "id",
          "type": "uint256"
        }
      ],
      "name": "approve",
      "outputs": [],
      "stateMutability": "nonpayable",
      "type": "function"
    },
    {
      "inputs": [
        {
          "internalType": "address",
          "name": "owner",
          "type": "address"
        }
      ],
      "name": "balanceOf",
      "outputs": [
        {
          "internalType": "uint256",
          "name": "balance",
          "type": "uint256"
        }
      ],
      "stateMutability": "view",
      "type": "function"
    },
    {
      "inputs": [],
      "name": "eip712Domain",
      "outputs": [
        {
          "internalType": "bytes1",
          "name": "",
          "type": "bytes1"
        },
        {
          "internalType": "string",
          "name": "",
          "type": "string"
        },
        {
          "internalType": "string",
          "name": "",
          "type": "string"
        },
        {
          "internalType": "uint256",
          "name": "",
          "type": "uint256"
        },
        {
          "internalType": "address",
          "name": "",
          "type": "address"
        },
        {
          "internalType": "bytes32",
          "name": "",
          "type": "bytes32"
        },
        {
          "internalType": "uint256[]",
          "name": "",
          "type": "uint256[]"
        }
      ],
      "stateMutability": "view",
      "type": "function"
    },
    {
      "inputs": [
        {
          "internalType": "uint256",
          "name": "id",
          "type": "uint256"
        }
      ],
      "name": "getApproved",
      "outputs": [
        {
          "internalType": "address",
          "name": "",
          "type": "address"
        }
      ],
      "stateMutability": "view",
      "type": "function"
    },
    {
      "inputs": [],
      "name": "guardian",
      "outputs": [
        {
          "internalType": "address",
          "name": "g",
          "type": "address"
        }
      ],
      "stateMutability": "view",
      "type": "function"
    },
    {
      "inputs": [
        {
          "internalType": "address",
          "name": "owner",
          "type": "address"
        },
        {
          "internalType": "address",
          "name": "operator",
          "type": "address"
        }
      ],
      "name": "isApprovedForAll",
      "outputs": [
        {
          "internalType": "bool",
          "name": "isOperator",
          "type": "bool"
        }
      ],
      "stateMutability": "view",
      "type": "function"
    },
    {
      "inputs": [
        {
          "internalType": "address",
          "name": "to",
          "type": "address"
        },
        {
          "internalType": "bytes",
          "name": "musicBytecode",
          "type": "bytes"
        }
      ],
      "name": "mint",
      "outputs": [],
      "stateMutability": "nonpayable",
      "type": "function"
    },
    {
      "inputs": [],
      "name": "minter",
      "outputs": [
        {
          "internalType": "address",
          "name": "",
          "type": "address"
        }
      ],
      "stateMutability": "view",
      "type": "function"
    },
    {
      "inputs": [],
      "name": "minterAdmin",
      "outputs": [
        {
          "internalType": "address",
          "name": "",
          "type": "address"
        }
      ],
      "stateMutability": "view",
      "type": "function"
    },
    {
      "inputs": [
        {
          "internalType": "bytes[]",
          "name": "data",
          "type": "bytes[]"
        }
      ],
      "name": "multicall",
      "outputs": [
        {
          "internalType": "bytes[]",
          "name": "results",
          "type": "bytes[]"
        }
      ],
      "stateMutability": "payable",
      "type": "function"
    },
    {
      "inputs": [],
      "name": "name",
      "outputs": [
        {
          "internalType": "string",
          "name": "",
          "type": "string"
        }
      ],
      "stateMutability": "pure",
      "type": "function"
    },
    {
      "inputs": [
        {
          "internalType": "uint256",
          "name": "id",
          "type": "uint256"
        }
      ],
      "name": "nonces",
      "outputs": [
        {
          "internalType": "uint256",
          "name": "nonce",
          "type": "uint256"
        }
      ],
      "stateMutability": "view",
      "type": "function"
    },
    {
      "inputs": [
        {
          "internalType": "address",
          "name": "account",
          "type": "address"
        }
      ],
      "name": "nonces",
      "outputs": [
        {
          "internalType": "uint256",
          "name": "nonce",
          "type": "uint256"
        }
      ],
      "stateMutability": "view",
      "type": "function"
    },
    {
      "inputs": [
        {
          "internalType": "uint256[]",
          "name": "ids",
          "type": "uint256[]"
        }
      ],
      "name": "ownerAndLastTransferBlockNumberList",
      "outputs": [
        {
          "components": [
            {
              "internalType": "address",
              "name": "owner",
              "type": "address"
            },
            {
              "internalType": "uint256",
              "name": "lastTransferBlockNumber",
              "type": "uint256"
            }
          ],
          "internalType": "struct ERC721.OwnerData[]",
          "name": "ownersData",
          "type": "tuple[]"
        }
      ],
      "stateMutability": "view",
      "type": "function"
    },
    {
      "inputs": [
        {
          "internalType": "uint256",
          "name": "id",
          "type": "uint256"
        }
      ],
      "name": "ownerOf",
      "outputs": [
        {
          "internalType": "address",
          "name": "owner",
          "type": "address"
        }
      ],
      "stateMutability": "view",
      "type": "function"
    },
    {
      "inputs": [
        {
          "internalType": "address",
          "name": "spender",
          "type": "address"
        },
        {
          "internalType": "uint256",
          "name": "tokenId",
          "type": "uint256"
        },
        {
          "internalType": "uint256",
          "name": "deadline",
          "type": "uint256"
        },
        {
          "internalType": "bytes",
          "name": "sig",
          "type": "bytes"
        }
      ],
      "name": "permit",
      "outputs": [],
      "stateMutability": "nonpayable",
      "type": "function"
    },
    {
      "inputs": [
        {
          "internalType": "address",
          "name": "signer",
          "type": "address"
        },
        {
          "internalType": "address",
          "name": "spender",
          "type": "address"
        },
        {
          "internalType": "uint256",
          "name": "deadline",
          "type": "uint256"
        },
        {
          "internalType": "bytes",
          "name": "sig",
          "type": "bytes"
        }
      ],
      "name": "permitForAll",
      "outputs": [],
      "stateMutability": "nonpayable",
      "type": "function"
    },
    {
      "inputs": [],
      "name": "royaltyAdmin",
      "outputs": [
        {
          "internalType": "address",
          "name": "",
          "type": "address"
        }
      ],
      "stateMutability": "view",
      "type": "function"
    },
    {
      "inputs": [
        {
          "internalType": "uint256",
          "name": "",
          "type": "uint256"
        },
        {
          "internalType": "uint256",
          "name": "salePrice",
          "type": "uint256"
        }
      ],
      "name": "royaltyInfo",
      "outputs": [
        {
          "internalType": "address",
          "name": "receiver",
          "type": "address"
        },
        {
          "internalType": "uint256",
          "name": "royaltyAmount",
          "type": "uint256"
        }
      ],
      "stateMutability": "view",
      "type": "function"
    },
    {
      "inputs": [
        {
          "internalType": "address",
          "name": "from",
          "type": "address"
        },
        {
          "internalType": "address",
          "name": "to",
          "type": "address"
        },
        {
          "internalType": "uint256",
          "name": "id",
          "type": "uint256"
        }
      ],
      "name": "safeTransferFrom",
      "outputs": [],
      "stateMutability": "nonpayable",
      "type": "function"
    },
    {
      "inputs": [
        {
          "internalType": "address",
          "name": "from",
          "type": "address"
        },
        {
          "internalType": "address",
          "name": "to",
          "type": "address"
        },
        {
          "internalType": "uint256",
          "name": "id",
          "type": "uint256"
        },
        {
          "internalType": "bytes",
          "name": "data",
          "type": "bytes"
        }
      ],
      "name": "safeTransferFrom",
      "outputs": [],
      "stateMutability": "nonpayable",
      "type": "function"
    },
    {
      "inputs": [
        {
          "internalType": "address",
          "name": "operator",
          "type": "address"
        },
        {
          "internalType": "bool",
          "name": "approved",
          "type": "bool"
        }
      ],
      "name": "setApprovalForAll",
      "outputs": [],
      "stateMutability": "nonpayable",
      "type": "function"
    },
    {
      "inputs": [
        {
          "internalType": "address",
          "name": "newGuardian",
          "type": "address"
        }
      ],
      "name": "setGuardian",
      "outputs": [],
      "stateMutability": "nonpayable",
      "type": "function"
    },
    {
      "inputs": [
        {
          "internalType": "address",
          "name": "newMinter",
          "type": "address"
        }
      ],
      "name": "setMinter",
      "outputs": [],
      "stateMutability": "nonpayable",
      "type": "function"
    },
    {
      "inputs": [
        {
          "internalType": "address",
          "name": "newMinterAdmin",
          "type": "address"
        }
      ],
      "name": "setMinterAdmin",
      "outputs": [],
      "stateMutability": "nonpayable",
      "type": "function"
    },
    {
      "inputs": [
        {
          "internalType": "address",
          "name": "newRoyaltyAdmin",
          "type": "address"
        }
      ],
      "name": "setRoyaltyAdmin",
      "outputs": [],
      "stateMutability": "nonpayable",
      "type": "function"
    },
    {
      "inputs": [
        {
          "internalType": "address",
          "name": "newReceiver",
          "type": "address"
        },
        {
          "internalType": "uint96",
          "name": "royaltyPer10Thousands",
          "type": "uint96"
        }
      ],
      "name": "setRoyaltyParameters",
      "outputs": [],
      "stateMutability": "nonpayable",
      "type": "function"
    },
    {
      "inputs": [
        {
          "internalType": "bytes4",
          "name": "id",
          "type": "bytes4"
        }
      ],
      "name": "supportsInterface",
      "outputs": [
        {
          "internalType": "bool",
          "name": "",
          "type": "bool"
        }
      ],
      "stateMutability": "view",
      "type": "function"
    },
    {
      "inputs": [],
      "name": "symbol",
      "outputs": [
        {
          "internalType": "string",
          "name": "",
          "type": "string"
        }
      ],
      "stateMutability": "pure",
      "type": "function"
    },
    {
      "inputs": [],
      "name": "theBleepMachine",
      "outputs": [
        {
          "internalType": "contract TheBleepMachine",
          "name": "",
          "type": "address"
        }
      ],
      "stateMutability": "view",
      "type": "function"
    },
    {
      "inputs": [
        {
          "internalType": "uint256",
          "name": "id",
          "type": "uint256"
        }
      ],
      "name": "tokenNonces",
      "outputs": [
        {
          "internalType": "uint256",
          "name": "nonce",
          "type": "uint256"
        }
      ],
      "stateMutability": "view",
      "type": "function"
    },
    {
      "inputs": [
        {
          "internalType": "uint256",
          "name": "id",
          "type": "uint256"
        }
      ],
      "name": "tokenURI",
      "outputs": [
        {
          "internalType": "string",
          "name": "str",
          "type": "string"
        }
      ],
      "stateMutability": "nonpayable",
      "type": "function"
    },
    {
      "inputs": [
        {
          "internalType": "address",
          "name": "from",
          "type": "address"
        },
        {
          "internalType": "address",
          "name": "to",
          "type": "address"
        },
        {
          "internalType": "uint256",
          "name": "id",
          "type": "uint256"
        }
      ],
      "name": "transferFrom",
      "outputs": [],
      "stateMutability": "nonpayable",
      "type": "function"
    }
  ],
  "transactionHash": "0x4f9448300b7bac4c97c40b2073d27fe6137065887d4635586e787184d4356c9d",
  "args": [
    "0x8A890126c932d49c2D761dcc6a8E9F7A7a8e40B5",
    "0x9a3b0D0B08fb71F1a5E0F248Ad3a42C341f7837c",
    "0xE53cd71271AcAdbeb0f64d9c8C62bBdDc8cA9e66",
    "0x9a3b0D0B08fb71F1a5E0F248Ad3a42C341f7837c",
    50,
    "0xE53cd71271AcAdbeb0f64d9c8C62bBdDc8cA9e66"
  ],
  "numDeployments": 4,
  "solcInputHash": "deb4a0f943399ab93cf846f577548e70",
  "bytecode": "0x60e06040523480156200001157600080fd5b506040516200530a3803806200530a8339810160408190526200003491620002ae565b466080819052839083908390879089906200004f8162000202565b60a052506001600160a01b03811615620000c4577f8fbcb4375b910093bcf636b6b2f26b26eda2a29ef5a8ee7de44b5743c3bf9a278190556040516001600160a01b03821681527fe6c09ffe4572dc9ceaa5ddde4ae41befa655d6fdfe8052077af0970f700e942e9060200160405180910390a15b506001600160a01b038116156200012757600580546001600160a01b0319166001600160a01b0383169081179091556040519081527fb8e0165b6664b7af8f9563c66e3d6b987c2d06fe192539d7123a0777b41a7c899060200160405180910390a15b506001600160a01b038116156200018a57600880546001600160a01b0319166001600160a01b0383169081179091556040519081527fb17416b845258d996b82b66c3c9166088ec5edf592b35fcce47c62a73d61ef419060200160405180910390a15b6001600160a01b038316600160a01b6001600160601b03841690810282176007556040805192835260208301919091527fb744dc8fdcd17f69ad99fdabe0fe0ed8fea41193727ed2123d997550eaae918f910160405180910390a15050506001600160a01b0390951660c052506200034d9350505050565b60007f8cad95687ba82c2ce50e74f7b754645e5117c3a5bec8151c0726d5857980a8666200024e60408051808201909152600b81526a426c65657020426561747360a81b602082015290565b80516020918201206040805192830193909352918101919091526060810183905230608082015260a001604051602081830303815290604052805190602001209050919050565b6001600160a01b0381168114620002ab57600080fd5b50565b60008060008060008060c08789031215620002c857600080fd5b8651620002d58162000295565b6020880151909650620002e88162000295565b6040880151909550620002fb8162000295565b60608801519094506200030e8162000295565b60808801519093506001600160601b03811681146200032c57600080fd5b60a08801519092506200033f8162000295565b809150509295509295509295565b60805160a05160c051614f866200038460003960008181610364015261182e01526000611e8301526000611e4e0152614f866000f3fe60806040526004361061024f5760003560e01c80637ba9638b11610138578063ab84ee6f116100b0578063b88d4fde1161007f578063e985e9c511610064578063e985e9c514610788578063f3945282146107d1578063fca3b5aa146107fe57600080fd5b8063b88d4fde14610748578063c87b56dd1461076857600080fd5b8063ab84ee6f146106c8578063ac9650d8146106e8578063adc5fcc214610708578063b510391f1461072857600080fd5b80638a0dac4a1161010757806399235f39116100ec57806399235f3914610668578063a22cb46514610688578063a754d48f146106a857600080fd5b80638a0dac4a1461060257806395d89b411461062257600080fd5b80637ba9638b146105645780637ecebe001461058457806384b0196e146105ba578063894e851f146105e257600080fd5b80632a55205a116101cb578063452a93201161019a5780636352211e1161017f5780636352211e1461050457806370a0823114610524578063745a41bc1461054457600080fd5b8063452a93201461049c578063585956d6146104d057600080fd5b80632a55205a146103f457806330adf81f146104335780633644e5151461046757806342842e0e1461047c57600080fd5b8063095ea7b311610222578063141a468c11610207578063141a468c1461038657806323b872dd146103b457806324d42fe7146103d457600080fd5b8063095ea7b3146103305780630dd74bd01461035257600080fd5b806301ffc9a71461025457806306fdde031461028957806307546172146102d8578063081812fc14610310575b600080fd5b34801561026057600080fd5b5061027461026f366004612b4d565b61081e565b60405190151581526020015b60405180910390f35b34801561029557600080fd5b5060408051808201909152600b81527f426c65657020426561747300000000000000000000000000000000000000000060208201525b6040516102809190612bba565b3480156102e457600080fd5b506006546102f8906001600160a01b031681565b6040516001600160a01b039091168152602001610280565b34801561031c57600080fd5b506102f861032b366004612bcd565b61082f565b34801561033c57600080fd5b5061035061034b366004612bfd565b6108c4565b005b34801561035e57600080fd5b506102f87f000000000000000000000000000000000000000000000000000000000000000081565b34801561039257600080fd5b506103a66103a1366004612bcd565b6109c7565b604051908152602001610280565b3480156103c057600080fd5b506103506103cf366004612c27565b610a39565b3480156103e057600080fd5b506103506103ef366004612c63565b610c69565b34801561040057600080fd5b5061041461040f366004612cab565b610dd7565b604080516001600160a01b039093168352602083019190915201610280565b34801561043f57600080fd5b506103a67f49ecf333e5b8c95c40fdafc95c1ad136e8914a8fb55e9dc8bb01eaa83a2df9ad81565b34801561047357600080fd5b506103a6610e2f565b34801561048857600080fd5b50610350610497366004612c27565b610e3e565b3480156104a857600080fd5b507f8fbcb4375b910093bcf636b6b2f26b26eda2a29ef5a8ee7de44b5743c3bf9a27546102f8565b3480156104dc57600080fd5b506103a67f29795620f29ed5790c945e3f419a1b3e2381aa07751ccffe5b81231639d74cd581565b34801561051057600080fd5b506102f861051f366004612bcd565b610e5e565b34801561053057600080fd5b506103a661053f366004612ccd565b610ebc565b34801561055057600080fd5b5061035061055f366004612dad565b610f30565b34801561057057600080fd5b5061035061057f366004612ccd565b61100d565b34801561059057600080fd5b506103a661059f366004612ccd565b6001600160a01b031660009081526004602052604090205490565b3480156105c657600080fd5b506105cf6110e0565b6040516102809796959493929190612e0e565b3480156105ee57600080fd5b506008546102f8906001600160a01b031681565b34801561060e57600080fd5b5061035061061d366004612ccd565b611158565b34801561062e57600080fd5b5060408051808201909152600381527f424253000000000000000000000000000000000000000000000000000000000060208201526102cb565b34801561067457600080fd5b50610350610683366004612ccd565b611239565b34801561069457600080fd5b506103506106a3366004612ec0565b611304565b3480156106b457600080fd5b506005546102f8906001600160a01b031681565b3480156106d457600080fd5b506103506106e3366004612ef1565b61130f565b6106fb6106f6366004612f86565b6113a5565b6040516102809190612fc8565b34801561071457600080fd5b506103a6610723366004612bcd565b6114fd565b34801561073457600080fd5b5061035061074336600461302a565b611508565b34801561075457600080fd5b50610350610763366004612ef1565b611573565b34801561077457600080fd5b506102cb610783366004612bcd565b61179d565b34801561079457600080fd5b506102746107a3366004613078565b6001600160a01b03918216600090815260026020908152604080832093909416825291909152205460ff1690565b3480156107dd57600080fd5b506107f16107ec366004612f86565b611aac565b60405161028091906130a2565b34801561080a57600080fd5b50610350610819366004612ccd565b611bc5565b600061082982611c80565b92915050565b600081815260208190526040812054600160ff1b808216146001600160a01b0382166108965760405162461bcd60e51b81526020600482015260116024820152702727a722ac24a9aa22a72a2faa27a5a2a760791b60448201526064015b60405180910390fd5b80156108ba575050506000908152600360205260409020546001600160a01b031690565b5060009392505050565b6000818152602081905260409020546affffffffffffffffffffff60a082901c166001600160a01b03821661092f5760405162461bcd60e51b81526020600482015260116024820152702727a722ac24a9aa22a72a2faa27a5a2a760791b604482015260640161088d565b336001600160a01b038316148061096957506001600160a01b038216600090815260026020908152604080832033845290915290205460ff165b6109b55760405162461bcd60e51b815260206004820152601560248201527f554e415554484f52495a45445f415050524f56414c0000000000000000000000604482015260640161088d565b6109c182828686611cd9565b50505050565b6000818152602081905260408120546affffffffffffffffffffff60a082901c166001600160a01b038216610a325760405162461bcd60e51b81526020600482015260116024820152702727a722ac24a9aa22a72a2faa27a5a2a760791b604482015260640161088d565b9392505050565b600081815260208190526040902054600160ff1b808216146001600160a01b038216610a9b5760405162461bcd60e51b81526020600482015260116024820152702727a722ac24a9aa22a72a2faa27a5a2a760791b604482015260640161088d565b846001600160a01b0316826001600160a01b031614610afc5760405162461bcd60e51b815260206004820152600960248201527f4e4f545f4f574e45520000000000000000000000000000000000000000000000604482015260640161088d565b6001600160a01b038416610b525760405162461bcd60e51b815260206004820152601260248201527f4e4f545f544f5f5a45524f414444524553530000000000000000000000000000604482015260640161088d565b306001600160a01b03851603610baa5760405162461bcd60e51b815260206004820152600b60248201527f4e4f545f544f5f54484953000000000000000000000000000000000000000000604482015260640161088d565b336001600160a01b03861614610c5757808015610bdd57506000838152600360205260409020546001600160a01b031633145b80610c0b57506001600160a01b038516600090815260026020908152604080832033845290915290205460ff165b610c575760405162461bcd60e51b815260206004820152601560248201527f554e415554484f52495a45445f5452414e534645520000000000000000000000604482015260640161088d565b610c62858585611daa565b5050505050565b6008546001600160a01b03163314610cb45760405162461bcd60e51b815260206004820152600e60248201526d1393d517d055551213d49256915160921b604482015260640161088d565b6032816bffffffffffffffffffffffff161115610d135760405162461bcd60e51b815260206004820152601060248201527f524f59414c54595f544f4f5f4849474800000000000000000000000000000000604482015260640161088d565b6007546001600160a01b038381169116141580610d5b57506007546bffffffffffffffffffffffff828116740100000000000000000000000000000000000000009092041614155b15610dd3576001600160a01b038216740100000000000000000000000000000000000000006bffffffffffffffffffffffff831690810282176007556040805192835260208301919091527fb744dc8fdcd17f69ad99fdabe0fe0ed8fea41193727ed2123d997550eaae918f91015b60405180910390a15b5050565b6007546001600160a01b0381169060009061271090610e1c907401000000000000000000000000000000000000000090046bffffffffffffffffffffffff1685613110565b610e269190613145565b90509250929050565b6000610e39611e49565b905090565b610e5983838360405180602001604052806000815250611573565b505050565b6000818152602081905260409020546001600160a01b038116610eb75760405162461bcd60e51b81526020600482015260116024820152702727a722ac24a9aa22a72a2faa27a5a2a760791b604482015260640161088d565b919050565b60006001600160a01b038216610f145760405162461bcd60e51b815260206004820152601260248201527f5a45524f5f414444524553535f4f574e45520000000000000000000000000000604482015260640161088d565b506001600160a01b031660009081526001602052604090205490565b42821015610f805760405162461bcd60e51b815260206004820152601760248201527f5045524d49545f444541444c494e455f45585049524544000000000000000000604482015260640161088d565b6000838152602081905260409020546affffffffffffffffffffff60a082901c166001600160a01b038216610feb5760405162461bcd60e51b81526020600482015260116024820152702727a722ac24a9aa22a72a2faa27a5a2a760791b604482015260640161088d565b610ff9828787878588611ea9565b61100582828888611cd9565b505050505050565b6008546001600160a01b031633148061102b575061102b3382611fd6565b6110685760405162461bcd60e51b815260206004820152600e60248201526d1393d517d055551213d49256915160921b604482015260640161088d565b6008546001600160a01b038281169116146110dd576008805473ffffffffffffffffffffffffffffffffffffffff19166001600160a01b0383169081179091556040519081527fb17416b845258d996b82b66c3c9166088ec5edf592b35fcce47c62a73d61ef41906020015b60405180910390a15b50565b60006060808280808346600d61112660408051808201909152600b81527f426c656570204265617473000000000000000000000000000000000000000000602082015290565b6040805160008082528183019092526020810182815260f89490941b9c929b5092995092975030965091945092509050565b7f8fbcb4375b910093bcf636b6b2f26b26eda2a29ef5a8ee7de44b5743c3bf9a2754336001600160a01b038216146111c35760405162461bcd60e51b815260206004820152600e60248201526d1393d517d055551213d49256915160921b604482015260640161088d565b816001600160a01b0316816001600160a01b031614610dd3577f8fbcb4375b910093bcf636b6b2f26b26eda2a29ef5a8ee7de44b5743c3bf9a278290556040516001600160a01b03831681527fe6c09ffe4572dc9ceaa5ddde4ae41befa655d6fdfe8052077af0970f700e942e90602001610dca565b6005546001600160a01b031633148061125757506112573382611fd6565b6112945760405162461bcd60e51b815260206004820152600e60248201526d1393d517d055551213d49256915160921b604482015260640161088d565b6005546001600160a01b038281169116146110dd576005805473ffffffffffffffffffffffffffffffffffffffff19166001600160a01b0383169081179091556040519081527fb8e0165b6664b7af8f9563c66e3d6b987c2d06fe192539d7123a0777b41a7c89906020016110d4565b610dd333838361203f565b4282101561135f5760405162461bcd60e51b815260206004820152601760248201527f5045524d49545f444541444c494e455f45585049524544000000000000000000604482015260640161088d565b6001600160a01b038416600090815260046020526040812080546113999287928792879290919061138f83613167565b91905055856120ca565b6109c18484600161203f565b60608167ffffffffffffffff8111156113c0576113c0612ce8565b6040519080825280602002602001820160405280156113f357816020015b60608152602001906001900390816113de5790505b50905060005b828110156114f6576000803086868581811061141757611417613181565b90506020028101906114299190613197565b6040516114379291906131fc565b600060405180830381855af49150503d8060008114611472576040519150601f19603f3d011682016040523d82523d6000602084013e611477565b606091505b5091509150816114c35760448151101561149057600080fd5b600481019050808060200190518101906114aa919061323c565b60405162461bcd60e51b815260040161088d9190612bba565b808484815181106114d6576114d6613181565b6020026020010181905250505080806114ee90613167565b9150506113f9565b5092915050565b6000610829826109c7565b8051602081111561155b5760405162461bcd60e51b815260206004820152600860248201527f544f4f5f4c4f4e47000000000000000000000000000000000000000000000000604482015260640161088d565b602082810151908290036008021c6109c181856121e7565b600082815260208190526040902054600160ff1b808216146001600160a01b0382166115d55760405162461bcd60e51b81526020600482015260116024820152702727a722ac24a9aa22a72a2faa27a5a2a760791b604482015260640161088d565b856001600160a01b0316826001600160a01b0316146116365760405162461bcd60e51b815260206004820152600960248201527f4e4f545f4f574e45520000000000000000000000000000000000000000000000604482015260640161088d565b6001600160a01b03851661168c5760405162461bcd60e51b815260206004820152601260248201527f4e4f545f544f5f5a45524f414444524553530000000000000000000000000000604482015260640161088d565b306001600160a01b038616036116e45760405162461bcd60e51b815260206004820152600b60248201527f4e4f545f544f5f54484953000000000000000000000000000000000000000000604482015260640161088d565b336001600160a01b038716146117915780801561171757506000848152600360205260409020546001600160a01b031633145b8061174557506001600160a01b038616600090815260026020908152604080832033845290915290205460ff165b6117915760405162461bcd60e51b815260206004820152601560248201527f554e415554484f52495a45445f5452414e534645520000000000000000000000604482015260640161088d565b61100586868686612313565b6060600060086117ac84612387565b816117b9576117b961312f565b04600890810293841b9391506000906117d483610100613285565b6117de9190613145565b67ffffffffffffffff8111156117f6576117f6612ce8565b6040519080825280601f01601f191660200182016040528015611820576020820181803683370190505b5090508360208201526118cc7f00000000000000000000000000000000000000000000000000000000000000006001600160a01b0316632c54e4fd836000620186a06040518463ffffffff1660e01b815260040161188093929190613298565b6000604051808303816000875af115801561189f573d6000803e3d6000fd5b505050506040513d6000823e601f3d908101601f191682016040526118c7919081019061323c565b6124c5565b6040516020016118dc91906132d9565b604051602081830303815290604052925060005b6040811015611aa4576000611906600283613145565b9050600086826020811061191c5761191c613181565b1a90507f3031323334353637383961626364656630303030303030303030303030303030600482901c60ff166020811061195857611958613181565b1a60f81b8661196885602e613110565b611973856016613110565b61197e9060a7614e40565b61198a90610917614e40565b6119949190614e40565b815181106119a4576119a4613181565b60200101907effffffffffffffffffffffffffffffffffffffffffffffffffffffffffffff1916908160001a9053507f3031323334353637383961626364656630303030303030303030303030303030600f821660208110611a0857611a08613181565b1a60f81b86611a1885602e613110565b611a23856016613110565b611a2e9060a7614e40565b611a3a90610917614e40565b611a4590602e614e40565b611a4f9190614e40565b81518110611a5f57611a5f613181565b60200101907effffffffffffffffffffffffffffffffffffffffffffffffffffffffffffff1916908160001a9053505050600281611a9d9190614e40565b90506118f0565b505050919050565b60608167ffffffffffffffff811115611ac757611ac7612ce8565b604051908082528060200260200182016040528015611b0c57816020015b6040805180820190915260008082526020820152815260200190600190039081611ae55790505b50905060005b828110156114f6576000806000868685818110611b3157611b31613181565b90506020020135815260200190815260200160002054905080838381518110611b5c57611b5c613181565b6020026020010151600001906001600160a01b031690816001600160a01b03168152505060a081901c6affffffffffffffffffffff16838381518110611ba457611ba4613181565b60209081029190910181015101525080611bbd81613167565b915050611b12565b6005546001600160a01b03163314611c105760405162461bcd60e51b815260206004820152600e60248201526d1393d517d055551213d49256915160921b604482015260640161088d565b6006546001600160a01b038281169116146110dd576006805473ffffffffffffffffffffffffffffffffffffffff19166001600160a01b0383169081179091556040519081527f726b590ef91a8c76ad05bbe91a57ef84605276528f49cd47d787f558a4e755b6906020016110d4565b6000611c8b82612661565b806108295750507fffffffff00000000000000000000000000000000000000000000000000000000167f2a55205a000000000000000000000000000000000000000000000000000000001490565b6001600160a01b038216611d0c57600081815260208190526040902060a084901b6001600160a01b038616179055611d63565b600081815260208181526040808320600160ff1b6001600160a01b0389811660a08a901b17919091179091556003909252909120805473ffffffffffffffffffffffffffffffffffffffff19169184169190911790555b80826001600160a01b0316856001600160a01b03167f8c5be1e5ebec7d5bd14f71427d1e84f3dd0314c0f7b2291e5b200ac8c7c3b92560405160405180910390a450505050565b6001600160a01b03808316600090815260016020819052604090912080549091019055831615611df5576001600160a01b038316600090815260016020526040902080546000190190555b6000818152602081905260408082204360a01b6001600160a01b0380871691821790925591518493918716917fddf252ad1be2c89b69c2b068fc378daa952ba7f163c4a11628f55a4df523b3ef91a4505050565b6000467f00000000000000000000000000000000000000000000000000000000000000008114611e8157611e7c816126f9565b611ea3565b7f00000000000000000000000000000000000000000000000000000000000000005b91505090565b6000611eb3610e2f565b604080517f49ecf333e5b8c95c40fdafc95c1ad136e8914a8fb55e9dc8bb01eaa83a2df9ad60208201526001600160a01b03891691810191909152606081018790526080810185905260a0810186905260c00160405160208183030381529060405280519060200120604051602001611f5e9291907f190100000000000000000000000000000000000000000000000000000000000081526002810192909252602282015260420190565b604051602081830303815290604052805190602001209050611f8187828461279d565b611fcd5760405162461bcd60e51b815260206004820152601160248201527f494e56414c49445f5349474e4154555245000000000000000000000000000000604482015260640161088d565b50505050505050565b7f8fbcb4375b910093bcf636b6b2f26b26eda2a29ef5a8ee7de44b5743c3bf9a27546000906001600160a01b038116158015906120245750806001600160a01b0316846001600160a01b0316145b801561203757506001600160a01b038316155b949350505050565b6001600160a01b0383811660008181526002602090815260408083209487168084529482529182902080547fffffffffffffffffffffffffffffffffffffffffffffffffffffffffffffff001686151590811790915591519182527f17307eab39ab6107e8899845ad3d59bd9653f200f220920489ca2b5937696c31910160405180910390a3505050565b60006120d4610e2f565b604080517f29795620f29ed5790c945e3f419a1b3e2381aa07751ccffe5b81231639d74cd560208201526001600160a01b03881691810191909152606081018590526080810186905260a001604051602081830303815290604052805190602001206040516020016121789291907f190100000000000000000000000000000000000000000000000000000000000081526002810192909252602282015260420190565b60405160208183030381529060405280519060200120905061219b86828461279d565b6110055760405162461bcd60e51b815260206004820152601160248201527f494e56414c49445f5349474e4154555245000000000000000000000000000000604482015260640161088d565b6001600160a01b03811661223d5760405162461bcd60e51b815260206004820152601260248201527f4e4f545f544f5f5a45524f414444524553530000000000000000000000000000604482015260640161088d565b306001600160a01b038216036122955760405162461bcd60e51b815260206004820152600b60248201527f4e4f545f544f5f54484953000000000000000000000000000000000000000000604482015260640161088d565b6000828152602081905260409020546001600160a01b038116156122fb5760405162461bcd60e51b815260206004820152600f60248201527f414c52454144595f435245415445440000000000000000000000000000000000604482015260640161088d565b610e5960008385604051806020016040528060008152505b61231e848484611daa565b6001600160a01b0383163b156109c15761233b3385858585612925565b6109c15760405162461bcd60e51b815260206004820152601860248201527f4552433732315f5452414e534645525f52454a45435445440000000000000000604482015260640161088d565b6000608082901c61010081156123bf5790925082907fffffffffffffffffffffffffffffffffffffffffffffffffffffffffffffff80015b604084901c915081156123d6579092508290603f19015b602084901c915081156123ed579092508290601f19015b601084901c915081156124225790925082907ffffffffffffffffffffffffffffffffffffffffffffffffffffffffffffffff0015b600884901c915081156124575790925082907ffffffffffffffffffffffffffffffffffffffffffffffffffffffffffffffff8015b600484901c9150811561248c5790925082907ffffffffffffffffffffffffffffffffffffffffffffffffffffffffffffffffc015b600284901c915081156124a3579092508290600119015b600184901c915081156124bb57600119019392505050565b6120378482613285565b606081516000036124e457505060408051602081019091526000815290565b6000604051806060016040528060408152602001614f1160409139905060006003845160026125139190614e40565b61251d9190613145565b612528906004613110565b90506000612537826020614e40565b67ffffffffffffffff81111561254f5761254f612ce8565b6040519080825280601f01601f191660200182016040528015612579576020820181803683370190505b509050818152600183018586518101602084015b818310156125e5576003830192508251603f8160121c168501518253600182019150603f81600c1c168501518253600182019150603f8160061c168501518253600182019150603f811685015182535060010161258d565b6003895106600181146125ff576002811461262b57612653565b7f3d3d000000000000000000000000000000000000000000000000000000000000600119830152612653565b7f3d000000000000000000000000000000000000000000000000000000000000006000198301525b509398975050505050505050565b60007fffffffff0000000000000000000000000000000000000000000000000000000082167f5604e22500000000000000000000000000000000000000000000000000000000148061082957507fffffffff0000000000000000000000000000000000000000000000000000000082167fefdb586b000000000000000000000000000000000000000000000000000000001492915050565b60007f8cad95687ba82c2ce50e74f7b754645e5117c3a5bec8151c0726d5857980a86661275660408051808201909152600b81527f426c656570204265617473000000000000000000000000000000000000000000602082015290565b80516020918201206040805192830193909352918101919091526060810183905230608082015260a001604051602081830303815290604052805190602001209050919050565b60008060006127ac85856129ed565b909250905060008160048111156127c5576127c5614e53565b1480156127e35750856001600160a01b0316826001600160a01b0316145b156127f357600192505050610a32565b600080876001600160a01b0316631626ba7e60e01b888860405160240161281b929190614e69565b60408051601f198184030181529181526020820180517bffffffffffffffffffffffffffffffffffffffffffffffffffffffff167fffffffff000000000000000000000000000000000000000000000000000000009094169390931790925290516128869190614e82565b600060405180830381855afa9150503d80600081146128c1576040519150601f19603f3d011682016040523d82523d6000602084013e6128c6565b606091505b50915091508180156128d9575080516020145b8015612919575080517f1626ba7e00000000000000000000000000000000000000000000000000000000906129179083016020908101908401614e9e565b145b98975050505050505050565b600080846001600160a01b031663150b7a02888887876040518563ffffffff1660e01b815260040161295a9493929190614eb7565b6020604051808303816000875af1158015612979573d6000803e3d6000fd5b505050506040513d601f19601f8201168201806040525081019061299d9190614ef3565b7fffffffff00000000000000000000000000000000000000000000000000000000167f150b7a02000000000000000000000000000000000000000000000000000000001491505095945050505050565b6000808251604103612a235760208301516040840151606085015160001a612a1787828585612a32565b94509450505050612a2b565b506000905060025b9250929050565b6000807f7fffffffffffffffffffffffffffffff5d576e7357a4501ddfe92f46681b20a0831115612a695750600090506003612b16565b8460ff16601b14158015612a8157508460ff16601c14155b15612a925750600090506004612b16565b6040805160008082526020820180845289905260ff881692820192909252606081018690526080810185905260019060a0016020604051602081039080840390855afa158015612ae6573d6000803e3d6000fd5b5050604051601f1901519150506001600160a01b038116612b0f57600060019250925050612b16565b9150600090505b94509492505050565b7fffffffff00000000000000000000000000000000000000000000000000000000811681146110dd57600080fd5b600060208284031215612b5f57600080fd5b8135610a3281612b1f565b60005b83811015612b85578181015183820152602001612b6d565b50506000910152565b60008151808452612ba6816020860160208601612b6a565b601f01601f19169290920160200192915050565b602081526000610a326020830184612b8e565b600060208284031215612bdf57600080fd5b5035919050565b80356001600160a01b0381168114610eb757600080fd5b60008060408385031215612c1057600080fd5b612c1983612be6565b946020939093013593505050565b600080600060608486031215612c3c57600080fd5b612c4584612be6565b9250612c5360208501612be6565b9150604084013590509250925092565b60008060408385031215612c7657600080fd5b612c7f83612be6565b915060208301356bffffffffffffffffffffffff81168114612ca057600080fd5b809150509250929050565b60008060408385031215612cbe57600080fd5b50508035926020909101359150565b600060208284031215612cdf57600080fd5b610a3282612be6565b634e487b7160e01b600052604160045260246000fd5b604051601f8201601f1916810167ffffffffffffffff81118282101715612d2757612d27612ce8565b604052919050565b600067ffffffffffffffff821115612d4957612d49612ce8565b50601f01601f191660200190565b600082601f830112612d6857600080fd5b8135612d7b612d7682612d2f565b612cfe565b818152846020838601011115612d9057600080fd5b816020850160208301376000918101602001919091529392505050565b60008060008060808587031215612dc357600080fd5b612dcc85612be6565b93506020850135925060408501359150606085013567ffffffffffffffff811115612df657600080fd5b612e0287828801612d57565b91505092959194509250565b7fff00000000000000000000000000000000000000000000000000000000000000881681526000602060e081840152612e4a60e084018a612b8e565b8381036040850152612e5c818a612b8e565b606085018990526001600160a01b038816608086015260a0850187905284810360c0860152855180825283870192509083019060005b81811015612eae57835183529284019291840191600101612e92565b50909c9b505050505050505050505050565b60008060408385031215612ed357600080fd5b612edc83612be6565b915060208301358015158114612ca057600080fd5b60008060008060808587031215612f0757600080fd5b612f1085612be6565b9350612f1e60208601612be6565b925060408501359150606085013567ffffffffffffffff811115612df657600080fd5b60008083601f840112612f5357600080fd5b50813567ffffffffffffffff811115612f6b57600080fd5b6020830191508360208260051b8501011115612a2b57600080fd5b60008060208385031215612f9957600080fd5b823567ffffffffffffffff811115612fb057600080fd5b612fbc85828601612f41565b90969095509350505050565b6000602080830181845280855180835260408601915060408160051b870101925083870160005b8281101561301d57603f1988860301845261300b858351612b8e565b94509285019290850190600101612fef565b5092979650505050505050565b6000806040838503121561303d57600080fd5b61304683612be6565b9150602083013567ffffffffffffffff81111561306257600080fd5b61306e85828601612d57565b9150509250929050565b6000806040838503121561308b57600080fd5b61309483612be6565b9150610e2660208401612be6565b602080825282518282018190526000919060409081850190868401855b828110156130ed57815180516001600160a01b031685528601518685015292840192908501906001016130bf565b5091979650505050505050565b634e487b7160e01b600052601160045260246000fd5b600081600019048311821515161561312a5761312a6130fa565b500290565b634e487b7160e01b600052601260045260246000fd5b60008261316257634e487b7160e01b600052601260045260246000fd5b500490565b6000600019820361317a5761317a6130fa565b5060010190565b634e487b7160e01b600052603260045260246000fd5b60008083357fffffffffffffffffffffffffffffffffffffffffffffffffffffffffffffffe18436030181126131cc57600080fd5b83018035915067ffffffffffffffff8211156131e757600080fd5b602001915036819003821315612a2b57600080fd5b8183823760009101908152919050565b600061321a612d7684612d2f565b905082815283838301111561322e57600080fd5b610a32836020830184612b6a565b60006020828403121561324e57600080fd5b815167ffffffffffffffff81111561326557600080fd5b8201601f8101841361327657600080fd5b6120378482516020840161320c565b81810381811115610829576108296130fa565b6060815260006132ab6060830186612b8e565b60208301949094525060400152919050565b600081516132cf818560208601612b6a565b9290920192915050565b7f646174613a6170706c69636174696f6e2f6a736f6e2c7b226e616d65223a225481527f6865253230426c6565702532304d616368696e65222c2264657363726970746960208201527f6f6e223a22546865253230426c6565702532304d616368696e6525323070726f60408201527f64756365732532306d7573696325323066726f6d25323045564d25323062797460608201527f65636f64652e222c2265787465726e616c5f75726c223a22544f444f222c226960808201527f6d616765223a220000000000000000000000000000000000000000000000000060a08201527f646174613a696d6167652f7376672b786d6c3b636861727365743d757466382c60a78201527f3c7376672532353230786d6c6e733d27687474703a2f2f7777772e77332e6f7260c78201527f672f323030302f73766727253235323073686170652d72656e646572696e673d60e78201527f276372697370456467657327253235323077696474683d2735313227253235326101078201527f306865696768743d27353132273e3c7374796c653e2a7b6261636b67726f756e6101278201527f642d636f6c6f723a77686974657d2e627b616e696d6174696f6e3a62612532356101478201527f323031732532353230737465707328352c7374617274292532353230696e66696101678201527f6e6974653b2d7765626b69742d616e696d6174696f6e3a6261253235323031736101878201527f2532353230737465707328352c7374617274292532353230696e66696e6974656101a78201527f3b7d406b65796672616d6573253235323062617b746f7b7669736962696c69746101c78201527f793a2068696464656e3b7d7d402d7765626b69742d6b65796672616d657325326101e78201527f35323062617b746f7b7669736962696c6974793a68696464656e3b7d7d2e62306102078201527f317b20616e696d6174696f6e2d64656c61793a2e303331737d2e6230327b616e6102278201527f696d6174696f6e2d64656c61793a2e303632737d2e6230337b616e696d6174696102478201527f6f6e2d64656c61793a2e303933737d2e6230347b616e696d6174696f6e2d64656102678201527f6c61793a2e313234737d2e6230357b616e696d6174696f6e2d64656c61793a2e6102878201527f313535737d2e6230367b616e696d6174696f6e2d64656c61793a2e313836737d6102a78201527f2e6230377b616e696d6174696f6e2d64656c61793a2e323137737d2e6230387b6102c78201527f616e696d6174696f6e2d64656c61793a2e323438737d2e6230397b616e696d616102e78201527f74696f6e2d64656c61793a2e323739737d2e6231307b616e696d6174696f6e2d6103078201527f64656c61793a2e333130737d2e6231317b616e696d6174696f6e2d64656c61796103278201527f3a2e333432737d2e6231327b616e696d6174696f6e2d64656c61793a2e3337336103478201527f737d2e6231337b616e696d6174696f6e2d64656c61793a2e343033737d2e62316103678201527f347b616e696d6174696f6e2d64656c61793a2e343334737d2e6231357b616e696103878201527f6d6174696f6e2d64656c61793a2e343635737d2e6231367b616e696d6174696f6103a78201527f6e2d64656c61793a2e343936737d2e6231377b616e696d6174696f6e2d64656c6103c78201527f61793a2e353237737d2e6231387b616e696d6174696f6e2d64656c61793a2e356103e78201527f3538737d2e6231397b616e696d6174696f6e2d64656c61793a2e353839737d2e6104078201527f6232307b616e696d6174696f6e2d64656c61793a2e363230737d2e6232317b616104278201527f6e696d6174696f6e2d64656c61793a2e363531737d2e6232327b616e696d61746104478201527f696f6e2d64656c61793a2e363832737d2e6232337b616e696d6174696f6e2d646104678201527f656c61793a2e373133737d2e6232347b616e696d6174696f6e2d64656c61793a6104878201527f2e373434737d2e6232357b616e696d6174696f6e2d64656c61793a2e373735736104a78201527f7d2e6232367b616e696d6174696f6e2d64656c61793a2e383036737d2e6232376104c78201527f7b616e696d6174696f6e2d64656c61793a2e383337737d2e6232387b616e696d6104e78201527f6174696f6e2d64656c61793a2e383638737d2e6232397b616e696d6174696f6e6105078201527f2d64656c61793a2e383939737d2e6233307b616e696d6174696f6e2d64656c616105278201527f793a2e393330737d2e6233317b616e696d6174696f6e2d64656c61793a2e39366105478201527f31737d2e6233327b616e696d6174696f6e2d64656c61793a2e393932737d3c2f6105678201527f7374796c653e3c646566733e3c70617468253235323069643d275a27253235326105878201527f30643d274d302c3068317631682d317a272f3e3c757365253235323069643d276105a78201527f30272532353230687265663d2725323532335a27253235323066696c6c3d27256105c78201527f32353233303030633234272f3e3c757365253235323069643d273127253235326105e78201527f30687265663d2725323532335a27253235323066696c6c3d27253235323339656106078201527f30393632272f3e3c757365253235323069643d2732272532353230687265663d6106278201527f2725323532335a27253235323066696c6c3d272532353233666631633361272f6106478201527f3e3c757365253235323069643d2733272532353230687265663d2725323532336106678201527f5a27253235323066696c6c3d272532353233626330623232272f3e3c757365256106878201527f3235323069643d2734272532353230687265663d2725323532335a27253235326106a78201527f3066696c6c3d272532353233666639393163272f3e3c757365253235323069646106c78201527f3d2735272532353230687265663d2725323532335a27253235323066696c6c3d6106e78201527f272532353233633136613030272f3e3c757365253235323069643d27362725326107078201527f353230687265663d2725323532335a27253235323066696c6c3d2725323532336107278201527f666665383163272f3e3c757365253235323069643d27372725323532306872656107478201527f663d2725323532335a27253235323066696c6c3d2725323532333965386230306107678201527f272f3e3c757365253235323069643d2738272532353230687265663d272532356107878201527f32335a27253235323066696c6c3d272532353233323365343233272f3e3c75736107a78201527f65253235323069643d2739272532353230687265663d2725323532335a2725326107c78201527f35323066696c6c3d272532353233303039393030272f3e3c75736525323532306107e78201527f69643d2761272532353230687265663d2725323532335a27253235323066696c6108078201527f6c3d272532353233316164646530272f3e3c757365253235323069643d2762276108278201527f2532353230687265663d2725323532335a27253235323066696c6c3d272532356108478201527f3233303038373839272f3e3c757365253235323069643d2763272532353230686108678201527f7265663d2725323532335a27253235323066696c6c3d272532353233336439376108878201527f6666272f3e3c757365253235323069643d2764272532353230687265663d27256108a78201527f323532335a27253235323066696c6c3d272532353233336535636130272f3e3c6108c78201527f757365253235323069643d2765272532353230687265663d2725323532335a276108e78201527f253235323066696c6c3d272532353233383331626639272f3e3c7573652532356109078201527f323069643d2766272532353230687265663d2725323532335a272532353230666109278201527f696c6c3d272532353233353232393832272f3e3c2f646566733e3c67253235326109478201527f307472616e73666f726d3d277363616c6528363429273e3c75736525323532306109678201527f783d273030272532353230636c6173733d2762253235323062303127253235326109878201527f30793d273030272532353230687265663d27253235323330272f3e3c757365256109a78201527f32353230783d273031272532353230793d273030272532353230687265663d276109c78201527f253235323330272f3e3c7573652532353230783d273032272532353230636c616109e78201527f73733d27622532353230623032272532353230793d2730302725323532306872610a078201527f65663d27253235323330272f3e3c7573652532353230783d2730332725323532610a278201527f30793d273030272532353230687265663d27253235323330272f3e3c75736525610a478201527f32353230783d273034272532353230636c6173733d2762253235323062303327610a678201527f2532353230793d273030272532353230687265663d27253235323330272f3e3c610a878201527f7573652532353230783d273035272532353230793d2730302725323532306872610aa78201527f65663d27253235323330272f3e3c7573652532353230783d2730362725323532610ac78201527f30636c6173733d27622532353230623034272532353230793d27303027253235610ae78201527f3230687265663d27253235323330272f3e3c7573652532353230783d27303727610b078201527f2532353230793d273030272532353230687265663d27253235323330272f3e3c610b278201527f7573652532353230783d273030272532353230636c6173733d27622532353230610b478201527f623035272532353230793d273031272532353230687265663d27253235323330610b678201527f272f3e3c7573652532353230783d273031272532353230793d27303127253235610b878201527f3230687265663d27253235323330272f3e3c7573652532353230783d27303227610ba78201527f2532353230636c6173733d27622532353230623036272532353230793d273031610bc782015260007f272532353230687265663d27253235323330272f3e3c7573652532353230783d80610be78401527f273033272532353230793d273031272532353230687265663d27253235323330610c078401527f272f3e3c7573652532353230783d273034272532353230636c6173733d27622580610c278501527f32353230623037272532353230793d273031272532353230687265663d272532610c478501527f35323330272f3e3c7573652532353230783d273035272532353230793d273031610c6785015281610c878501527f273036272532353230636c6173733d2762253235323062303827253235323079610ca78501527f3d273031272532353230687265663d27253235323330272f3e3c757365253235610cc78501527f3230783d273037272532353230793d273031272532353230687265663d272532610ce78501527f35323330272f3e3c7573652532353230783d273030272532353230636c61737380610d078601527f3d27622532353230623039272532353230793d27303227253235323068726566610d278601527f3d27253235323330272f3e3c7573652532353230783d2730312725323532307980610d478701527f3d273032272532353230687265663d27253235323330272f3e3c757365253235610d678701527f3230783d273032272532353230636c6173733d27622532353230623130272532610d878701527f353230793d273032272532353230687265663d27253235323330272f3e3c757380610da78801527f652532353230783d273033272532353230793d27303227253235323068726566610dc78801527f3d27253235323330272f3e3c7573652532353230783d2730342725323532306380610de78901527f6c6173733d27622532353230623131272532353230793d273032272532353230610e078901527f687265663d27253235323330272f3e3c7573652532353230783d27303527253280610e278a015282610e478a01527f652532353230783d273036272532353230636c6173733d276225323532306231610e678a01527f32272532353230793d273032272532353230687265663d27253235323330272f610e878a01527f3e3c7573652532353230783d273037272532353230793d273032272532353230610ea78a01527f687265663d27253235323330272f3e3c7573652532353230783d273030272532925082610ec78a01527f353230636c6173733d27622532353230623133272532353230793d2730332725610ee78a01527f32353230687265663d27253235323330272f3e3c7573652532353230783d273080610f078b01527f31272532353230793d273033272532353230687265663d27253235323330272f610f278b01527f3e3c7573652532353230783d273032272532353230636c6173733d276225323580610f478c01527f3230623134272532353230793d273033272532353230687265663d2725323532610f678c01527f3330272f3e3c7573652532353230783d273033272532353230793d2730332725610f878c015281610fa78c01527f34272532353230636c6173733d27622532353230623135272532353230793d27610fc78c01527f3033272532353230687265663d27253235323330272f3e3c757365253235323080610fe78d01527f783d273035272532353230793d273033272532353230687265663d27253235326110078d01527f3330272f3e3c7573652532353230783d273036272532353230636c6173733d27806110278e01527f622532353230623136272532353230793d273033272532353230687265663d276110478e01527f253235323330272f3e3c7573652532353230783d273037272532353230793d27806110678f0152826110878f01527f783d273030272532353230636c6173733d2762253235323062313727253235326110a78f01527f30793d273034272532353230687265663d27253235323330272f3e3c757365259250826110c78f01527f32353230783d273031272532353230793d273034272532353230687265663d276110e78f01527f253235323330272f3e3c7573652532353230783d273032272532353230636c616111078f01527f73733d27622532353230623138272532353230793d27303427253235323068726111278f01527f65663d27253235323330272f3e3c7573652532353230783d27303327253235326111478f0152826111678f01527f32353230783d273034272532353230636c6173733d27622532353230623139276111878f01527f2532353230793d273034272532353230687265663d27253235323330272f3e3c9250826111a78f01527f7573652532353230783d273035272532353230793d27303427253235323068726111c78f01527f65663d27253235323330272f3e3c7573652532353230783d27303627253235326111e78f01527f30636c6173733d27622532353230623230272532353230793d273034272532356112078f01527f3230687265663d27253235323330272f3e3c7573652532353230783d273037276112278f0152826112478f01527f7573652532353230783d273030272532353230636c6173733d276225323532306112678f01527f623231272532353230793d273035272532353230687265663d272532353233306112878f01527f272f3e3c7573652532353230783d273031272532353230793d273035272532356112a78f01527f3230687265663d27253235323330272f3e3c7573652532353230783d273032276112c78f01527f2532353230636c6173733d27622532353230623232272532353230793d2730356112e78f01528b6113078f01527f273033272532353230793d273035272532353230687265663d272532353233306113278f01528a6113478f01527f32353230623233272532353230793d273035272532353230687265663d2725326113678f01527f35323330272f3e3c7573652532353230783d273035272532353230793d2730356113878f01528b6113a78f01527f273036272532353230636c6173733d27622532353230623234272532353230796113c78f01527f3d273035272532353230687265663d27253235323330272f3e3c7573652532356113e78f01527f3230783d273037272532353230793d273035272532353230687265663d2725326114078f0152896114278f01527f3d27622532353230623235272532353230793d273036272532353230687265666114478f0152886114678f01527f3d273036272532353230687265663d27253235323330272f3e3c7573652532356114878f01527f3230783d273032272532353230636c6173733d276225323532306232362725326114a78f01527f353230793d273036272532353230687265663d27253235323330272f3e3c75739b508b6114c78f01527f652532353230783d273033272532353230793d273036272532353230687265666114e78f0152866115078f01527f6c6173733d27622532353230623237272532353230793d2730362725323532306115278f0152856115478f01528b6115678f01527f652532353230783d273036272532353230636c6173733d2762253235323062326115878f01527f38272532353230793d273036272532353230687265663d27253235323330272f6115a78f01527f3e3c7573652532353230783d273037272532353230793d2730362725323532306115c78f0152876115e78f01527f353230636c6173733d27622532353230623239272532353230793d27303727256116078f0152846116278f01527f31272532353230793d273037272532353230687265663d27253235323330272f6116478f0152836116678f01527f3230623330272532353230793d273037272532353230687265663d27253235326116878f01527f3330272f3e3c7573652532353230783d273033272532353230793d27303727256116a78f0152846116c78f01527f34272532353230636c6173733d27622532353230623331272532353230793d276116e78f01527f3037272532353230687265663d27253235323330272f3e3c75736525323532306117078f01527f783d273035272532353230793d273037272532353230687265663d27253235326117278f0152816117478f01527f622532353230623332272532353230793d273037272532353230687265663d276117678f0152806117878f01525050505050505050505050507f3037272532353230687265663d27253235323330272f3e3c2f673e3c2f7376676117a78301527f3e000000000000000000000000000000000000000000000000000000000000006117c7830152614e13614e0d6117c884017f222c22616e696d6174696f6e5f75726c223a22646174613a617564696f2f776181527f763b6261736536342c0000000000000000000000000000000000000000000000602082015260290190565b846132bd565b7f227d00000000000000000000000000000000000000000000000000000000000081526002019392505050565b80820180821115610829576108296130fa565b634e487b7160e01b600052602160045260246000fd5b8281526040602082015260006120376040830184612b8e565b60008251614e94818460208701612b6a565b9190910192915050565b600060208284031215614eb057600080fd5b5051919050565b60006001600160a01b03808716835280861660208401525083604083015260806060830152614ee96080830184612b8e565b9695505050505050565b600060208284031215614f0557600080fd5b8151610a3281612b1f56fe4142434445464748494a4b4c4d4e4f505152535455565758595a6162636465666768696a6b6c6d6e6f707172737475767778797a303132333435363738392b2fa2646970667358221220a3089e01732213f1836293630d52b124ebf8d5dc0be088bd807f2bbfe31a563b64736f6c63430008100033",
  "devdoc": {
    "kind": "dev",
    "methods": {
      "approve(address,uint256)": {
        "params": {
          "id": "The id of the token.",
          "operator": "The address receiving the approval."
        }
      },
      "balanceOf(address)": {
        "params": {
          "owner": "The address to look for."
        },
        "returns": {
          "balance": "The number of tokens owned by the address."
        }
      },
      "constructor": {
        "details": "Setup the roles",
        "params": {
          "bleepMachine": "the Bleep Machine that generate the music",
          "imitialRoyaltyPer10Thousands": "amount of royalty in 10,000 basis point",
          "initialGuardian": "guardian able to immortalize rules",
          "initialMinterAdmin": "admin able to set the minter contract.",
          "initialRoyaltyAdmin": "admin able to update the royalty receiver and rates.",
          "initialRoyaltyReceiver": "receiver of royalties"
        }
      },
      "getApproved(uint256)": {
        "params": {
          "id": "The id of the token."
        },
        "returns": {
          "_0": "The address of the operator."
        }
      },
      "isApprovedForAll(address,address)": {
        "params": {
          "operator": "The address of the operator.",
          "owner": "The address of the owner."
        },
        "returns": {
          "isOperator": "The status of the approval."
        }
      },
      "multicall(bytes[])": {
        "details": "The `msg.value` should not be trusted for any method callable from multicall.",
        "params": {
          "data": "The encoded function data for each of the calls to make to this contract."
        },
        "returns": {
          "results": "The results from each of the calls passed in via data."
        }
      },
      "nonces(address)": {
        "params": {
          "account": "the account to query"
        },
        "returns": {
          "nonce": "nonce"
        }
      },
      "nonces(uint256)": {
        "params": {
          "id": "token id to query"
        },
        "returns": {
          "nonce": "nonce"
        }
      },
      "ownerAndLastTransferBlockNumberList(uint256[])": {
        "params": {
          "ids": "The list of token ids to check."
        },
        "returns": {
          "ownersData": "The list of (owner, lastTransferBlockNumber) for each ids given as input."
        }
      },
      "ownerOf(uint256)": {
        "params": {
          "id": "The id of the token."
        },
        "returns": {
          "owner": "The address of the token owner."
        }
      },
      "royaltyInfo(uint256,uint256)": {
        "params": {
          "": "//id - the token queried for royalty information.",
          "salePrice": "- the sale price of the token specified by id."
        },
        "returns": {
          "receiver": "- address of who should be sent the royalty payment.",
          "royaltyAmount": "- the royalty payment amount for salePrice."
        }
      },
      "safeTransferFrom(address,address,uint256)": {
        "params": {
          "from": "The send of the token.",
          "id": "The id of the token.",
          "to": "The recipient of the token."
        }
      },
      "safeTransferFrom(address,address,uint256,bytes)": {
        "params": {
          "data": "Additional data.",
          "from": "The sender of the token.",
          "id": "The id of the token.",
          "to": "The recipient of the token."
        }
      },
      "setApprovalForAll(address,bool)": {
        "params": {
          "approved": "The determination of the approval.",
          "operator": "The address receiving the approval."
        }
      },
      "setRoyaltyParameters(address,uint96)": {
        "params": {
          "newReceiver": "the address that should receive the royalty proceeds.",
          "royaltyPer10Thousands": "the share of the salePrice (in 1/10000) given to the receiver."
        }
      },
      "tokenNonces(uint256)": {
        "params": {
          "id": "token id to query"
        },
        "returns": {
          "nonce": "nonce"
        }
      },
      "transferFrom(address,address,uint256)": {
        "params": {
          "from": "The sender of the token.",
          "id": "The id of the token.",
          "to": "The recipient of the token."
        }
      }
    },
    "version": 1
  },
  "userdoc": {
    "kind": "user",
    "methods": {
      "approve(address,uint256)": {
        "notice": "Approve an operator to transfer a specific token on the senders behalf."
      },
      "balanceOf(address)": {
        "notice": "Get the number of tokens owned by an address."
      },
      "getApproved(uint256)": {
        "notice": "Get the approved operator for a specific token."
      },
      "guardian()": {
        "notice": "guardian has some special vetoing power to guide the direction of the DAO. It can only remove rights from the DAO. It could be used to immortalize rules. For example: the royalty setup could be frozen."
      },
      "isApprovedForAll(address,address)": {
        "notice": "Check if the sender approved the operator."
      },
      "minter()": {
        "notice": "address allowed to mint, allow the sale contract to be separated from the token contract that can focus on the core logic Once all 1024 potential bleeps (there could be less, at minimum there are 576 bleeps) are minted, no minter can mint anymore"
      },
      "minterAdmin()": {
        "notice": "minterAdmin can update the minter. At the time being there is 576 Bleeps but there is space for extra instrument and the upper limit is 1024. could be given to the DAO later so instrument can be added, the sale of these new bleeps could benenfit the DAO too and add new members."
      },
      "multicall(bytes[])": {
        "notice": "Call multiple functions in the current contract and return the data from all of them if they all succeed."
      },
      "name()": {
        "notice": "A descriptive name for a collection of NFTs in this contract."
      },
      "nonces(address)": {
        "notice": "return the account nonce, used for approvalForAll permit or other account related matter"
      },
      "nonces(uint256)": {
        "notice": "return the token nonce, used for individual approve permit or other token related matter"
      },
      "ownerAndLastTransferBlockNumberList(uint256[])": {
        "notice": "Get the list of owner of a token and the blockNumber of its last transfer, useful to voting mechanism."
      },
      "ownerOf(uint256)": {
        "notice": "Get the owner of a token."
      },
      "royaltyAdmin()": {
        "notice": "address allowed to set royalty parameters"
      },
      "royaltyInfo(uint256,uint256)": {
        "notice": "Called with the sale price to determine how much royalty is owed and to whom."
      },
      "safeTransferFrom(address,address,uint256)": {
        "notice": "Transfer a token between 2 addresses letting the receiver know of the transfer."
      },
      "safeTransferFrom(address,address,uint256,bytes)": {
        "notice": "Transfer a token between 2 addresses letting the receiver knows of the transfer."
      },
      "setApprovalForAll(address,bool)": {
        "notice": "Set the approval for an operator to manage all the tokens of the sender."
      },
      "setGuardian(address)": {
        "notice": "set the new guardian that can freeze the other admins (except owner). Can only be called by the current guardian."
      },
      "setMinter(address)": {
        "notice": "set the new minter that can mint Can only be called by the minter admin."
      },
      "setMinterAdmin(address)": {
        "notice": "set the new minterAdmin that can set the minter for Bleeps Can only be called by the current minter admin."
      },
      "setRoyaltyAdmin(address)": {
        "notice": "set the new royaltyAdmin that can change the royalties Can only be called by the current royalty admin."
      },
      "setRoyaltyParameters(address,uint96)": {
        "notice": "set a new royalty receiver and rate, Can only be set by the `royaltyAdmin`."
      },
      "symbol()": {
        "notice": "An abbreviated name for NFTs in this contract."
      },
      "tokenNonces(uint256)": {
        "notice": "return the token nonce, used for individual approve permit or other token related matter"
      },
      "transferFrom(address,address,uint256)": {
        "notice": "Transfer a token between 2 addresses."
      }
    },
    "version": 1
  },
  "storageLayout": {
    "storage": [
      {
        "astId": 2435,
        "contract": "src/BleepBeats.sol:BleepBeats",
        "label": "_owners",
        "offset": 0,
        "slot": "0",
        "type": "t_mapping(t_uint256,t_uint256)"
      },
      {
        "astId": 2439,
        "contract": "src/BleepBeats.sol:BleepBeats",
        "label": "_balances",
        "offset": 0,
        "slot": "1",
        "type": "t_mapping(t_address,t_uint256)"
      },
      {
        "astId": 2445,
        "contract": "src/BleepBeats.sol:BleepBeats",
        "label": "_operatorsForAll",
        "offset": 0,
        "slot": "2",
        "type": "t_mapping(t_address,t_mapping(t_address,t_bool))"
      },
      {
        "astId": 2449,
        "contract": "src/BleepBeats.sol:BleepBeats",
        "label": "_operators",
        "offset": 0,
        "slot": "3",
        "type": "t_mapping(t_uint256,t_address)"
      },
      {
        "astId": 2052,
        "contract": "src/BleepBeats.sol:BleepBeats",
        "label": "_userNonces",
        "offset": 0,
        "slot": "4",
        "type": "t_mapping(t_address,t_uint256)"
      },
      {
        "astId": 3292,
        "contract": "src/BleepBeats.sol:BleepBeats",
        "label": "minterAdmin",
        "offset": 0,
        "slot": "5",
        "type": "t_address"
      },
      {
        "astId": 3295,
        "contract": "src/BleepBeats.sol:BleepBeats",
        "label": "minter",
        "offset": 0,
        "slot": "6",
        "type": "t_address"
      },
      {
        "astId": 1648,
        "contract": "src/BleepBeats.sol:BleepBeats",
        "label": "_royalty",
        "offset": 0,
        "slot": "7",
        "type": "t_struct(Royalty)1645_storage"
      },
      {
        "astId": 1651,
        "contract": "src/BleepBeats.sol:BleepBeats",
        "label": "royaltyAdmin",
        "offset": 0,
        "slot": "8",
        "type": "t_address"
      }
    ],
    "types": {
      "t_address": {
        "encoding": "inplace",
        "label": "address",
        "numberOfBytes": "20"
      },
      "t_bool": {
        "encoding": "inplace",
        "label": "bool",
        "numberOfBytes": "1"
      },
      "t_mapping(t_address,t_bool)": {
        "encoding": "mapping",
        "key": "t_address",
        "label": "mapping(address => bool)",
        "numberOfBytes": "32",
        "value": "t_bool"
      },
      "t_mapping(t_address,t_mapping(t_address,t_bool))": {
        "encoding": "mapping",
        "key": "t_address",
        "label": "mapping(address => mapping(address => bool))",
        "numberOfBytes": "32",
        "value": "t_mapping(t_address,t_bool)"
      },
      "t_mapping(t_address,t_uint256)": {
        "encoding": "mapping",
        "key": "t_address",
        "label": "mapping(address => uint256)",
        "numberOfBytes": "32",
        "value": "t_uint256"
      },
      "t_mapping(t_uint256,t_address)": {
        "encoding": "mapping",
        "key": "t_uint256",
        "label": "mapping(uint256 => address)",
        "numberOfBytes": "32",
        "value": "t_address"
      },
      "t_mapping(t_uint256,t_uint256)": {
        "encoding": "mapping",
        "key": "t_uint256",
        "label": "mapping(uint256 => uint256)",
        "numberOfBytes": "32",
        "value": "t_uint256"
      },
      "t_struct(Royalty)1645_storage": {
        "encoding": "inplace",
        "label": "struct UsingGlobalRoyalties.Royalty",
        "members": [
          {
            "astId": 1642,
            "contract": "src/BleepBeats.sol:BleepBeats",
            "label": "receiver",
            "offset": 0,
            "slot": "0",
            "type": "t_address"
          },
          {
            "astId": 1644,
            "contract": "src/BleepBeats.sol:BleepBeats",
            "label": "per10Thousands",
            "offset": 20,
            "slot": "0",
            "type": "t_uint96"
          }
        ],
        "numberOfBytes": "32"
      },
      "t_uint256": {
        "encoding": "inplace",
        "label": "uint256",
        "numberOfBytes": "32"
      },
      "t_uint96": {
        "encoding": "inplace",
        "label": "uint96",
        "numberOfBytes": "12"
      }
    }
  }
}