{
  "address": "0xf91d518A093978851DE05458C33B92B11c6f778A",
  "abi": [
    {
      "inputs": [],
      "name": "MusicByteCodeTooLarge",
      "type": "error"
    },
    {
      "inputs": [],
      "name": "MusicContractCreationFailure",
      "type": "error"
    },
    {
      "inputs": [],
      "name": "MusicExecutionFailure",
      "type": "error"
    },
    {
      "inputs": [
        {
          "internalType": "bytes",
          "name": "musicBytecode",
          "type": "bytes"
        },
        {
          "internalType": "uint256",
          "name": "start",
          "type": "uint256"
        },
        {
          "internalType": "uint256",
          "name": "length",
          "type": "uint256"
        }
      ],
      "name": "play",
      "outputs": [
        {
          "internalType": "string",
          "name": "",
          "type": "string"
        }
      ],
      "stateMutability": "nonpayable",
      "type": "function"
    }
  ],
  "transactionHash": "0x11bc616e9108995bc4daf989d5c59d5f49ab59d5afce267df00ac9bf824851f9",
  "args": [],
  "numDeployments": 1,
  "solcInputHash": "31c01428ddf131e36b0c3061acfafa35",
  "bytecode": "0x608060405234801561001057600080fd5b5061080d806100206000396000f3fe608060405234801561001057600080fd5b506004361061002b5760003560e01c80635704545b14610030575b600080fd5b61004361003e366004610498565b610059565b6040516100509190610580565b60405180910390f35b606060006040518060600160405280602c815260200161076c602c913990506024830160ff8116602483015360ff8160081c16602583015360ff8160101c1660268301535060ff8316604882015360ff8360081c16604982015360ff8360101c16604a8201536100f3816100ce87878761011c565b6040516020016100df9291906105b3565b6040516020818303038152906040526102c8565b60405160200161010391906105e2565b6040516020818303038152906040529150509392505050565b60606000846040516020016101319190610627565b60408051601f198184030181529190528551909150604d810161ffff811115610186576040517f90860d6000000000000000000000000000000000000000000000000000000000815260040160405180910390fd5b8060081c602184015360ff8116602284015360008351602085016000f0905073ffffffffffffffffffffffffffffffffffffffff81166101f2576040517fd4cefffb00000000000000000000000000000000000000000000000000000000815260040160405180910390fd5b6000808273ffffffffffffffffffffffffffffffffffffffff16608089901b8a1760405160200161022591815260200190565b60408051601f198184030181529082905261023f916106df565b600060405180830381855afa9150503d806000811461027a576040519150601f19603f3d011682016040523d82523d6000602084013e61027f565b606091505b5091509150816102bb576040517fdae8c31100000000000000000000000000000000000000000000000000000000815260040160405180910390fd5b9998505050505050505050565b606081516000036102e757505060408051602081019091526000815290565b600060405180606001604052806040815260200161079860409139905060006003845160026103169190610711565b610320919061072a565b61032b90600461074c565b9050600061033a826020610711565b67ffffffffffffffff81111561035257610352610482565b6040519080825280601f01601f19166020018201604052801561037c576020820181803683370190505b509050818152600183018586518101602084015b818310156103e8576003830192508251603f8160121c168501518253600182019150603f81600c1c168501518253600182019150603f8160061c168501518253600182019150603f8116850151825350600101610390565b600389510660018114610402576002811461044c57610474565b7f3d3d0000000000000000000000000000000000000000000000000000000000007ffffffffffffffffffffffffffffffffffffffffffffffffffffffffffffffffe830152610474565b7f3d000000000000000000000000000000000000000000000000000000000000006000198301525b509398975050505050505050565b634e487b7160e01b600052604160045260246000fd5b6000806000606084860312156104ad57600080fd5b833567ffffffffffffffff808211156104c557600080fd5b818601915086601f8301126104d957600080fd5b8135818111156104eb576104eb610482565b604051601f8201601f19908116603f0116810190838211818310171561051357610513610482565b8160405282815289602084870101111561052c57600080fd5b82602086016020830137600060208483010152809750505050505060208401359150604084013590509250925092565b60005b8381101561057757818101518382015260200161055f565b50506000910152565b602081526000825180602084015261059f81604085016020870161055c565b601f01601f19169190910160400192915050565b600083516105c581846020880161055c565b8351908301906105d981836020880161055c565b01949350505050565b7f646174613a617564696f2f7761763b6261736536342c0000000000000000000081526000825161061a81601685016020870161055c565b9190910160160192915050565b7f61006d600081600b8239f36000358060801b806000529060801c60205260006081527f40525b000000000000000000000000000000000000000000000000000000000060208201526000825161068581602385016020870161055c565b7f60ff90166040518060800190919053600101806040526020516000516001018060239390910192830152507f6000529110601757602051806060526020016060f300000000000000000000006043820152605801919050565b600082516106f181846020870161055c565b9190910192915050565b634e487b7160e01b600052601160045260246000fd5b80820180821115610724576107246106fb565b92915050565b60008261074757634e487b7160e01b600052601260045260246000fd5b500490565b6000816000190483118215151615610766576107666106fb565b50029056fe524946460000000057415645666d74201000000001000100401f0000401f00000100080064617461000000004142434445464748494a4b4c4d4e4f505152535455565758595a6162636465666768696a6b6c6d6e6f707172737475767778797a303132333435363738392b2fa2646970667358221220795a1abebc6edf636a732f4f9cc55c919304a1153ed0bc2ae58b42f45efd962664736f6c63430008100033",
  "devdoc": {
    "kind": "dev",
    "methods": {},
    "version": 1
  },
  "userdoc": {
    "kind": "user",
    "methods": {},
    "version": 1
  },
  "storageLayout": {
    "storage": [],
    "types": null
  }
}