{
  "address": "0xf611cB9EB62dA165d3b83950BC476afeD9887E0B",
  "abi": [
    {
      "inputs": [],
      "name": "MusicByteCodeTooLarge",
      "type": "error"
    },
    {
      "inputs": [],
      "name": "MusicContractCreationFailure",
      "type": "error"
    },
    {
      "inputs": [],
      "name": "MusicExecutionFailure",
      "type": "error"
    },
    {
      "inputs": [
        {
          "internalType": "bytes",
          "name": "musicBytecode",
          "type": "bytes"
        }
      ],
      "name": "create",
      "outputs": [
        {
          "internalType": "address",
          "name": "executor",
          "type": "address"
        }
      ],
      "stateMutability": "nonpayable",
      "type": "function"
    },
    {
      "inputs": [
        {
          "internalType": "bytes",
          "name": "musicBytecode",
          "type": "bytes"
        },
        {
          "internalType": "uint256",
          "name": "start",
          "type": "uint256"
        },
        {
          "internalType": "uint256",
          "name": "length",
          "type": "uint256"
        }
      ],
      "name": "execute",
      "outputs": [
        {
          "internalType": "bytes",
          "name": "",
          "type": "bytes"
        }
      ],
      "stateMutability": "nonpayable",
      "type": "function"
    },
    {
      "inputs": [
        {
          "internalType": "address",
          "name": "executor",
          "type": "address"
        },
        {
          "internalType": "uint256",
          "name": "start",
          "type": "uint256"
        },
        {
          "internalType": "uint256",
          "name": "length",
          "type": "uint256"
        }
      ],
      "name": "execute",
      "outputs": [
        {
          "internalType": "bytes",
          "name": "",
          "type": "bytes"
        }
      ],
      "stateMutability": "view",
      "type": "function"
    },
    {
      "inputs": [
        {
          "internalType": "bytes",
          "name": "musicBytecode",
          "type": "bytes"
        },
        {
          "internalType": "uint256",
          "name": "start",
          "type": "uint256"
        },
        {
          "internalType": "uint256",
          "name": "length",
          "type": "uint256"
        }
      ],
      "name": "wav",
      "outputs": [
        {
          "internalType": "bytes",
          "name": "",
          "type": "bytes"
        }
      ],
      "stateMutability": "nonpayable",
      "type": "function"
    },
    {
      "inputs": [
        {
          "internalType": "address",
          "name": "executor",
          "type": "address"
        },
        {
          "internalType": "uint256",
          "name": "start",
          "type": "uint256"
        },
        {
          "internalType": "uint256",
          "name": "length",
          "type": "uint256"
        }
      ],
      "name": "wav",
      "outputs": [
        {
          "internalType": "bytes",
          "name": "",
          "type": "bytes"
        }
      ],
      "stateMutability": "view",
      "type": "function"
    }
  ],
  "transactionHash": "0xe23b3000db23193be2264f861640d8675fdbe7d6272bd562949b7c89f4a335dc",
  "args": [],
  "numDeployments": 1,
  "solcInputHash": "63c10ad80977e9884e59b054bf3afff8",
  "bytecode": "0x608060405234801561001057600080fd5b506106f2806100206000396000f3fe608060405234801561001057600080fd5b50600436106100675760003560e01c8063c52ab77811610050578063c52ab778146100a8578063cf5ba53f146100bb578063d0d33cbe146100f357600080fd5b8063701c89381461006c578063a981010114610095575b600080fd5b61007f61007a36600461045d565b610106565b60405161008c91906104cf565b60405180910390f35b61007f6100a336600461045d565b610129565b61007f6100b6366004610502565b610143565b6100ce6100c9366004610550565b610220565b60405173ffffffffffffffffffffffffffffffffffffffff909116815260200161008c565b61007f610101366004610502565b6102fb565b6060600061011385610220565b9050610120818585610143565b95945050505050565b60606000610138858585610106565b90506101208161030a565b60606000808573ffffffffffffffffffffffffffffffffffffffff16608085901b866fffffffffffffffffffffffffffffffff161760405160200161018a91815260200190565b60408051601f19818403018152908290526101a49161058d565b600060405180830381855afa9150503d80600081146101df576040519150601f19603f3d011682016040523d82523d6000602084013e6101e4565b606091505b509150915081610120576040517fdae8c31100000000000000000000000000000000000000000000000000000000815260040160405180910390fd5b6000808260405160200161023491906105a9565b60408051601f198184030181529190528351909150604d810161ffff811115610289576040517f90860d6000000000000000000000000000000000000000000000000000000000815260040160405180910390fd5b8060081c602184015360ff811660228401538251602084016000f0935073ffffffffffffffffffffffffffffffffffffffff84166102f3576040517fd4cefffb00000000000000000000000000000000000000000000000000000000815260040160405180910390fd5b505050919050565b60606000610138858585610143565b606060006040518060600160405280602c8152602001610691602c913990506000835190506024810160ff8116602484015360ff8160081c16602584015360ff8160101c1660268401535060ff8116604883015360ff8160081c16604983015360ff8160101c16604a8301538184604051602001610389929190610661565b60405160208183030381529060405292505050919050565b7f4e487b7100000000000000000000000000000000000000000000000000000000600052604160045260246000fd5b600082601f8301126103e157600080fd5b813567ffffffffffffffff808211156103fc576103fc6103a1565b604051601f8301601f19908116603f01168101908282118183101715610424576104246103a1565b8160405283815286602085880101111561043d57600080fd5b836020870160208301376000602085830101528094505050505092915050565b60008060006060848603121561047257600080fd5b833567ffffffffffffffff81111561048957600080fd5b610495868287016103d0565b9660208601359650604090950135949350505050565b60005b838110156104c65781810151838201526020016104ae565b50506000910152565b60208152600082518060208401526104ee8160408501602087016104ab565b601f01601f19169190910160400192915050565b60008060006060848603121561051757600080fd5b833573ffffffffffffffffffffffffffffffffffffffff8116811461053b57600080fd5b95602085013595506040909401359392505050565b60006020828403121561056257600080fd5b813567ffffffffffffffff81111561057957600080fd5b610585848285016103d0565b949350505050565b6000825161059f8184602087016104ab565b9190910192915050565b7f61006d600081600b8239f36000358060801b806000529060801c60205260006081527f40525b00000000000000000000000000000000000000000000000000000000006020820152600082516106078160238501602087016104ab565b7f60ff90166040518060800190919053600101806040526020516000516001018060239390910192830152507f6000529110601757602051806060526020016060f300000000000000000000006043820152605801919050565b600083516106738184602088016104ab565b8351908301906106878183602088016104ab565b0194935050505056fe524946460000000057415645666d74201000000001000100401f0000401f0000010008006461746100000000a26469706673582212209ff3912672960e721b3ed2c778e03bb4ecb165523e3459225342ec252415c6a864736f6c63430008100033",
  "devdoc": {
    "kind": "dev",
    "methods": {
      "create(bytes)": {
        "params": {
          "musicBytecode": "the evm bytecode the Bleep Machine will execute in a loop"
        }
      },
      "execute(address,uint256,uint256)": {
        "params": {
          "executor": "the generated contract that perform the Bleep Machine loop (see `create`)",
          "length": "the number of sample to generate",
          "start": "sample offset at whcih the music start"
        }
      },
      "execute(bytes,uint256,uint256)": {
        "params": {
          "length": "the number of sample to generate",
          "musicBytecode": "the evm bytecode the Bleep Machine will execute in a loop",
          "start": "sample offset at whcih the music start"
        }
      },
      "wav(address,uint256,uint256)": {
        "params": {
          "executor": "the generated contract that perform the Bleep Machine loop (see `create`)",
          "length": "the number of sample to generate",
          "start": "sample offset at whcih the music start"
        }
      },
      "wav(bytes,uint256,uint256)": {
        "params": {
          "length": "the number of sample to generate",
          "musicBytecode": "the evm bytecode the Bleep Machine will execute in a loop",
          "start": "sample offset at whcih the music start"
        }
      }
    },
    "version": 1
  },
  "userdoc": {
    "kind": "user",
    "methods": {
      "create(bytes)": {
        "notice": "create a contract that generate the music from a given start offset and length"
      },
      "execute(address,uint256,uint256)": {
        "notice": "generate a raw 8 bits samples from EVM bytecode (`musicBytecode`) with a specific offset and length"
      },
      "execute(bytes,uint256,uint256)": {
        "notice": "generate a raw 8 bits samples from a contract pre-created and a specific offset and length"
      },
      "wav(address,uint256,uint256)": {
        "notice": "generate a wav file from a contract pre-created and a specific offset and length"
      },
      "wav(bytes,uint256,uint256)": {
        "notice": "generate a wav file from EVM bytecode (`musicBytecode`) with a specific offset and length"
      }
    },
    "version": 1
  },
  "storageLayout": {
    "storage": [],
    "types": null
  }
}