{
  "address": "0x24F99E723329688D398fbA1bE61996057754e9Cd",
  "abi": [
    {
      "inputs": [],
      "name": "MusicByteCodeTooLarge",
      "type": "error"
    },
    {
      "inputs": [],
      "name": "MusicContractCreationFailure",
      "type": "error"
    },
    {
      "inputs": [],
      "name": "MusicExecutionFailure",
      "type": "error"
    },
    {
      "inputs": [
        {
          "internalType": "bytes",
          "name": "musicBytecode",
          "type": "bytes"
        },
        {
          "internalType": "uint256",
          "name": "start",
          "type": "uint256"
        },
        {
          "internalType": "uint256",
          "name": "length",
          "type": "uint256"
        }
      ],
      "name": "WAV",
      "outputs": [
        {
          "internalType": "bytes",
          "name": "",
          "type": "bytes"
        }
      ],
      "stateMutability": "nonpayable",
      "type": "function"
    },
    {
      "inputs": [
        {
          "internalType": "bytes",
          "name": "musicBytecode",
          "type": "bytes"
        }
      ],
      "name": "_create",
      "outputs": [
        {
          "internalType": "address",
          "name": "executor",
          "type": "address"
        }
      ],
      "stateMutability": "nonpayable",
      "type": "function"
    },
    {
      "inputs": [
        {
          "internalType": "bytes",
          "name": "musicBytecode",
          "type": "bytes"
        },
        {
          "internalType": "uint256",
          "name": "start",
          "type": "uint256"
        },
        {
          "internalType": "uint256",
          "name": "length",
          "type": "uint256"
        }
      ],
      "name": "generate",
      "outputs": [
        {
          "internalType": "bytes",
          "name": "",
          "type": "bytes"
        }
      ],
      "stateMutability": "nonpayable",
      "type": "function"
    },
    {
      "inputs": [
        {
          "internalType": "address",
          "name": "addr",
          "type": "address"
        }
      ],
      "name": "listenTo",
      "outputs": [
        {
          "internalType": "bytes",
          "name": "",
          "type": "bytes"
        }
      ],
      "stateMutability": "view",
      "type": "function"
    }
  ],
  "transactionHash": "0xb88209b3ed82fbe22025da71fd25ca36a8a112d88d9addd0aae76ef01244e7e1",
  "args": [],
  "numDeployments": 5,
  "solcInputHash": "d5626ea50d97f54c1df7ede13934fc2a",
  "bytecode": "0x608060405234801561001057600080fd5b506106d6806100206000396000f3fe608060405234801561001057600080fd5b506004361061004c5760003560e01c80632c54e4fd1461005157806344eea1e01461007a5780635734d3511461008d5780635a3efa66146100c5575b600080fd5b61006461005f36600461045a565b6100d8565b60405161007191906104cc565b60405180910390f35b6100646100883660046104ff565b6100f5565b6100a061009b36600461053c565b610138565b60405173ffffffffffffffffffffffffffffffffffffffff9091168152602001610071565b6100646100d336600461045a565b610213565b60606100ed6100e8858585610213565b610307565b949350505050565b60606101328273ffffffffffffffffffffffffffffffffffffffff16803b806020016040519081016040528181526000908060200190933c610307565b92915050565b6000808260405160200161014c9190610571565b60408051601f198184030181529190528351909150604d810161ffff8111156101a1576040517f90860d6000000000000000000000000000000000000000000000000000000000815260040160405180910390fd5b8060081c602184015360ff811660228401538251602084016000f0935073ffffffffffffffffffffffffffffffffffffffff841661020b576040517fd4cefffb00000000000000000000000000000000000000000000000000000000815260040160405180910390fd5b505050919050565b6060600061022085610138565b90506000808273ffffffffffffffffffffffffffffffffffffffff16608086901b876fffffffffffffffffffffffffffffffff161760405160200161026791815260200190565b60408051601f198184030181529082905261028191610629565b600060405180830381855afa9150503d80600081146102bc576040519150601f19603f3d011682016040523d82523d6000602084013e6102c1565b606091505b5091509150816102fd576040517fdae8c31100000000000000000000000000000000000000000000000000000000815260040160405180910390fd5b9695505050505050565b606060006040518060600160405280602c8152602001610675602c913990506000835190506024810160ff8116602484015360ff8160081c16602584015360ff8160101c1660268401535060ff8116604883015360ff8160081c16604983015360ff8160101c16604a8301538184604051602001610386929190610645565b60405160208183030381529060405292505050919050565b7f4e487b7100000000000000000000000000000000000000000000000000000000600052604160045260246000fd5b600082601f8301126103de57600080fd5b813567ffffffffffffffff808211156103f9576103f961039e565b604051601f8301601f19908116603f011681019082821181831017156104215761042161039e565b8160405283815286602085880101111561043a57600080fd5b836020870160208301376000602085830101528094505050505092915050565b60008060006060848603121561046f57600080fd5b833567ffffffffffffffff81111561048657600080fd5b610492868287016103cd565b9660208601359650604090950135949350505050565b60005b838110156104c35781810151838201526020016104ab565b50506000910152565b60208152600082518060208401526104eb8160408501602087016104a8565b601f01601f19169190910160400192915050565b60006020828403121561051157600080fd5b813573ffffffffffffffffffffffffffffffffffffffff8116811461053557600080fd5b9392505050565b60006020828403121561054e57600080fd5b813567ffffffffffffffff81111561056557600080fd5b6100ed848285016103cd565b7f61006d600081600b8239f36000358060801b806000529060801c60205260006081527f40525b00000000000000000000000000000000000000000000000000000000006020820152600082516105cf8160238501602087016104a8565b7f60ff90166040518060800190919053600101806040526020516000516001018060239390910192830152507f6000529110601757602051806060526020016060f300000000000000000000006043820152605801919050565b6000825161063b8184602087016104a8565b9190910192915050565b600083516106578184602088016104a8565b83519083019061066b8183602088016104a8565b0194935050505056fe524946460000000057415645666d74201000000001000100401f0000401f0000010008006461746100000000a2646970667358221220a804129b0ebbe563ffdb7f27176756d053bda74eb14f21b196282829ea09979264736f6c63430008100033",
  "devdoc": {
    "kind": "dev",
    "methods": {
      "WAV(bytes,uint256,uint256)": {
        "params": {
          "length": "the number of samples to generate.",
          "musicBytecode": "the evm bytecode that the Bleep Machine will execute in a loop.",
          "start": "sample offset at which the music starts."
        },
        "returns": {
          "_0": "WAV file (8 bits, 8000Hz, mono)."
        }
      },
      "_create(bytes)": {
        "details": "Creates a new contract that generate the music from a given start offset and length.",
        "params": {
          "musicBytecode": "the evm bytecode the Bleep Machine will execute in a loop."
        },
        "returns": {
          "executor": "address of the contract that will generate samples when executed."
        }
      },
      "generate(bytes,uint256,uint256)": {
        "params": {
          "length": "the number of samples to generate.",
          "musicBytecode": "the evm bytecode that the Bleep Machine will execute in a loop.",
          "start": "sample offset at which the music starts."
        },
        "returns": {
          "_0": "8bit samples buffer."
        }
      },
      "listenTo(address)": {
        "params": {
          "addr": "address of any contract. Most will generate noises."
        },
        "returns": {
          "_0": "WAV file (8 bits, 8000Hz, mono)."
        }
      }
    },
    "version": 1
  },
  "userdoc": {
    "kind": "user",
    "methods": {
      "WAV(bytes,uint256,uint256)": {
        "notice": "Generates a WAV file (8 bits, 8000Hz, mono) from EVM bytecode (`musicBytecode`) with a specific offset and length."
      },
      "generate(bytes,uint256,uint256)": {
        "notice": "Generates raw 8 bits samples from EVM bytecode (`musicBytecode`) with a specific offset and length."
      },
      "listenTo(address)": {
        "notice": "Generates a WAV file (8 bits, 8000Hz, mono) from contract's code at specific address."
      }
    },
    "version": 1
  },
  "storageLayout": {
    "storage": [],
    "types": null
  }
}