{
  "address": "0xC0484EBf1709B61d009f486955C59adEed9e4eA8",
  "abi": [
    {
      "inputs": [],
      "name": "MusicByteCodeTooLarge",
      "type": "error"
    },
    {
      "inputs": [],
      "name": "MusicContractCreationFailure",
      "type": "error"
    },
    {
      "inputs": [],
      "name": "MusicExecutionFailure",
      "type": "error"
    },
    {
      "inputs": [
        {
          "internalType": "bytes",
          "name": "musicBytecode",
          "type": "bytes"
        },
        {
          "internalType": "uint256",
          "name": "start",
          "type": "uint256"
        },
        {
          "internalType": "uint256",
          "name": "length",
          "type": "uint256"
        }
      ],
      "name": "WAV",
      "outputs": [
        {
          "internalType": "bytes",
          "name": "",
          "type": "bytes"
        }
      ],
      "stateMutability": "nonpayable",
      "type": "function"
    },
    {
      "inputs": [
        {
          "internalType": "bytes",
          "name": "musicBytecode",
          "type": "bytes"
        }
      ],
      "name": "_create",
      "outputs": [
        {
          "internalType": "address",
          "name": "executor",
          "type": "address"
        }
      ],
      "stateMutability": "nonpayable",
      "type": "function"
    },
    {
      "inputs": [
        {
          "internalType": "bytes",
          "name": "musicBytecode",
          "type": "bytes"
        },
        {
          "internalType": "uint256",
          "name": "start",
          "type": "uint256"
        },
        {
          "internalType": "uint256",
          "name": "length",
          "type": "uint256"
        }
      ],
      "name": "generate",
      "outputs": [
        {
          "internalType": "bytes",
          "name": "",
          "type": "bytes"
        }
      ],
      "stateMutability": "nonpayable",
      "type": "function"
    },
    {
      "inputs": [
        {
          "internalType": "address",
          "name": "addr",
          "type": "address"
        }
      ],
      "name": "listenTo",
      "outputs": [
        {
          "internalType": "bytes",
          "name": "",
          "type": "bytes"
        }
      ],
      "stateMutability": "view",
      "type": "function"
    },
    {
      "inputs": [],
      "name": "name",
      "outputs": [
        {
          "internalType": "string",
          "name": "",
          "type": "string"
        }
      ],
      "stateMutability": "pure",
      "type": "function"
    }
  ],
  "transactionHash": "0x3588467f896fbd6b84d646a9d9a5f5f45d631adee7cb6a83876d250c33b80a1a",
  "args": [],
  "numDeployments": 11,
  "solcInputHash": "bc38489ad57b86bf0af6a7206f29d02c",
  "bytecode": "0x608060405234801561001057600080fd5b506106c1806100206000396000f3fe608060405234801561001057600080fd5b50600436106100675760003560e01c806344eea1e01161005057806344eea1e0146100ca5780635734d351146100dd5780635a3efa661461011557600080fd5b806306fdde031461006c5780632c54e4fd146100b7575b600080fd5b60408051808201909152601181527f54686520426c656570204d616368696e6500000000000000000000000000000060208201525b6040516100ae9190610444565b60405180910390f35b6100a16100c536600461051a565b610128565b6100a16100d8366004610568565b61014d565b6100f06100eb36600461059e565b61016e565b60405173ffffffffffffffffffffffffffffffffffffffff90911681526020016100ae565b6100a161012336600461051a565b610249565b60606000610135836102a1565b905061014585858584602c610384565b949350505050565b6060813b600061015c826102a1565b9050816000604c8301863c9392505050565b6000808260405160200161018291906105d3565b60408051601f198184030181529190528351909150603c810161ffff8111156101d7576040517f90860d6000000000000000000000000000000000000000000000000000000000815260040160405180910390fd5b8060081c602184015360ff811660228401538251602084016000f0935073ffffffffffffffffffffffffffffffffffffffff8416610241576040517fd4cefffb00000000000000000000000000000000000000000000000000000000815260040160405180910390fd5b505050919050565b606060008267ffffffffffffffff8111156102665761026661045e565b6040519080825280601f01601f191660200182016040528015610290576020820181803683370190505b509050610145858585846000610384565b606081602c0167ffffffffffffffff8111156102bf576102bf61045e565b6040519080825280601f01601f1916602001820160405280156102e9576020820181803683370190505b5090507f524946460000000057415645666d74201000000001000100401f0000401f000060208201527f010008006461746100000000000000000000000000000000000000000000000060408201526024820160ff8116602483015360ff8160081c16602583015360ff8160101c1660268301535060ff8216604882015360ff8260081c16604982015360ff8260101c16604a820153919050565b600061038f8661016e565b905060006040518560801b8760801b60801c17815285602085018601602083865afa915050806103eb576040517fdae8c31100000000000000000000000000000000000000000000000000000000815260040160405180910390fd5b50505050505050565b60005b8381101561040f5781810151838201526020016103f7565b50506000910152565b600081518084526104308160208601602086016103f4565b601f01601f19169290920160200192915050565b6020815260006104576020830184610418565b9392505050565b7f4e487b7100000000000000000000000000000000000000000000000000000000600052604160045260246000fd5b600082601f83011261049e57600080fd5b813567ffffffffffffffff808211156104b9576104b961045e565b604051601f8301601f19908116603f011681019082821181831017156104e1576104e161045e565b816040528381528660208588010111156104fa57600080fd5b836020870160208301376000602085830101528094505050505092915050565b60008060006060848603121561052f57600080fd5b833567ffffffffffffffff81111561054657600080fd5b6105528682870161048d565b9660208601359650604090950135949350505050565b60006020828403121561057a57600080fd5b813573ffffffffffffffffffffffffffffffffffffffff8116811461045757600080fd5b6000602082840312156105b057600080fd5b813567ffffffffffffffff8111156105c757600080fd5b6101458482850161048d565b7f61006d600081600b8239f36000358060801b60801c806000529060801c60205281527f5b000000000000000000000000000000000000000000000000000000000000006020820152600082516106318160218501602087016103f4565b7f6040519060ff168160600153600101806040526000518101906020511160155760219390910192830152507f6020516060f30000000000000000000000000000000000000000000000000000604182015260470191905056fea2646970667358221220a680b0552b10a40ffbf7e146f67aa564658804547a44f4c4fc2ecccb562a1c2864736f6c63430008100033",
  "devdoc": {
    "kind": "dev",
    "methods": {
      "WAV(bytes,uint256,uint256)": {
        "params": {
          "length": "the number of samples to generate.",
          "musicBytecode": "the EVM bytecode that the Bleep Machine will execute in a loop.",
          "start": "sample offset at which the music starts."
        },
        "returns": {
          "_0": "WAV file (8 bits, 8000Hz, mono)."
        }
      },
      "_create(bytes)": {
        "details": "Creates a new contract that generate the music from a given start offset and length.",
        "params": {
          "musicBytecode": "the EVM bytecode the Bleep Machine will execute in a loop."
        },
        "returns": {
          "executor": "address of the contract that will generate samples when executed."
        }
      },
      "generate(bytes,uint256,uint256)": {
        "params": {
          "length": "the number of samples to generate.",
          "musicBytecode": "the EVM bytecode that the Bleep Machine will execute in a loop.",
          "start": "sample offset at which the music starts."
        },
        "returns": {
          "_0": "8 bits samples buffer."
        }
      },
      "listenTo(address)": {
        "params": {
          "addr": "address of any contract. Most will generate noises."
        },
        "returns": {
          "_0": "WAV file (8 bits, 8000Hz, mono)."
        }
      }
    },
    "version": 1
  },
  "userdoc": {
    "kind": "user",
    "methods": {
      "WAV(bytes,uint256,uint256)": {
        "notice": "Generates a WAV file (8 bits, 8000Hz, mono) by executing the EVM bytecode provided (`musicBytecode`). The time offset is the only element on the stack at each loop iteration. Such offset starts at `start` and is increased by one for each iteration. The code is expected to provide an 8 bits sample as the only element in the stack at the end of each iteration. The loop is executed `length` times to generate `length` samples which compose the music generated."
      },
      "generate(bytes,uint256,uint256)": {
        "notice": "Generates raw 8 bits samples by executing the EVM bytecode provided (`musicBytecode`). The time offset is the only element on the stack at each loop iteration. Such offset starts at `start` and is increased by one for each iteration. The code is expected to provide an 8 bits sample as the only element in the stack at the end of each iteration. The loop is executed `length` times to generate `length` samples which compose the music generated."
      },
      "listenTo(address)": {
        "notice": "Generates a WAV file (8 bits, 8000Hz, mono) from contract's code at a specific address."
      },
      "name()": {
        "notice": "return the name of the contract"
      }
    },
    "version": 1
  },
  "storageLayout": {
    "storage": [],
    "types": null
  }
}