{
  "address": "0x99174dBF4Ff14F2F0148fCFd551b0DfC742A421F",
  "abi": [
    {
      "inputs": [],
      "name": "MusicByteCodeTooLarge",
      "type": "error"
    },
    {
      "inputs": [],
      "name": "MusicContractCreationFailure",
      "type": "error"
    },
    {
      "inputs": [],
      "name": "MusicExecutionFailure",
      "type": "error"
    },
    {
      "inputs": [
        {
          "internalType": "bytes",
          "name": "musicBytecode",
          "type": "bytes"
        },
        {
          "internalType": "uint256",
          "name": "start",
          "type": "uint256"
        },
        {
          "internalType": "uint256",
          "name": "length",
          "type": "uint256"
        }
      ],
      "name": "WAV",
      "outputs": [
        {
          "internalType": "bytes",
          "name": "",
          "type": "bytes"
        }
      ],
      "stateMutability": "nonpayable",
      "type": "function"
    },
    {
      "inputs": [
        {
          "internalType": "bytes",
          "name": "musicBytecode",
          "type": "bytes"
        },
        {
          "internalType": "uint256",
          "name": "start",
          "type": "uint256"
        },
        {
          "internalType": "uint256",
          "name": "length",
          "type": "uint256"
        }
      ],
      "name": "generate",
      "outputs": [
        {
          "internalType": "bytes",
          "name": "",
          "type": "bytes"
        }
      ],
      "stateMutability": "nonpayable",
      "type": "function"
    },
    {
      "inputs": [
        {
          "internalType": "address",
          "name": "addr",
          "type": "address"
        }
      ],
      "name": "listenTo",
      "outputs": [
        {
          "internalType": "bytes",
          "name": "",
          "type": "bytes"
        }
      ],
      "stateMutability": "view",
      "type": "function"
    },
    {
      "inputs": [],
      "name": "name",
      "outputs": [
        {
          "internalType": "string",
          "name": "",
          "type": "string"
        }
      ],
      "stateMutability": "pure",
      "type": "function"
    }
  ],
  "transactionHash": "0x98ec3cfd6a828f1f1efb1d4db5a15d7dbbfe1748ec03aae7f3fad147390902d4",
  "args": [],
  "numDeployments": 1,
  "solcInputHash": "a86187af63e1272cc104846ff4fd70c2",
  "bytecode": "0x608060405234801561001057600080fd5b50610622806100206000396000f3fe608060405234801561001057600080fd5b506004361061004c5760003560e01c806306fdde03146100515780632c54e4fd1461009c57806344eea1e0146100af5780635a3efa66146100c2575b600080fd5b60408051808201909152601181527f54686520426c656570204d616368696e6500000000000000000000000000000060208201525b60405161009391906103f1565b60405180910390f35b6100866100aa36600461043a565b6100d5565b6100866100bd3660046104fe565b6100fa565b6100866100d036600461043a565b61011b565b606060006100e283610173565b90506100f285858584602c610256565b949350505050565b6060813b600061010982610173565b9050816000604c8301863c9392505050565b606060008267ffffffffffffffff8111156101385761013861040b565b6040519080825280601f01601f191660200182016040528015610162576020820181803683370190505b5090506100f2858585846000610256565b606081602c0167ffffffffffffffff8111156101915761019161040b565b6040519080825280601f01601f1916602001820160405280156101bb576020820181803683370190505b5090507f524946460000000057415645666d74201000000001000100401f0000401f000060208201527f010008006461746100000000000000000000000000000000000000000000000060408201526024820160ff8116602483015360ff8160081c16602583015360ff8160101c1660268301535060ff8216604882015360ff8260081c16604982015360ff8260101c16604a820153919050565b6000610261866102c6565b905060006040518560801b8760801b60801c17815285602085018601602083865afa915050806102bd576040517fdae8c31100000000000000000000000000000000000000000000000000000000815260040160405180910390fd5b50505050505050565b600080826040516020016102da9190610534565b60408051601f198184030181529190528351909150603c810161ffff81111561032f576040517f90860d6000000000000000000000000000000000000000000000000000000000815260040160405180910390fd5b8060081c602184015360ff811660228401538251602084016000f0935073ffffffffffffffffffffffffffffffffffffffff8416610399576040517fd4cefffb00000000000000000000000000000000000000000000000000000000815260040160405180910390fd5b505050919050565b60005b838110156103bc5781810151838201526020016103a4565b50506000910152565b600081518084526103dd8160208601602086016103a1565b601f01601f19169290920160200192915050565b60208152600061040460208301846103c5565b9392505050565b7f4e487b7100000000000000000000000000000000000000000000000000000000600052604160045260246000fd5b60008060006060848603121561044f57600080fd5b833567ffffffffffffffff8082111561046757600080fd5b818601915086601f83011261047b57600080fd5b81358181111561048d5761048d61040b565b604051601f8201601f19908116603f011681019083821181831017156104b5576104b561040b565b816040528281528960208487010111156104ce57600080fd5b82602086016020830137600060208483010152809750505050505060208401359150604084013590509250925092565b60006020828403121561051057600080fd5b813573ffffffffffffffffffffffffffffffffffffffff8116811461040457600080fd5b7f61006d600081600b8239f36000358060801b60801c806000529060801c60205281527f5b000000000000000000000000000000000000000000000000000000000000006020820152600082516105928160218501602087016103a1565b7f6040519060ff168160600153600101806040526000518101906020511160155760219390910192830152507f6020516060f30000000000000000000000000000000000000000000000000000604182015260470191905056fea26469706673582212201be939de39f141e84938d609b7267cbcd8c42917ecbba90328dd12e23408c9af64736f6c63430008100033",
  "devdoc": {
    "kind": "dev",
    "methods": {
      "WAV(bytes,uint256,uint256)": {
        "params": {
          "length": "the number of samples to generate.",
          "musicBytecode": "the EVM bytecode that the Bleep Machine will execute in a loop.",
          "start": "sample offset at which the music starts."
        },
        "returns": {
          "_0": "WAV file (8 bits, 8000Hz, mono)."
        }
      },
      "generate(bytes,uint256,uint256)": {
        "params": {
          "length": "the number of samples to generate.",
          "musicBytecode": "the EVM bytecode that the Bleep Machine will execute in a loop.",
          "start": "sample offset at which the music starts."
        },
        "returns": {
          "_0": "8 bits samples buffer."
        }
      },
      "listenTo(address)": {
        "params": {
          "addr": "address of any contract. Most will generate noises."
        },
        "returns": {
          "_0": "WAV file (8 bits, 8000Hz, mono)."
        }
      }
    },
    "version": 1
  },
  "userdoc": {
    "kind": "user",
    "methods": {
      "WAV(bytes,uint256,uint256)": {
        "notice": "Generates a WAV file (8 bits, 8000Hz, mono) by executing the EVM bytecode provided (`musicBytecode`). The time offset is the only element on the stack at each loop iteration. Such offset starts at `start` and is increased by one for each iteration. The code is expected to provide an 8 bits sample as the only element in the stack at the end of each iteration. The loop is executed `length` times to generate `length` samples which compose the music generated."
      },
      "generate(bytes,uint256,uint256)": {
        "notice": "Generates raw 8 bits samples by executing the EVM bytecode provided (`musicBytecode`). The time offset is the only element on the stack at each loop iteration. Such offset starts at `start` and is increased by one for each iteration. The code is expected to provide an 8 bits sample as the only element in the stack at the end of each iteration. The loop is executed `length` times to generate `length` samples which compose the music generated."
      },
      "listenTo(address)": {
        "notice": "Generates a WAV file (8 bits, 8000Hz, mono) from contract's code at a specific address."
      },
      "name()": {
        "notice": "return the name of the contract"
      }
    },
    "version": 1
  },
  "storageLayout": {
    "storage": [],
    "types": null
  }
}